{
  "abi": [
    {
      "inputs": [
        {
          "internalType": "contract GammaTradeMarket",
          "name": "_gammaTradeMarket",
          "type": "address"
        }
      ],
      "stateMutability": "nonpayable",
      "type": "constructor"
    },
    {
      "inputs": [],
      "name": "gammaTradeMarket",
      "outputs": [
        {
          "internalType": "contract GammaTradeMarket",
          "name": "",
          "type": "address"
        }
      ],
      "stateMutability": "view",
      "type": "function"
    },
    {
      "inputs": [
        {
          "components": [
            {
              "components": [
                {
                  "internalType": "address",
                  "name": "market",
                  "type": "address"
                },
                {
                  "internalType": "address",
                  "name": "trader",
                  "type": "address"
                },
                {
                  "internalType": "uint256",
                  "name": "nonce",
                  "type": "uint256"
                },
                {
                  "internalType": "uint256",
                  "name": "deadline",
                  "type": "uint256"
                }
              ],
              "internalType": "struct OrderInfo",
              "name": "info",
              "type": "tuple"
            },
            {
              "internalType": "uint64",
              "name": "pairId",
              "type": "uint64"
            },
            {
              "internalType": "address",
              "name": "entryTokenAddress",
              "type": "address"
            },
            {
              "internalType": "int256",
              "name": "tradeAmount",
              "type": "int256"
            },
            {
              "internalType": "int256",
              "name": "tradeAmountSqrt",
              "type": "int256"
            },
            {
              "internalType": "int256",
              "name": "marginAmount",
              "type": "int256"
            },
            {
              "internalType": "uint256",
              "name": "hedgeInterval",
              "type": "uint256"
            },
            {
              "internalType": "uint256",
              "name": "sqrtPriceTrigger",
              "type": "uint256"
            },
            {
              "internalType": "uint64",
              "name": "maxSlippageTolerance",
              "type": "uint64"
            },
            {
              "internalType": "address",
              "name": "validatorAddress",
              "type": "address"
            },
            {
              "internalType": "bytes",
              "name": "validationData",
              "type": "bytes"
            }
          ],
          "internalType": "struct GammaOrder",
          "name": "order",
          "type": "tuple"
        },
        {
          "components": [
            {
              "internalType": "address",
              "name": "settlementContractAddress",
              "type": "address"
            },
            {
              "internalType": "bytes",
              "name": "encodedData",
              "type": "bytes"
            }
          ],
          "internalType": "struct ISettlement.SettlementData",
          "name": "settlementData",
          "type": "tuple"
        }
      ],
      "name": "quoteExecuteOrder",
      "outputs": [
        {
          "components": [
            {
              "components": [
                {
                  "internalType": "int256",
                  "name": "perpEntryUpdate",
                  "type": "int256"
                },
                {
                  "internalType": "int256",
                  "name": "sqrtEntryUpdate",
                  "type": "int256"
                },
                {
                  "internalType": "int256",
                  "name": "sqrtRebalanceEntryUpdateUnderlying",
                  "type": "int256"
                },
                {
                  "internalType": "int256",
                  "name": "sqrtRebalanceEntryUpdateStable",
                  "type": "int256"
                },
                {
                  "internalType": "int256",
                  "name": "perpPayoff",
                  "type": "int256"
                },
                {
                  "internalType": "int256",
                  "name": "sqrtPayoff",
                  "type": "int256"
                }
              ],
              "internalType": "struct IPredyPool.Payoff",
              "name": "payoff",
              "type": "tuple"
            },
            {
              "internalType": "uint256",
              "name": "vaultId",
              "type": "uint256"
            },
            {
              "internalType": "int256",
              "name": "fee",
              "type": "int256"
            },
            {
              "internalType": "int256",
              "name": "minMargin",
              "type": "int256"
            },
            {
              "internalType": "int256",
              "name": "averagePrice",
              "type": "int256"
            },
            {
              "internalType": "uint256",
              "name": "sqrtTwap",
              "type": "uint256"
            },
            {
              "internalType": "uint256",
              "name": "sqrtPrice",
              "type": "uint256"
            }
          ],
          "internalType": "struct IPredyPool.TradeResult",
          "name": "tradeResult",
          "type": "tuple"
        }
      ],
      "stateMutability": "nonpayable",
      "type": "function"
    }
  ],
  "bytecode": {
    "object": "0x608060405234801561001057600080fd5b506040516108b43803806108b483398101604081905261002f91610054565b600080546001600160a01b0319166001600160a01b0392909216919091179055610084565b60006020828403121561006657600080fd5b81516001600160a01b038116811461007d57600080fd5b9392505050565b610821806100936000396000f3fe608060405234801561001057600080fd5b50600436106100365760003560e01c80635369a7ce1461003b5780637e1dcaa41461006b575b600080fd5b60005461004e906001600160a01b031681565b6040516001600160a01b0390911681526020015b60405180910390f35b61007e610079366004610478565b6100fb565b60408051825180518252602080820151818401528184015183850152606080830151818501526080808401518186015260a093840151848601529186015160c0808601919091529486015160e085015285015161010084015284015161012083015283015161014082015291015161016082015261018001610062565b6101036101da565b600054604051631f8772a960e21b81526001600160a01b0390911690637e1dcaa4906101359086908690600401610612565b600060405180830381600087803b15801561014f57600080fd5b505af1925050508015610160575060015b6101a1573d80801561018e576040519150601f19603f3d011682016040523d82523d6000602084013e610193565b606091505b5061019d816101a7565b9150505b92915050565b6101af6101da565b60c0825110156101c157815182602001fd5b818060200190518101906101a19190610733565b919050565b6040518060e0016040528061021e6040518060c001604052806000815260200160008152602001600081526020016000815260200160008152602001600081525090565b81526020016000815260200160008152602001600081526020016000815260200160008152602001600081525090565b634e487b7160e01b600052604160045260246000fd5b604051610160810167ffffffffffffffff811182821017156102885761028861024e565b60405290565b60405160e0810167ffffffffffffffff811182821017156102885761028861024e565b60405160c0810167ffffffffffffffff811182821017156102885761028861024e565b80356001600160a01b03811681146101d557600080fd5b6000608082840312156102fd57600080fd5b6040516080810181811067ffffffffffffffff821117156103205761032061024e565b60405290508061032f836102d4565b815261033d602084016102d4565b602082015260408301356040820152606083013560608201525092915050565b803567ffffffffffffffff811681146101d557600080fd5b600082601f83011261038657600080fd5b813567ffffffffffffffff808211156103a1576103a161024e565b604051601f8301601f19908116603f011681019082821181831017156103c9576103c961024e565b816040528381528660208588010111156103e257600080fd5b836020870160208301376000602085830101528094505050505092915050565b60006040828403121561041457600080fd5b6040516040810167ffffffffffffffff82821081831117156104385761043861024e565b81604052829350610448856102d4565b8352602085013591508082111561045e57600080fd5b5061046b85828601610375565b6020830152505092915050565b6000806040838503121561048b57600080fd5b823567ffffffffffffffff808211156104a357600080fd5b908401906101c082870312156104b857600080fd5b6104c0610264565b6104ca87846102eb565b81526104d86080840161035d565b60208201526104e960a084016102d4565b604082015260c0830135606082015260e083013560808201526101008084013560a08301526101208085013560c08401526101408086013560e0850152610533610160870161035d565b8385015261054461018087016102d4565b828501526101a086013592508483111561055d57600080fd5b6105698a848801610375565b908401525090945050602085013591508082111561058657600080fd5b5061059385828601610402565b9150509250929050565b6000815180845260005b818110156105c3576020818501810151868301820152016105a7565b506000602082860101526020601f19601f83011685010191505092915050565b60018060a01b038151168252600060208201516040602085015261060a604085018261059d565b949350505050565b6040808252835180516001600160a01b0390811684840152602082015116606080850191909152918101516080840152015160a08201526000602084015161066660c084018267ffffffffffffffff169052565b5060408401516001600160a01b03811660e0840152506060840151610100818185015260808601519150610120828186015260a08701519250610140838187015260c088015161016087015260e08801516101808701528288015193506106da6101a087018567ffffffffffffffff169052565b8188015193506101c092506106f9838701856001600160a01b03169052565b8701516101e086019290925250905061071661020084018261059d565b9050828103602084015261072a81856105e3565b95945050505050565b600081830361018081121561074757600080fd5b61074f61028e565b60c082121561075d57600080fd5b6107656102b1565b9150835182526020840151602083015260408401516040830152606084015160608301526080840151608083015260a084015160a083015281815260c0840151602082015260e084015160408201526101008401516060820152610120840151608082015261014084015160a082015261016084015160c082015280925050509291505056fea2646970667358221220c5218ff75be243af624dc5aae4e13c76b956b277611fcd2d8426dff92409de8864736f6c63430008130033",
    "linkReferences": {}
  },
  "methodIdentifiers": {
    "gammaTradeMarket()": "5369a7ce",
    "quoteExecuteOrder(((address,address,uint256,uint256),uint64,address,int256,int256,int256,uint256,uint256,uint64,address,bytes),(address,bytes))": "7e1dcaa4"
  },
  "id": 66
}