{
  "abi": [
    {
      "inputs": [
        {
          "internalType": "contract IPredyPool",
          "name": "_predyPool",
          "type": "address"
        },
        {
          "internalType": "address",
          "name": "quoteTokenAddress",
          "type": "address"
        },
        {
          "internalType": "address",
          "name": "permit2Address",
          "type": "address"
        }
      ],
      "stateMutability": "nonpayable",
      "type": "constructor"
    },
    {
      "inputs": [],
      "name": "CallerIsNotPredyPool",
      "type": "error"
    },
    {
      "inputs": [],
      "name": "DeadlinePassed",
      "type": "error"
    },
    {
      "inputs": [],
      "name": "InvalidMarket",
      "type": "error"
    },
    {
      "inputs": [],
      "name": "SignerIsNotVaultOwner",
      "type": "error"
    },
    {
      "inputs": [
        {
          "internalType": "uint256",
          "name": "vaultId",
          "type": "uint256"
        },
        {
          "internalType": "bytes",
          "name": "settlementData",
          "type": "bytes"
        }
      ],
      "name": "execLiquidationCall",
      "outputs": [],
      "stateMutability": "nonpayable",
      "type": "function"
    },
    {
      "inputs": [
        {
          "components": [
            {
              "internalType": "bytes",
              "name": "order",
              "type": "bytes"
            },
            {
              "internalType": "bytes",
              "name": "sig",
              "type": "bytes"
            }
          ],
          "internalType": "struct IFillerMarket.SignedOrder",
          "name": "order",
          "type": "tuple"
        },
        {
          "components": [
            {
              "internalType": "address",
              "name": "settlementContractAddress",
              "type": "address"
            },
            {
              "internalType": "bytes",
              "name": "encodedData",
              "type": "bytes"
            }
          ],
          "internalType": "struct ISettlement.SettlementData",
          "name": "settlementData",
          "type": "tuple"
        }
      ],
      "name": "executeOrder",
      "outputs": [
        {
          "components": [
            {
              "components": [
                {
                  "internalType": "int256",
                  "name": "perpEntryUpdate",
                  "type": "int256"
                },
                {
                  "internalType": "int256",
                  "name": "sqrtEntryUpdate",
                  "type": "int256"
                },
                {
                  "internalType": "int256",
                  "name": "sqrtRebalanceEntryUpdateUnderlying",
                  "type": "int256"
                },
                {
                  "internalType": "int256",
                  "name": "sqrtRebalanceEntryUpdateStable",
                  "type": "int256"
                },
                {
                  "internalType": "int256",
                  "name": "perpPayoff",
                  "type": "int256"
                },
                {
                  "internalType": "int256",
                  "name": "sqrtPayoff",
                  "type": "int256"
                }
              ],
              "internalType": "struct IPredyPool.Payoff",
              "name": "payoff",
              "type": "tuple"
            },
            {
              "internalType": "uint256",
              "name": "vaultId",
              "type": "uint256"
            },
            {
              "internalType": "int256",
              "name": "fee",
              "type": "int256"
            },
            {
              "internalType": "int256",
              "name": "minMargin",
              "type": "int256"
            },
            {
              "internalType": "int256",
              "name": "averagePrice",
              "type": "int256"
            },
            {
              "internalType": "uint256",
              "name": "sqrtTwap",
              "type": "uint256"
            },
            {
              "internalType": "uint256",
              "name": "sqrtPrice",
              "type": "uint256"
            }
          ],
          "internalType": "struct IPredyPool.TradeResult",
          "name": "tradeResult",
          "type": "tuple"
        }
      ],
      "stateMutability": "nonpayable",
      "type": "function"
    },
    {
      "inputs": [
        {
          "components": [
            {
              "internalType": "uint256",
              "name": "pairId",
              "type": "uint256"
            },
            {
              "internalType": "uint256",
              "name": "vaultId",
              "type": "uint256"
            },
            {
              "internalType": "int256",
              "name": "tradeAmount",
              "type": "int256"
            },
            {
              "internalType": "int256",
              "name": "tradeAmountSqrt",
              "type": "int256"
            },
            {
              "internalType": "bytes",
              "name": "extraData",
              "type": "bytes"
            }
          ],
          "internalType": "struct IPredyPool.TradeParams",
          "name": "tradeParams",
          "type": "tuple"
        },
        {
          "components": [
            {
              "components": [
                {
                  "internalType": "int256",
                  "name": "perpEntryUpdate",
                  "type": "int256"
                },
                {
                  "internalType": "int256",
                  "name": "sqrtEntryUpdate",
                  "type": "int256"
                },
                {
                  "internalType": "int256",
                  "name": "sqrtRebalanceEntryUpdateUnderlying",
                  "type": "int256"
                },
                {
                  "internalType": "int256",
                  "name": "sqrtRebalanceEntryUpdateStable",
                  "type": "int256"
                },
                {
                  "internalType": "int256",
                  "name": "perpPayoff",
                  "type": "int256"
                },
                {
                  "internalType": "int256",
                  "name": "sqrtPayoff",
                  "type": "int256"
                }
              ],
              "internalType": "struct IPredyPool.Payoff",
              "name": "payoff",
              "type": "tuple"
            },
            {
              "internalType": "uint256",
              "name": "vaultId",
              "type": "uint256"
            },
            {
              "internalType": "int256",
              "name": "fee",
              "type": "int256"
            },
            {
              "internalType": "int256",
              "name": "minMargin",
              "type": "int256"
            },
            {
              "internalType": "int256",
              "name": "averagePrice",
              "type": "int256"
            },
            {
              "internalType": "uint256",
              "name": "sqrtTwap",
              "type": "uint256"
            },
            {
              "internalType": "uint256",
              "name": "sqrtPrice",
              "type": "uint256"
            }
          ],
          "internalType": "struct IPredyPool.TradeResult",
          "name": "",
          "type": "tuple"
        }
      ],
      "name": "predyTradeAfterCallback",
      "outputs": [],
      "stateMutability": "nonpayable",
      "type": "function"
    },
    {
      "inputs": [
        {
          "internalType": "uint256",
          "name": "vaultId",
          "type": "uint256"
        }
      ],
      "name": "userPositions",
      "outputs": [
        {
          "internalType": "address",
          "name": "",
          "type": "address"
        }
      ],
      "stateMutability": "view",
      "type": "function"
    }
  ],
  "bytecode": {
    "object": "0x60806040523480156200001157600080fd5b506040516200184538038062001845833981016040819052620000349162000090565b600080546001600160a01b039485166001600160a01b031991821617909155600280549385169382169390931790925560018054919093169116179055620000e4565b6001600160a01b03811681146200008d57600080fd5b50565b600080600060608486031215620000a657600080fd5b8351620000b38162000077565b6020850151909350620000c68162000077565b6040850151909250620000d98162000077565b809150509250925092565b61175180620000f46000396000f3fe608060405234801561001057600080fd5b506004361061004c5760003560e01c80631e7f13701461005157806374304a7914610097578063944b560b146100ac578063a966d863146100bf575b600080fd5b61007a61005f366004610a7f565b6003602052600090815260409020546001600160a01b031681565b6040516001600160a01b0390911681526020015b60405180910390f35b6100aa6100a5366004610c0c565b6100df565b005b6100aa6100ba366004610d07565b610174565b6100d26100cd366004610e1f565b610272565b60405161008e9190610f49565b6000546040805180820182523081526020810184905290516391d0370f60e01b81526001600160a01b03909216916391d0370f9161012b918691670de0b6b3a764000091600401610fd7565b610180604051808303816000875af115801561014b573d6000803e3d6000fd5b505050506040513d601f19601f8201168201806040525081019061016f9190610fff565b505050565b6000546001600160a01b0316331461019f57604051637542ed5d60e11b815260040160405180910390fd5b600082608001518060200190518101906101b991906110b7565b905060008113156101e15760025460005461016f916001600160a01b0390811691168361051e565b600081121561016f576000546001600160a01b031663c6b6d340600130610207856110d0565b6040516001600160e01b031960e086901b16815292151560048401526001600160a01b0390911660248301526044820152606401600060405180830381600087803b15801561025557600080fd5b505af1158015610269573d6000803e3d6000fd5b50505050505050565b61027a61092c565b60025460009081906102969086906001600160a01b0316610622565b915091506102a3816106b2565b60008054906101000a90046001600160a01b03166001600160a01b0316639b819b306040518060a0016040528085604001516001600160401b031681526020018560200151815260200185606001518152602001856080015181526020018560a0015160405160200161031891815260200190565b604051602081830303815290604052815250866040518363ffffffff1660e01b81526004016103489291906110fa565b610180604051808303816000875af1158015610368573d6000803e3d6000fd5b505050506040513d601f19601f8201168201806040525081019061038c9190610fff565b925081602001516000036104365781516020908101518482018051600090815260038452604080822080546001600160a01b0319166001600160a01b0395861617905590549151865190940151905163055a6d9b60e51b8152600481019490945282166024840152169063ab4db36090604401600060405180830381600087803b15801561041957600080fd5b505af115801561042d573d6000803e3d6000fd5b5050505061047b565b60208084015160009081526003825260409020548351909101516001600160a01b0390811691161461047b5760405163708c545360e01b815260040160405180910390fd5b8160e001516001600160a01b0316630e136af583856040518363ffffffff1660e01b81526004016104ad929190611152565b60006040518083038186803b1580156104c557600080fd5b505afa1580156104d9573d6000803e3d6000fd5b5050505060008260a0015112156105155760025482516020015160a0840151610515926001600160a01b03169190610510906110d0565b61051e565b50505b92915050565b604080516001600160a01b038481166024830152604480830185905283518084039091018152606490920183526020820180516001600160e01b031663a9059cbb60e01b179052915160009283929087169161057a9190611227565b6000604051808303816000865af19150503d80600081146105b7576040519150601f19603f3d011682016040523d82523d6000602084013e6105bc565b606091505b50915091508180156105e65750805115806105e65750808060200190518101906105e69190611243565b61061b5760405162461bcd60e51b815260206004820152600260248201526114d560f21b604482015260640160405180910390fd5b5050505050565b61062a6109a0565b610632610a04565b836000015180602001905181019061064a919061134a565b91506000808360a0015113610660576000610666565b8260a001515b9050826040518060a0016040528085600001518152602001866001600160a01b0316815260200183815260200161069c86610853565b8152602097880151970196909652959350505050565b6106bb816108d8565b6001546001600160a01b031663137c29fe610741836040805160a0810182526000606082018181526080830182905282526020820181905291810191909152506040805160a0810182526020808401516001600160a01b031660608084019182528585015160808501529083528451840151918301919091529251909201519082015290565b6040805180820182526000808252602091820152815180830183523081529186015190820152846000015160200151856060015160405160200161078490611424565b60408051601f198184030181526080830190915260478083529091906116d560208301396040516020016107b992919061151b565b60408051601f1981840301815260608301909152602e8083529091906116a760208301396040516020016107ee92919061154a565b60408051601f198184030181529082905260808901516001600160e01b031960e089901b168352610825969594939260040161159d565b600060405180830381600087803b15801561083f57600080fd5b505af115801561061b573d6000803e3d6000fd5b600060405160200161086490611424565b6040516020818303038152906040528051906020012082602001518360400151846060015185608001518660a001518760c001518860e001518961010001516040516020016108bb99989796959493929190611640565b604051602081830303815290604052805190602001209050919050565b8051516001600160a01b0316301461090357604051639db8d5b160e01b815260040160405180910390fd5b8051606001514211156109295760405163387b2e5560e11b815260040160405180910390fd5b50565b6040518060e001604052806109706040518060c001604052806000815260200160008152602001600081526020016000815260200160008152602001600081525090565b81526020016000815260200160008152602001600081526020016000815260200160008152602001600081525090565b6040518061012001604052806109b4610a45565b81526020016000815260200160006001600160401b031681526020016000815260200160008152602001600081526020016000815260200160006001600160a01b03168152602001606081525090565b6040518060a00160405280610a17610a45565b815260200160006001600160a01b031681526020016000815260200160008019168152602001606081525090565b604051806080016040528060006001600160a01b0316815260200160006001600160a01b0316815260200160008152602001600081525090565b600060208284031215610a9157600080fd5b5035919050565b634e487b7160e01b600052604160045260246000fd5b60405160e081016001600160401b0381118282101715610ad057610ad0610a98565b60405290565b60405160c081016001600160401b0381118282101715610ad057610ad0610a98565b60405160a081016001600160401b0381118282101715610ad057610ad0610a98565b604080519081016001600160401b0381118282101715610ad057610ad0610a98565b60405161012081016001600160401b0381118282101715610ad057610ad0610a98565b604051601f8201601f191681016001600160401b0381118282101715610b8757610b87610a98565b604052919050565b60006001600160401b03821115610ba857610ba8610a98565b50601f01601f191660200190565b600082601f830112610bc757600080fd5b8135610bda610bd582610b8f565b610b5f565b818152846020838601011115610bef57600080fd5b816020850160208301376000918101602001919091529392505050565b60008060408385031215610c1f57600080fd5b8235915060208301356001600160401b03811115610c3c57600080fd5b610c4885828601610bb6565b9150509250929050565b6000818303610180811215610c6657600080fd5b610c6e610aae565b915060c0811215610c7e57600080fd5b50610c87610ad6565b823581526020830135602082015260408301356040820152606083013560608201526080830135608082015260a083013560a08201528082525060c0820135602082015260e082013560408201526101008201356060820152610120820135608082015261014082013560a082015261016082013560c082015292915050565b6000806101a08385031215610d1b57600080fd5b82356001600160401b0380821115610d3257600080fd5b9084019060a08287031215610d4657600080fd5b610d4e610af8565b82358152602083013560208201526040830135604082015260608301356060820152608083013582811115610d8257600080fd5b610d8e88828601610bb6565b608083015250809450505050610da78460208501610c52565b90509250929050565b6001600160a01b038116811461092957600080fd5b600060408284031215610dd757600080fd5b610ddf610b1a565b90508135610dec81610db0565b815260208201356001600160401b03811115610e0757600080fd5b610e1384828501610bb6565b60208301525092915050565b60008060408385031215610e3257600080fd5b82356001600160401b0380821115610e4957600080fd5b9084019060408287031215610e5d57600080fd5b610e65610b1a565b823582811115610e7457600080fd5b610e8088828601610bb6565b825250602083013582811115610e9557600080fd5b610ea188828601610bb6565b602083015250809450506020850135915080821115610ebf57600080fd5b50610c4885828601610dc5565b8051805183526020810151602084015260408101516040840152606081015160608401526080810151608084015260a081015160a084015250602081015160c0830152604081015160e08301526060810151610100830152608081015161012083015260a081015161014083015260c08101516101608301525050565b61018081016105188284610ecc565b60005b83811015610f73578181015183820152602001610f5b565b50506000910152565b60008151808452610f94816020860160208601610f58565b601f01601f19169290920160200192915050565b60018060a01b0381511682526000602082015160406020850152610fcf6040850182610f7c565b949350505050565b838152826020820152606060408201526000610ff66060830184610fa8565b95945050505050565b600081830361018081121561101357600080fd5b61101b610aae565b60c082121561102957600080fd5b611031610ad6565b9150835182526020840151602083015260408401516040830152606084015160608301526080840151608083015260a084015160a083015281815260c0840151602082015260e084015160408201526101008401516060820152610120840151608082015261014084015160a082015261016084015160c0820152809250505092915050565b6000602082840312156110c957600080fd5b5051919050565b6000600160ff1b82016110f357634e487b7160e01b600052601160045260246000fd5b5060000390565b60408152825160408201526020830151606082015260408301516080820152606083015160a08201526000608084015160a060c084015261113e60e0840182610f7c565b90508281036020840152610ff68185610fa8565b6101a0808252835180516001600160a01b03908116848401526020820151166101c084015260408101516101e08401526060015161020083015260009050602084015161022083015260408401516001600160401b038116610240840152506060840151610260830152608084015161028083015260a08401516102a083015260c08401516102c083015260e08401516001600160a01b0381166102e084015250610100840151610180610300840152611210610320840182610f7c565b9150506112206020830184610ecc565b9392505050565b60008251611239818460208701610f58565b9190910192915050565b60006020828403121561125557600080fd5b8151801515811461122057600080fd5b805161127081610db0565b919050565b60006080828403121561128757600080fd5b604051608081018181106001600160401b03821117156112a9576112a9610a98565b806040525080915082516112bc81610db0565b815260208301516112cc81610db0565b8060208301525060408301516040820152606083015160608201525092915050565b80516001600160401b038116811461127057600080fd5b600082601f83011261131657600080fd5b8151611324610bd582610b8f565b81815284602083860101111561133957600080fd5b610fcf826020830160208701610f58565b60006020828403121561135c57600080fd5b81516001600160401b038082111561137357600080fd5b90830190610180828603121561138857600080fd5b611390610b3c565b61139a8684611275565b8152608083015160208201526113b260a084016112ee565b604082015260c0830151606082015260e083015160808201526101008084015160a083015261012084015160c08301526113ef6101408501611265565b60e08301526101608401518381111561140757600080fd5b61141388828701611305565b918301919091525095945050505050565b6c08ecadccae4c2d89ee4c8cae45609b1b8152721d5a5b9d0c8d4d881c1bdcda5d1a5bdb92590b606a1b600d8201526d1d5a5b9d0d8d081c185a5c92590b60921b6020820152721a5b9d0c8d4d881d1c985919505b5bdd5b9d0b606a1b602e8201527f696e74323536207472616465416d6f756e74537172742c0000000000000000006041820152731a5b9d0c8d4d881b585c99da5b905b5bdd5b9d0b60621b60588201527f75696e74323536206d617267696e526174696f616464726573732076616c6964606c8201527f61746f724164647265737362797465732076616c69646174696f6e4461746129608c82015260ac0190565b6000835161152d818460208801610f58565b835190830190611541818360208801610f58565b01949350505050565b7447656e6572616c4f72646572207769746e6573732960581b81526000835161157a816015850160208801610f58565b835190830190611591816015840160208801610f58565b01601501949350505050565b60006101406115c0838a5180516001600160a01b03168252602090810151910152565b60208901516040840152604089015160608401526115f4608084018980516001600160a01b03168252602090810151910152565b6001600160a01b03871660c084015260e08301869052610100830181905261161e81840186610f7c565b90508281036101208401526116338185610f7c565b9998505050505050505050565b60006101208b83528a60208401526001600160401b038a1660408401528860608401528760808401528660a08401528560c084015260018060a01b03851660e08401528061010084015261169681840185610f7c565b9c9b50505050505050505050505056fe546f6b656e5065726d697373696f6e73286164647265737320746f6b656e2c75696e7432353620616d6f756e74294f72646572496e666f2861646472657373206d61726b65742c61646472657373207472616465722c75696e74323536206e6f6e63652c75696e7432353620646561646c696e6529a264697066735822122022237452df0eceeb0fb76da2177c85b809bcaaa90cfbeeee8b693d717142fc4064736f6c63430008130033",
    "linkReferences": {}
  },
  "methodIdentifiers": {
    "execLiquidationCall(uint256,bytes)": "74304a79",
    "executeOrder((bytes,bytes),(address,bytes))": "a966d863",
    "predyTradeAfterCallback((uint256,uint256,int256,int256,bytes),((int256,int256,int256,int256,int256,int256),uint256,int256,int256,int256,uint256,uint256))": "944b560b",
    "userPositions(uint256)": "1e7f1370"
  },
  "id": 54
}