{
  "abi": [
    {
      "inputs": [
        {
          "internalType": "contract IPredyPool",
          "name": "_predyPool",
          "type": "address"
        },
        {
          "internalType": "address",
          "name": "quoteTokenAddress",
          "type": "address"
        },
        {
          "internalType": "address",
          "name": "permit2Address",
          "type": "address"
        }
      ],
      "stateMutability": "nonpayable",
      "type": "constructor"
    },
    {
      "inputs": [],
      "name": "CallerIsNotPredyPool",
      "type": "error"
    },
    {
      "inputs": [],
      "name": "DeadlinePassed",
      "type": "error"
    },
    {
      "inputs": [],
      "name": "InvalidMarket",
      "type": "error"
    },
    {
      "inputs": [],
      "name": "SignerIsNotVaultOwner",
      "type": "error"
    },
    {
      "inputs": [
        {
          "internalType": "uint256",
          "name": "vaultId",
          "type": "uint256"
        },
        {
          "internalType": "bytes",
          "name": "settlementData",
          "type": "bytes"
        }
      ],
      "name": "execLiquidationCall",
      "outputs": [],
      "stateMutability": "nonpayable",
      "type": "function"
    },
    {
      "inputs": [
        {
          "components": [
            {
              "internalType": "bytes",
              "name": "order",
              "type": "bytes"
            },
            {
              "internalType": "bytes",
              "name": "sig",
              "type": "bytes"
            }
          ],
          "internalType": "struct IFillerMarket.SignedOrder",
          "name": "order",
          "type": "tuple"
        },
        {
          "components": [
            {
              "internalType": "address",
              "name": "settlementContractAddress",
              "type": "address"
            },
            {
              "internalType": "bytes",
              "name": "encodedData",
              "type": "bytes"
            }
          ],
          "internalType": "struct ISettlement.SettlementData",
          "name": "settlementData",
          "type": "tuple"
        }
      ],
      "name": "executeOrder",
      "outputs": [
        {
          "components": [
            {
              "components": [
                {
                  "internalType": "int256",
                  "name": "perpEntryUpdate",
                  "type": "int256"
                },
                {
                  "internalType": "int256",
                  "name": "sqrtEntryUpdate",
                  "type": "int256"
                },
                {
                  "internalType": "int256",
                  "name": "sqrtRebalanceEntryUpdateUnderlying",
                  "type": "int256"
                },
                {
                  "internalType": "int256",
                  "name": "sqrtRebalanceEntryUpdateStable",
                  "type": "int256"
                },
                {
                  "internalType": "int256",
                  "name": "perpPayoff",
                  "type": "int256"
                },
                {
                  "internalType": "int256",
                  "name": "sqrtPayoff",
                  "type": "int256"
                }
              ],
              "internalType": "struct IPredyPool.Payoff",
              "name": "payoff",
              "type": "tuple"
            },
            {
              "internalType": "uint256",
              "name": "vaultId",
              "type": "uint256"
            },
            {
              "internalType": "int256",
              "name": "fee",
              "type": "int256"
            },
            {
              "internalType": "int256",
              "name": "minMargin",
              "type": "int256"
            },
            {
              "internalType": "int256",
              "name": "averagePrice",
              "type": "int256"
            },
            {
              "internalType": "uint256",
              "name": "sqrtTwap",
              "type": "uint256"
            },
            {
              "internalType": "uint256",
              "name": "sqrtPrice",
              "type": "uint256"
            }
          ],
          "internalType": "struct IPredyPool.TradeResult",
          "name": "tradeResult",
          "type": "tuple"
        }
      ],
      "stateMutability": "nonpayable",
      "type": "function"
    },
    {
      "inputs": [
        {
          "components": [
            {
              "internalType": "uint256",
              "name": "pairId",
              "type": "uint256"
            },
            {
              "internalType": "uint256",
              "name": "vaultId",
              "type": "uint256"
            },
            {
              "internalType": "int256",
              "name": "tradeAmount",
              "type": "int256"
            },
            {
              "internalType": "int256",
              "name": "tradeAmountSqrt",
              "type": "int256"
            },
            {
              "internalType": "bytes",
              "name": "extraData",
              "type": "bytes"
            }
          ],
          "internalType": "struct IPredyPool.TradeParams",
          "name": "tradeParams",
          "type": "tuple"
        },
        {
          "components": [
            {
              "components": [
                {
                  "internalType": "int256",
                  "name": "perpEntryUpdate",
                  "type": "int256"
                },
                {
                  "internalType": "int256",
                  "name": "sqrtEntryUpdate",
                  "type": "int256"
                },
                {
                  "internalType": "int256",
                  "name": "sqrtRebalanceEntryUpdateUnderlying",
                  "type": "int256"
                },
                {
                  "internalType": "int256",
                  "name": "sqrtRebalanceEntryUpdateStable",
                  "type": "int256"
                },
                {
                  "internalType": "int256",
                  "name": "perpPayoff",
                  "type": "int256"
                },
                {
                  "internalType": "int256",
                  "name": "sqrtPayoff",
                  "type": "int256"
                }
              ],
              "internalType": "struct IPredyPool.Payoff",
              "name": "payoff",
              "type": "tuple"
            },
            {
              "internalType": "uint256",
              "name": "vaultId",
              "type": "uint256"
            },
            {
              "internalType": "int256",
              "name": "fee",
              "type": "int256"
            },
            {
              "internalType": "int256",
              "name": "minMargin",
              "type": "int256"
            },
            {
              "internalType": "int256",
              "name": "averagePrice",
              "type": "int256"
            },
            {
              "internalType": "uint256",
              "name": "sqrtTwap",
              "type": "uint256"
            },
            {
              "internalType": "uint256",
              "name": "sqrtPrice",
              "type": "uint256"
            }
          ],
          "internalType": "struct IPredyPool.TradeResult",
          "name": "",
          "type": "tuple"
        }
      ],
      "name": "predyTradeAfterCallback",
      "outputs": [],
      "stateMutability": "nonpayable",
      "type": "function"
    },
    {
      "inputs": [
        {
          "internalType": "uint256",
          "name": "vaultId",
          "type": "uint256"
        }
      ],
      "name": "userPositions",
      "outputs": [
        {
          "internalType": "address",
          "name": "",
          "type": "address"
        }
      ],
      "stateMutability": "view",
      "type": "function"
    }
  ],
  "bytecode": {
    "object": "0x60806040523480156200001157600080fd5b50604051620018d9380380620018d9833981016040819052620000349162000090565b600080546001600160a01b039485166001600160a01b031991821617909155600280549385169382169390931790925560018054919093169116179055620000e4565b6001600160a01b03811681146200008d57600080fd5b50565b600080600060608486031215620000a657600080fd5b8351620000b38162000077565b6020850151909350620000c68162000077565b6040850151909250620000d98162000077565b809150509250925092565b6117e580620000f46000396000f3fe608060405234801561001057600080fd5b506004361061004c5760003560e01c80631e7f13701461005157806374304a7914610097578063944b560b146100ac578063a966d863146100bf575b600080fd5b61007a61005f366004610af7565b6003602052600090815260409020546001600160a01b031681565b6040516001600160a01b0390911681526020015b60405180910390f35b6100aa6100a5366004610c84565b6100df565b005b6100aa6100ba366004610d7f565b610174565b6100d26100cd366004610e97565b610272565b60405161008e9190610fc1565b6000546040805180820182523081526020810184905290516391d0370f60e01b81526001600160a01b03909216916391d0370f9161012b918691670de0b6b3a76400009160040161104f565b610180604051808303816000875af115801561014b573d6000803e3d6000fd5b505050506040513d601f19601f8201168201806040525081019061016f9190611077565b505050565b6000546001600160a01b0316331461019f57604051637542ed5d60e11b815260040160405180910390fd5b600082608001518060200190518101906101b9919061112f565b905060008113156101e15760025460005461016f916001600160a01b0390811691168361051e565b600081121561016f576000546001600160a01b031663c6b6d34060013061020785611148565b6040516001600160e01b031960e086901b16815292151560048401526001600160a01b0390911660248301526044820152606401600060405180830381600087803b15801561025557600080fd5b505af1158015610269573d6000803e3d6000fd5b50505050505050565b61027a6109a4565b60025460009081906102969086906001600160a01b0316610622565b915091506102a3816106b2565b60008054906101000a90046001600160a01b03166001600160a01b0316639b819b306040518060a0016040528085604001516001600160401b031681526020018560200151815260200185606001518152602001856080015181526020018560a0015160405160200161031891815260200190565b604051602081830303815290604052815250866040518363ffffffff1660e01b8152600401610348929190611172565b610180604051808303816000875af1158015610368573d6000803e3d6000fd5b505050506040513d601f19601f8201168201806040525081019061038c9190611077565b925081602001516000036104365781516020908101518482018051600090815260038452604080822080546001600160a01b0319166001600160a01b0395861617905590549151865190940151905163055a6d9b60e51b8152600481019490945282166024840152169063ab4db36090604401600060405180830381600087803b15801561041957600080fd5b505af115801561042d573d6000803e3d6000fd5b5050505061047b565b60208084015160009081526003825260409020548351909101516001600160a01b0390811691161461047b5760405163708c545360e01b815260040160405180910390fd5b8160e001516001600160a01b0316630e136af583856040518363ffffffff1660e01b81526004016104ad9291906111ca565b60006040518083038186803b1580156104c557600080fd5b505afa1580156104d9573d6000803e3d6000fd5b5050505060008260a0015112156105155760025482516020015160a0840151610515926001600160a01b0316919061051090611148565b61051e565b50505b92915050565b604080516001600160a01b038481166024830152604480830185905283518084039091018152606490920183526020820180516001600160e01b031663a9059cbb60e01b179052915160009283929087169161057a919061129f565b6000604051808303816000865af19150503d80600081146105b7576040519150601f19603f3d011682016040523d82523d6000602084013e6105bc565b606091505b50915091508180156105e65750805115806105e65750808060200190518101906105e691906112bb565b61061b5760405162461bcd60e51b815260206004820152600260248201526114d560f21b604482015260640160405180910390fd5b5050505050565b61062a610a18565b610632610a7c565b836000015180602001905181019061064a91906113c2565b91506000808360a0015113610660576000610666565b8260a001515b9050826040518060a0016040528085600001518152602001866001600160a01b0316815260200183815260200161069c86610853565b8152602097880151970196909652959350505050565b6106bb816108e6565b6001546001600160a01b031663137c29fe610741836040805160a0810182526000606082018181526080830182905282526020820181905291810191909152506040805160a0810182526020808401516001600160a01b031660608084019182528585015160808501529083528451840151918301919091529251909201519082015290565b604080518082018252600080825260209182015281518083018352308152918601519082015284600001516020015185606001516040516020016107849061149c565b60408051601f1981840301815260808301909152604780835290919061176960208301396040516020016107b99291906115a9565b60408051601f1981840301815260608301909152602e80835290919061173b60208301396040516020016107ee9291906115d8565b60408051601f198184030181529082905260808901516001600160e01b031960e089901b1683526108259695949392600401611629565b600060405180830381600087803b15801561083f57600080fd5b505af115801561061b573d6000803e3d6000fd5b60006040516020016108649061149c565b60405160208183030381529060405280519060200120610887836000015161093a565b83602001518460400151856060015186608001518760a001518860c001518960e001518a61010001516040516020016108c99a999897969594939291906116cc565b604051602081830303815290604052805190602001209050919050565b8051516001600160a01b0316301461091157604051639db8d5b160e01b815260040160405180910390fd5b8051606001514211156109375760405163387b2e5560e11b815260040160405180910390fd5b50565b60006040518060800160405280604781526020016117696047913980516020918201208351848301516040808701516060808901518351978801969096526001600160a01b03948516928701929092529290911690840152608083015260a082015260c0016108c9565b6040518060e001604052806109e86040518060c001604052806000815260200160008152602001600081526020016000815260200160008152602001600081525090565b81526020016000815260200160008152602001600081526020016000815260200160008152602001600081525090565b604051806101200160405280610a2c610abd565b81526020016000815260200160006001600160401b031681526020016000815260200160008152602001600081526020016000815260200160006001600160a01b03168152602001606081525090565b6040518060a00160405280610a8f610abd565b815260200160006001600160a01b031681526020016000815260200160008019168152602001606081525090565b604051806080016040528060006001600160a01b0316815260200160006001600160a01b0316815260200160008152602001600081525090565b600060208284031215610b0957600080fd5b5035919050565b634e487b7160e01b600052604160045260246000fd5b60405160e081016001600160401b0381118282101715610b4857610b48610b10565b60405290565b60405160c081016001600160401b0381118282101715610b4857610b48610b10565b60405160a081016001600160401b0381118282101715610b4857610b48610b10565b604080519081016001600160401b0381118282101715610b4857610b48610b10565b60405161012081016001600160401b0381118282101715610b4857610b48610b10565b604051601f8201601f191681016001600160401b0381118282101715610bff57610bff610b10565b604052919050565b60006001600160401b03821115610c2057610c20610b10565b50601f01601f191660200190565b600082601f830112610c3f57600080fd5b8135610c52610c4d82610c07565b610bd7565b818152846020838601011115610c6757600080fd5b816020850160208301376000918101602001919091529392505050565b60008060408385031215610c9757600080fd5b8235915060208301356001600160401b03811115610cb457600080fd5b610cc085828601610c2e565b9150509250929050565b6000818303610180811215610cde57600080fd5b610ce6610b26565b915060c0811215610cf657600080fd5b50610cff610b4e565b823581526020830135602082015260408301356040820152606083013560608201526080830135608082015260a083013560a08201528082525060c0820135602082015260e082013560408201526101008201356060820152610120820135608082015261014082013560a082015261016082013560c082015292915050565b6000806101a08385031215610d9357600080fd5b82356001600160401b0380821115610daa57600080fd5b9084019060a08287031215610dbe57600080fd5b610dc6610b70565b82358152602083013560208201526040830135604082015260608301356060820152608083013582811115610dfa57600080fd5b610e0688828601610c2e565b608083015250809450505050610e1f8460208501610cca565b90509250929050565b6001600160a01b038116811461093757600080fd5b600060408284031215610e4f57600080fd5b610e57610b92565b90508135610e6481610e28565b815260208201356001600160401b03811115610e7f57600080fd5b610e8b84828501610c2e565b60208301525092915050565b60008060408385031215610eaa57600080fd5b82356001600160401b0380821115610ec157600080fd5b9084019060408287031215610ed557600080fd5b610edd610b92565b823582811115610eec57600080fd5b610ef888828601610c2e565b825250602083013582811115610f0d57600080fd5b610f1988828601610c2e565b602083015250809450506020850135915080821115610f3757600080fd5b50610cc085828601610e3d565b8051805183526020810151602084015260408101516040840152606081015160608401526080810151608084015260a081015160a084015250602081015160c0830152604081015160e08301526060810151610100830152608081015161012083015260a081015161014083015260c08101516101608301525050565b61018081016105188284610f44565b60005b83811015610feb578181015183820152602001610fd3565b50506000910152565b6000815180845261100c816020860160208601610fd0565b601f01601f19169290920160200192915050565b60018060a01b03815116825260006020820151604060208501526110476040850182610ff4565b949350505050565b83815282602082015260606040820152600061106e6060830184611020565b95945050505050565b600081830361018081121561108b57600080fd5b611093610b26565b60c08212156110a157600080fd5b6110a9610b4e565b9150835182526020840151602083015260408401516040830152606084015160608301526080840151608083015260a084015160a083015281815260c0840151602082015260e084015160408201526101008401516060820152610120840151608082015261014084015160a082015261016084015160c0820152809250505092915050565b60006020828403121561114157600080fd5b5051919050565b6000600160ff1b820161116b57634e487b7160e01b600052601160045260246000fd5b5060000390565b60408152825160408201526020830151606082015260408301516080820152606083015160a08201526000608084015160a060c08401526111b660e0840182610ff4565b9050828103602084015261106e8185611020565b6101a0808252835180516001600160a01b03908116848401526020820151166101c084015260408101516101e08401526060015161020083015260009050602084015161022083015260408401516001600160401b038116610240840152506060840151610260830152608084015161028083015260a08401516102a083015260c08401516102c083015260e08401516001600160a01b0381166102e084015250610100840151610180610300840152611288610320840182610ff4565b9150506112986020830184610f44565b9392505050565b600082516112b1818460208701610fd0565b9190910192915050565b6000602082840312156112cd57600080fd5b8151801515811461129857600080fd5b80516112e881610e28565b919050565b6000608082840312156112ff57600080fd5b604051608081018181106001600160401b038211171561132157611321610b10565b8060405250809150825161133481610e28565b8152602083015161134481610e28565b8060208301525060408301516040820152606083015160608201525092915050565b80516001600160401b03811681146112e857600080fd5b600082601f83011261138e57600080fd5b815161139c610c4d82610c07565b8181528460208386010111156113b157600080fd5b611047826020830160208701610fd0565b6000602082840312156113d457600080fd5b81516001600160401b03808211156113eb57600080fd5b90830190610180828603121561140057600080fd5b611408610bb4565b61141286846112ed565b81526080830151602082015261142a60a08401611366565b604082015260c0830151606082015260e083015160808201526101008084015160a083015261012084015160c083015261146761014085016112dd565b60e08301526101608401518381111561147f57600080fd5b61148b8882870161137d565b918301919091525095945050505050565b6a08ec2dadac29ee4c8cae4560ab1b81526e13dc99195c925b999bc81a5b999bcb608a1b600b820152721d5a5b9d0c8d4d881c1bdcda5d1a5bdb92590b606a1b601a8201526d1d5a5b9d0d8d081c185a5c92590b60921b602d820152721a5b9d0c8d4d881d1c985919505b5bdd5b9d0b606a1b603b8201527f696e74323536207472616465416d6f756e74537172742c000000000000000000604e820152731a5b9d0c8d4d881b585c99da5b905b5bdd5b9d0b60621b60658201527f75696e74323536206d617267696e526174696f616464726573732076616c696460798201527f61746f724164647265737362797465732076616c69646174696f6e4461746129609982015260b90190565b600083516115bb818460208801610fd0565b8351908301906115cf818360208801610fd0565b01949350505050565b7247616d6d614f72646572207769746e6573732960681b815260008351611606816013850160208801610fd0565b83519083019061161d816013840160208801610fd0565b01601301949350505050565b600061014061164c838a5180516001600160a01b03168252602090810151910152565b6020890151604084015260408901516060840152611680608084018980516001600160a01b03168252602090810151910152565b6001600160a01b03871660c084015260e0830186905261010083018190526116aa81840186610ff4565b90508281036101208401526116bf8185610ff4565b9998505050505050505050565b60006101408c83528b60208401528a60408401526001600160401b038a1660608401528860808401528760a08401528660c08401528560e084015260018060a01b0385166101008401528061012084015261172981840185610ff4565b9d9c5050505050505050505050505056fe546f6b656e5065726d697373696f6e73286164647265737320746f6b656e2c75696e7432353620616d6f756e74294f72646572496e666f2861646472657373206d61726b65742c61646472657373207472616465722c75696e74323536206e6f6e63652c75696e7432353620646561646c696e6529a264697066735822122080c3b5b3364fe17aed5bfff3b3142fc5877bfca7ce12618a6f8b1dbff019cf8d64736f6c63430008130033",
    "linkReferences": {}
  },
  "methodIdentifiers": {
    "execLiquidationCall(uint256,bytes)": "74304a79",
    "executeOrder((bytes,bytes),(address,bytes))": "a966d863",
    "predyTradeAfterCallback((uint256,uint256,int256,int256,bytes),((int256,int256,int256,int256,int256,int256),uint256,int256,int256,int256,uint256,uint256))": "944b560b",
    "userPositions(uint256)": "1e7f1370"
  },
  "id": 52
}