{
  "abi": [
    {
      "inputs": [
        {
          "internalType": "contract IPredyPool",
          "name": "_predyPool",
          "type": "address"
        },
        {
          "internalType": "address",
          "name": "permit2Address",
          "type": "address"
        }
      ],
      "stateMutability": "nonpayable",
      "type": "constructor"
    },
    {
      "inputs": [],
      "name": "CallerIsNotFiller",
      "type": "error"
    },
    {
      "inputs": [],
      "name": "CallerIsNotPredyPool",
      "type": "error"
    },
    {
      "inputs": [],
      "name": "DeadlinePassed",
      "type": "error"
    },
    {
      "inputs": [],
      "name": "InvalidMarket",
      "type": "error"
    },
    {
      "inputs": [],
      "name": "OutOfAcceptablePriceRange",
      "type": "error"
    },
    {
      "inputs": [],
      "name": "SignerIsNotVaultOwner",
      "type": "error"
    },
    {
      "inputs": [],
      "name": "SlippageTooLarge",
      "type": "error"
    },
    {
      "inputs": [],
      "name": "BORROW_FEE_RATE",
      "outputs": [
        {
          "internalType": "uint256",
          "name": "",
          "type": "uint256"
        }
      ],
      "stateMutability": "view",
      "type": "function"
    },
    {
      "inputs": [
        {
          "internalType": "uint256",
          "name": "pairId",
          "type": "uint256"
        }
      ],
      "name": "addFillerPool",
      "outputs": [
        {
          "internalType": "address",
          "name": "",
          "type": "address"
        }
      ],
      "stateMutability": "nonpayable",
      "type": "function"
    },
    {
      "inputs": [
        {
          "internalType": "uint256",
          "name": "positionId",
          "type": "uint256"
        },
        {
          "components": [
            {
              "internalType": "address",
              "name": "settlementContractAddress",
              "type": "address"
            },
            {
              "internalType": "bytes",
              "name": "encodedData",
              "type": "bytes"
            }
          ],
          "internalType": "struct ISettlement.SettlementData",
          "name": "settlementData",
          "type": "tuple"
        }
      ],
      "name": "confirmLiquidation",
      "outputs": [],
      "stateMutability": "nonpayable",
      "type": "function"
    },
    {
      "inputs": [
        {
          "internalType": "uint256",
          "name": "pairId",
          "type": "uint256"
        },
        {
          "internalType": "uint256",
          "name": "depositAmount",
          "type": "uint256"
        }
      ],
      "name": "depositToInsurancePool",
      "outputs": [],
      "stateMutability": "nonpayable",
      "type": "function"
    },
    {
      "inputs": [
        {
          "internalType": "uint64",
          "name": "positionId",
          "type": "uint64"
        },
        {
          "components": [
            {
              "internalType": "address",
              "name": "settlementContractAddress",
              "type": "address"
            },
            {
              "internalType": "bytes",
              "name": "encodedData",
              "type": "bytes"
            }
          ],
          "internalType": "struct ISettlement.SettlementData",
          "name": "settlementData",
          "type": "tuple"
        }
      ],
      "name": "execLiquidationCall",
      "outputs": [],
      "stateMutability": "nonpayable",
      "type": "function"
    },
    {
      "inputs": [
        {
          "components": [
            {
              "internalType": "bytes",
              "name": "order",
              "type": "bytes"
            },
            {
              "internalType": "bytes",
              "name": "sig",
              "type": "bytes"
            }
          ],
          "internalType": "struct IFillerMarket.SignedOrder",
          "name": "order",
          "type": "tuple"
        },
        {
          "components": [
            {
              "internalType": "address",
              "name": "settlementContractAddress",
              "type": "address"
            },
            {
              "internalType": "bytes",
              "name": "encodedData",
              "type": "bytes"
            }
          ],
          "internalType": "struct ISettlement.SettlementData",
          "name": "settlementData",
          "type": "tuple"
        }
      ],
      "name": "executeOrder",
      "outputs": [
        {
          "components": [
            {
              "components": [
                {
                  "internalType": "int256",
                  "name": "perpEntryUpdate",
                  "type": "int256"
                },
                {
                  "internalType": "int256",
                  "name": "sqrtEntryUpdate",
                  "type": "int256"
                },
                {
                  "internalType": "int256",
                  "name": "sqrtRebalanceEntryUpdateUnderlying",
                  "type": "int256"
                },
                {
                  "internalType": "int256",
                  "name": "sqrtRebalanceEntryUpdateStable",
                  "type": "int256"
                },
                {
                  "internalType": "int256",
                  "name": "perpPayoff",
                  "type": "int256"
                },
                {
                  "internalType": "int256",
                  "name": "sqrtPayoff",
                  "type": "int256"
                }
              ],
              "internalType": "struct IPredyPool.Payoff",
              "name": "payoff",
              "type": "tuple"
            },
            {
              "internalType": "uint256",
              "name": "vaultId",
              "type": "uint256"
            },
            {
              "internalType": "int256",
              "name": "fee",
              "type": "int256"
            },
            {
              "internalType": "int256",
              "name": "minMargin",
              "type": "int256"
            },
            {
              "internalType": "int256",
              "name": "averagePrice",
              "type": "int256"
            },
            {
              "internalType": "uint256",
              "name": "sqrtTwap",
              "type": "uint256"
            },
            {
              "internalType": "uint256",
              "name": "sqrtPrice",
              "type": "uint256"
            }
          ],
          "internalType": "struct IPredyPool.TradeResult",
          "name": "tradeResult",
          "type": "tuple"
        }
      ],
      "stateMutability": "nonpayable",
      "type": "function"
    },
    {
      "inputs": [
        {
          "internalType": "address",
          "name": "filler",
          "type": "address"
        },
        {
          "internalType": "uint256",
          "name": "pairId",
          "type": "uint256"
        }
      ],
      "name": "insurancePools",
      "outputs": [
        {
          "internalType": "uint256",
          "name": "pairId",
          "type": "uint256"
        },
        {
          "internalType": "address",
          "name": "fillerAddress",
          "type": "address"
        },
        {
          "internalType": "int256",
          "name": "marginAmount",
          "type": "int256"
        }
      ],
      "stateMutability": "view",
      "type": "function"
    },
    {
      "inputs": [
        {
          "components": [
            {
              "internalType": "uint256",
              "name": "pairId",
              "type": "uint256"
            },
            {
              "internalType": "uint256",
              "name": "vaultId",
              "type": "uint256"
            },
            {
              "internalType": "int256",
              "name": "tradeAmount",
              "type": "int256"
            },
            {
              "internalType": "int256",
              "name": "tradeAmountSqrt",
              "type": "int256"
            },
            {
              "internalType": "bytes",
              "name": "extraData",
              "type": "bytes"
            }
          ],
          "internalType": "struct IPredyPool.TradeParams",
          "name": "tradeParams",
          "type": "tuple"
        },
        {
          "components": [
            {
              "components": [
                {
                  "internalType": "int256",
                  "name": "perpEntryUpdate",
                  "type": "int256"
                },
                {
                  "internalType": "int256",
                  "name": "sqrtEntryUpdate",
                  "type": "int256"
                },
                {
                  "internalType": "int256",
                  "name": "sqrtRebalanceEntryUpdateUnderlying",
                  "type": "int256"
                },
                {
                  "internalType": "int256",
                  "name": "sqrtRebalanceEntryUpdateStable",
                  "type": "int256"
                },
                {
                  "internalType": "int256",
                  "name": "perpPayoff",
                  "type": "int256"
                },
                {
                  "internalType": "int256",
                  "name": "sqrtPayoff",
                  "type": "int256"
                }
              ],
              "internalType": "struct IPredyPool.Payoff",
              "name": "payoff",
              "type": "tuple"
            },
            {
              "internalType": "uint256",
              "name": "vaultId",
              "type": "uint256"
            },
            {
              "internalType": "int256",
              "name": "fee",
              "type": "int256"
            },
            {
              "internalType": "int256",
              "name": "minMargin",
              "type": "int256"
            },
            {
              "internalType": "int256",
              "name": "averagePrice",
              "type": "int256"
            },
            {
              "internalType": "uint256",
              "name": "sqrtTwap",
              "type": "uint256"
            },
            {
              "internalType": "uint256",
              "name": "sqrtPrice",
              "type": "uint256"
            }
          ],
          "internalType": "struct IPredyPool.TradeResult",
          "name": "tradeResult",
          "type": "tuple"
        }
      ],
      "name": "predyTradeAfterCallback",
      "outputs": [],
      "stateMutability": "nonpayable",
      "type": "function"
    },
    {
      "inputs": [
        {
          "internalType": "uint256",
          "name": "pairId",
          "type": "uint256"
        }
      ],
      "name": "updateQuoteTokenMap",
      "outputs": [],
      "stateMutability": "nonpayable",
      "type": "function"
    },
    {
      "inputs": [
        {
          "internalType": "uint256",
          "name": "vaultId",
          "type": "uint256"
        }
      ],
      "name": "userPositions",
      "outputs": [
        {
          "internalType": "uint256",
          "name": "id",
          "type": "uint256"
        },
        {
          "internalType": "uint256",
          "name": "pairId",
          "type": "uint256"
        },
        {
          "internalType": "address",
          "name": "filler",
          "type": "address"
        },
        {
          "internalType": "address",
          "name": "owner",
          "type": "address"
        },
        {
          "internalType": "int256",
          "name": "positionAmount",
          "type": "int256"
        },
        {
          "internalType": "int256",
          "name": "positionAmountSqrt",
          "type": "int256"
        },
        {
          "internalType": "int256",
          "name": "assuranceMargin",
          "type": "int256"
        },
        {
          "internalType": "int256",
          "name": "marginAmount",
          "type": "int256"
        },
        {
          "internalType": "uint256",
          "name": "lastBorrowFeeCalculationTime",
          "type": "uint256"
        }
      ],
      "stateMutability": "view",
      "type": "function"
    },
    {
      "inputs": [
        {
          "internalType": "uint256",
          "name": "pairId",
          "type": "uint256"
        },
        {
          "internalType": "uint256",
          "name": "withdrawAmount",
          "type": "uint256"
        }
      ],
      "name": "withdrawFromInsurancePool",
      "outputs": [],
      "stateMutability": "nonpayable",
      "type": "function"
    }
  ],
  "bytecode": {
    "object": "0x60806040523480156200001157600080fd5b50604051620038043803806200380483398101604081905262000034916200007f565b600080546001600160a01b039384166001600160a01b03199182161790915560028054929093169116179055620000be565b6001600160a01b03811681146200007c57600080fd5b50565b600080604083850312156200009357600080fd5b8251620000a08162000066565b6020840151909250620000b38162000066565b809150509250929050565b61373680620000ce6000396000f3fe608060405234801561001057600080fd5b50600436106100a95760003560e01c8063734ee06f11610071578063734ee06f14610227578063944b560b1461023a578063a966d8631461024d578063c2a063e91461026d578063e1c951ca14610280578063e350deb01461029357600080fd5b80630511b7a5146100ae5780631e7f1370146100c3578063474213341461017f5780634b07546f146101aa5780636eec133014610210575b600080fd5b6100c16100bc3660046120fc565b6102a6565b005b61012a6100d136600461211e565b6003602081905260009182526040909120805460018201546002830154938301546004840154600585015460068601546007870154600890970154959794966001600160a01b0395861696949095169492939192909189565b60408051998a5260208a01989098526001600160a01b0396871697890197909752949093166060870152608086019190915260a085015260c084015260e0830152610100820152610120015b60405180910390f35b61019261018d36600461211e565b610390565b6040516001600160a01b039091168152602001610176565b6101ed6101b836600461214c565b600460209081526000928352604080842090915290825290208054600182015460029092015490916001600160a01b03169083565b604080519384526001600160a01b03909216602084015290820152606001610176565b6102196104b081565b604051908152602001610176565b6100c16102353660046120fc565b6103c8565b6100c161024836600461242c565b6104b8565b61026061025b36600461252f565b610592565b6040516101769190612663565b6100c161027b366004612687565b6109d2565b6100c161028e36600461211e565b610c0f565b6100c16102a13660046126cc565b610c64565b3360008181526004602090815260408083208684529091529020600181015490916001600160a01b03909116146102dc57600080fd5b818160020160008282546102f09190612712565b909155505060028101546000131561030757600080fd5b6000838152600160205260409081902054905163a9059cbb60e01b8152336004820152602481018490526001600160a01b039091169063a9059cbb906044015b6020604051808303816000875af1158015610366573d6000803e3d6000fd5b505050506040513d601f19601f8201168201806040525081019061038a919061274e565b50505050565b336000818152600460209081526040808320858452909152812083815560010180546001600160a01b03191683179055905b92915050565b3360008181526004602090815260408083208684529091529020600101546001600160a01b0316146103f957600080fd5b600082815260016020526040908190205490516323b872dd60e01b8152336004820152306024820152604481018390526001600160a01b03909116906323b872dd906064016020604051808303816000875af115801561045d573d6000803e3d6000fd5b505050506040513d601f19601f82011682018060405250810190610481919061274e565b50336000908152600460209081526040808320858452909152812060020180548392906104af908490612769565b90915550505050565b6000546001600160a01b031633146104e357604051637542ed5d60e11b815260040160405180910390fd5b600082608001518060200190518101906104fd9190612794565b90508060a0015115610525576105258360200151846000015183604001518460600151610fa0565b602080840151600090815260038252604080822060028101546001600160a01b03908116845260048552828420885185528552919092206001810154938501519293909261057b92859288928216911614611078565b61058b8183858760600151611154565b5050505050565b61059a612088565b600083600001518060200190518101906105b491906128f9565b905060006105c68286602001516113f9565b6040808401516001600160401b03166000908152600160205220549091506001600160a01b03166105f657600080fd5b6040808301516001600160401b031660009081526001602052205460608301516001600160a01b0390811691161461062d57600080fd5b610636816114af565b60208201511561065f5761065f6003600084602001518152602001908152602001600020611648565b60008054906101000a90046001600160a01b03166001600160a01b0316639b819b306040518060a0016040528085604001516001600160401b0316815260200185602001518152602001856080015181526020018560a0015181526020016040518060c00160405280600060018111156106db576106db6129db565b8152602001336001600160a01b031681526020018760000151602001516001600160a01b031681526020018760000151604001516001600160a01b031681526020018760c0015181526020018760200151600014151581525060405160200161074491906129f1565b604051602081830303815290604052815250866040518363ffffffff1660e01b8152600401610774929190612a90565b610180604051808303816000875af1158015610794573d6000803e3d6000fd5b505050506040513d601f19601f820116820180604052508101906107b89190612b0d565b60208082018051858301525160009081526003808352604090912001548451909101519194506001600160a01b039182169116146108095760405163708c545360e01b815260040160405180910390fd5b8160800151600360008560200151815260200190815260200160002060040160008282546108379190612769565b909155505060a082015160208085015160009081526003909152604081206005018054909190610868908490612769565b909155505060e082015160405163799f5b1b60e01b81526001600160a01b039091169063799f5b1b906108a19085908790600401612bc5565b60006040518083038186803b1580156108b957600080fd5b505afa1580156108cd573d6000803e3d6000fd5b505050506108ff826020015160008460c00151126108ec5760006116fd565b8360c001516108fa90612c96565b6116fd565b602080840151600090815260038083526040918290208251610120810184528154815260018201549481019490945260028101546001600160a01b039081169385019390935290810154909116606083015260048101546080830152600581015460a0830152600681015460c0830152600781015460e08301526008015461010082015261098c9061183d565b6109ca5760405162461bcd60e51b81526004016109c1906020808252600490820152635341464560e01b604082015260600190565b60405180910390fd5b505092915050565b6001600160401b038216600090815260036020818152604080842060028101546001600160a01b0390811680875260048086528488206001850154808a52908752978590208551610120810187528554815296870198909852938501529381015490931660608301528201546080820152600582015460a0820152600682015460c0820152600782015460e08201526008820154610100820152909190610a789061183d565b15610ab05760405162461bcd60e51b81526020600482015260086024820152674e4f54205341464560c01b60448201526064016109c1565b600080546040805160a081018252845481526001600160401b038816602082015260048601546001600160a01b0390931692639b819b3092820190610af490612c96565b81526020018660050154610b0790612c96565b81526020016040518060c00160405280600180811115610b2957610b296129db565b81523360208083019190915260038a01546001600160a01b0390811660408085019190915260028c0154909116606084015260006080840181905260a0909301929092529051610b7a9291016129f1565b604051602081830303815290604052815250866040518363ffffffff1660e01b8152600401610baa929190612a90565b610180604051808303816000875af1158015610bca573d6000803e3d6000fd5b505050506040513d601f19601f82011682018060405250810190610bee9190612b0d565b9050610bfb816032611856565b61058b856001600160401b031660006116fd565b6000818152600160205260409020546001600160a01b0316610c6157610c3481611976565b600082815260016020526040902080546001600160a01b0319166001600160a01b03929092169190911790555b50565b60008281526003602052604080822082549151632500ed8d60e21b8152600481018690529092916001600160a01b031690639403b634906024016102a060405180830381865afa158015610cbc573d6000803e3d6000fd5b505050506040513d601f19601f82011682018060405250810190610ce09190612d4c565b9050610cef82600401546119f1565b60a08201516080015151610d02906119f1565b1080610d2a5750610d1682600501546119f1565b60a080830151015151610d28906119f1565b105b610d3357600080fd5b81600601548260070154610d479190612769565b81608001511215610d91578160060154816080015113610d77576000600783015560808101516006830155610d91565b81600601548160800151610d8b9190612712565b60078301555b60a0810151608001515160001280610db1575060a0808201510151516000125b15610f0a57600080546040805160a08082018352600187015482526020820189905285015160800151516001600160a01b0390931692639b819b3092820190610df990612c96565b81526020018560a0015160a0015160000151610e1490612c96565b81526020016040518060c00160405280600180811115610e3657610e366129db565b81523360208083019190915260038a01546001600160a01b0390811660408085019190915260028c0154909116606084015260006080840181905260a0909301929092529051610e879291016129f1565b604051602081830303815290604052815250866040518363ffffffff1660e01b8152600401610eb7929190612a90565b610180604051808303816000875af1158015610ed7573d6000803e3d6000fd5b505050506040513d601f19601f82011682018060405250810190610efb9190612b0d565b9050610f08816032611856565b505b60005460808201516001600160a01b0390911690635393e780908690610f2f90612c96565b6040516001600160e01b031960e085901b16815260048101929092526024820152604401600060405180830381600087803b158015610f6d57600080fd5b505af1158015610f81573d6000803e3d6000fd5b50506000600485018190556005850181905561038a92508691506116fd565b6000848152600360208181526040808420888155600180820189905593810180546001600160a01b03808a166001600160a01b0319928316179092556002909201805488831693168317905581865260048452828620898752909352932090910154161461100d57600080fd5b6000805460405163055a6d9b60e51b81526004810187905260248101929092526001600160a01b03169063ab4db36090604401600060405180830381600087803b15801561105a57600080fd5b505af115801561106e573d6000803e3d6000fd5b5050505050505050565b61108c838360000151608001516004611a0d565b825160800152815160a001516110a59084906004611a0d565b825160a0015260408201516110bd9084906004611a0d565b60408301819052825160a08101516080909101516110db9190612769565b6110e59190612769565b8360070160008282546110f89190612769565b909155505080156111425760008360070154121561113d576000836007015461112090612c96565b9050808460060160008282546111369190612712565b9091555050505b505050565b60008360070154121561113d57600080fd5b600683015460008351600181111561116e5761116e6129db565b03611321576000836080015185600701546111899190612769565b121561119457600080fd5b600684018290556111a58282612712565b8560020160008282546111b89190612769565b909155505060808301516007850180546000906111d6908490612769565b909155505060808301516000906111ed8385612712565b6111f79190612769565b9050600081131561128e578554600090815260016020526040808220549154905163a9059cbb60e01b81526001600160a01b0391821660048201526024810184905291169063a9059cbb906044016020604051808303816000875af1158015611264573d6000803e3d6000fd5b505050506040513d601f19601f82011682018060405250810190611288919061274e565b5061131b565b600081121561131b576000546001600160a01b031663c6b6d3406001306112b485612c96565b6040516001600160e01b031960e086901b16815292151560048401526001600160a01b0390911660248301526044820152606401600060405180830381600087803b15801561130257600080fd5b505af1158015611316573d6000803e3d6000fd5b505050505b5061058b565b600183516001811115611336576113366129db565b0361058b57600054600685015460078601546001600160a01b039092169163c6b6d34091600191309161136891612769565b6040516001600160e01b031960e086901b16815292151560048401526001600160a01b0390911660248301526044820152606401600060405180830381600087803b1580156113b657600080fd5b505af11580156113ca573d6000803e3d6000fd5b5050505083600601548560020160008282546113e69190612769565b9091555050600060068501555050505050565b6040805161014081018252600060a0820181815260c0830182905260e083018290526101008301829052610120830182905282526020820181905291810182905260608082019290925260808101919091526000808460c001511361145f576000611465565b8360c001515b90506040518060a001604052808560000151815260200185606001516001600160a01b0316815260200182815260200161149e86611a5b565b815260200184905291505092915050565b6114b881611aee565b6002546001600160a01b031663137c29fe611536836040805160a0808201835260006060808401828152608080860184905290855260208086018490529486019290925284519283018552858401516001600160a01b0316838201908152868601518484015283528551015192820192909252925101519082015290565b6040805180820182526000808252602091820152815180830183523081529186015190820152846000015160200151856060015160405160200161157990612e62565b60408051601f198184030181526080830190915260478083529091906136ba60208301396040516020016115ae929190612f8d565b60408051601f1981840301815260608301909152602e80835290919061368c60208301396040516020016115e3929190612fbc565b60408051601f198184030181529082905260808901516001600160e01b031960e089901b16835261161a969594939260040161300d565b600060405180830381600087803b15801561163457600080fd5b505af115801561058b573d6000803e3d6000fd5b60028101546001600160a01b03166000908152600460209081526040808320600185015484529091528120600883015490919061168590426130b0565b90506000660b342eb7c38000826104b086600601546116a491906130c3565b6116ae91906130c3565b6116b891906130f0565b9050808460070160008282546116ce9190612712565b92505081905550808360020160008282546116e99190612769565b909155505042600890940193909355505050565b6000828152600360205260409020600481015415801561171f57506005810154155b156117e6576000808260070154131561173f575060078101805460009091555b6001828101546000908152602091909152604090205460038301546001600160a01b039182169163a9059cbb91166117778685613104565b6040516001600160e01b031960e085901b1681526001600160a01b03909216600483015260248201526044016020604051808303816000875af11580156117c2573d6000803e3d6000fd5b505050506040513d601f19601f8201168201806040525081019061058b919061274e565b811561113d576001818101546000908152602091909152604090819020546003830154915163a9059cbb60e01b81526001600160a01b0392831660048201526024810185905291169063a9059cbb90604401610347565b600080600061184b84611b3f565b501215949350505050565b60a08201516000606061186983806130c3565b901c90506000846080015113156118ba5760808401518361188c836127106130c3565b61189691906130f0565b11156118b5576040516378eff95d60e11b815260040160405180910390fd5b61190b565b60008460800151121561190b5783608001516118d590612c96565b6127106118e285846130c3565b6118ec91906130f0565b101561190b576040516378eff95d60e11b815260040160405180910390fd5b63060c991361191e836305f5e1006130c3565b61192891906130f0565b8460c001511080611958575060c08401516305f5e10061194c63060c9913856130c3565b61195691906130f0565b105b1561038a5760405163dbaffb0160e01b815260040160405180910390fd5b6000805460405163324abcfb60e21b81526004810184905282916001600160a01b03169063c92af3ec9060240161072060405180830381865afa1580156119c1573d6000803e3d6000fd5b505050506040513d601f19601f820116820180604052508101906119e5919061339b565b60600151519392505050565b600080821215611a0957611a0482612c96565b6103c2565b5090565b600080611a2484611a1f85600a613557565b611cb9565b905080841315611a5157611a388185612712565b856006016000828254611a4b9190612769565b90915550505b90505b9392505050565b6000604051602001611a6c90612e62565b60405160208183030381529060405280519060200120611a8f8360000151611d09565b83602001518460400151856060015186608001518760a001518860c001518960e001518a6101000151604051602001611ad19a99989796959493929190613566565b604051602081830303815290604052805190602001209050919050565b8051516001600160a01b03163014611b1957604051639db8d5b160e01b815260040160405180910390fd5b805160800151421115610c615760405163387b2e5560e11b815260040160405180910390fd5b600080548251604051639174e1a160e01b815260048101919091528291829182916001600160a01b031690639174e1a190602401606060405180830381865afa158015611b90573d6000803e3d6000fd5b505050506040513d601f19601f82011682018060405250810190611bb491906135d8565b60008054602088015160405163acfcd9fd60e01b81529394509192839283926001600160a01b03169163acfcd9fd91611bf39160040190815260200190565b602060405180830381865afa158015611c10573d6000803e3d6000fd5b505050506040513d601f19601f82011682018060405250810190611c349190613614565b9050611c4a8860e0015185836305fd7d44611d73565b91985090965090935091506000611c79620f4240611c6a856103e86130c3565b611c7491906130f0565b611df1565b905080611c868589612712565b611c909190612769565b9750858015611ca15750620f424088125b15611cad57620f424097505b50505050509193909250565b600080831315611ce15781611cd084600185611e5b565b611cda91906130c3565b90506103c2565b81611cf6611cee85612c96565b600185611e79565b611d0091906130c3565b611cda90612c96565b60006040518060800160405280604781526020016136ba60479139805160209182012083518483015160608601516080870151604051611ad196019485526001600160a01b0393841660208601529190921660408401526060830191909152608082015260a00190565b600080600080611d84868887611e9f565b611d8e9085612769565b9350611d9a8688611f9e565b611da49084612769565b9250611db08688612028565b611dba9083613104565b91508080611dcc5750611dcc8761206d565b9050611dd88885612769565b9350611de48884612769565b9250945094509450949050565b60006001600160ff1b03821115611a095760405162461bcd60e51b815260206004820152602860248201527f53616665436173743a2076616c756520646f65736e27742066697420696e2061604482015267371034b73a191a9b60c11b60648201526084016109c1565b6000826000190484118302158202611e7257600080fd5b5091020490565b6000826000190484118302158202611e9057600080fd5b50910281810615159190040190565b6001600160ff1b0360006305f5e100611eb884876130c3565b611ec291906130f0565b9050600083611ed56305f5e100886130c3565b611edf91906130f0565b90506000611eed8387611f9e565b905083811215611efb578093505b506000611f088287611f9e565b905083811215611f16578093505b5060008560200151128015611f2f575060008560400151135b15611f955760008560400151600160601b8760200151611f4e90612c96565b611f5891906130c3565b611f6291906130f0565b90508082108015611f7257508281105b15611f93576000611f838288611f9e565b905084811215611f91578094505b505b505b50509392505050565b6000806060611fad85806130c3565b8451911c9150600160601b611fc186611df1565b8560200151611fd0919061362d565b611fdb90600261362d565b611fe5919061365d565b600160601b611ff384611df1565b8660400151612002919061362d565b61200c919061365d565b6120169190612769565b6120209190612769565b949350505050565b6020810151600090818113156120425760009150506103c2565b60608461204e83612c96565b61205891906130c3565b6120639060026130c3565b901c949350505050565b6000816020015160001415806103c257505060400151151590565b6040518060e001604052806120cc6040518060c001604052806000815260200160008152602001600081526020016000815260200160008152602001600081525090565b81526020016000815260200160008152602001600081526020016000815260200160008152602001600081525090565b6000806040838503121561210f57600080fd5b50508035926020909101359150565b60006020828403121561213057600080fd5b5035919050565b6001600160a01b0381168114610c6157600080fd5b6000806040838503121561215f57600080fd5b823561216a81612137565b946020939093013593505050565b634e487b7160e01b600052604160045260246000fd5b60405160e081016001600160401b03811182821017156121b0576121b0612178565b60405290565b60405160c081016001600160401b03811182821017156121b0576121b0612178565b60405160a081016001600160401b03811182821017156121b0576121b0612178565b604080519081016001600160401b03811182821017156121b0576121b0612178565b60405161012081016001600160401b03811182821017156121b0576121b0612178565b60405161010081016001600160401b03811182821017156121b0576121b0612178565b604051606081016001600160401b03811182821017156121b0576121b0612178565b60405161022081016001600160401b03811182821017156121b0576121b0612178565b60405161016081016001600160401b03811182821017156121b0576121b0612178565b604051601f8201601f191681016001600160401b03811182821017156122f2576122f2612178565b604052919050565b60006001600160401b0382111561231357612313612178565b50601f01601f191660200190565b600082601f83011261233257600080fd5b8135612345612340826122fa565b6122ca565b81815284602083860101111561235a57600080fd5b816020850160208301376000918101602001919091529392505050565b600081830361018081121561238b57600080fd5b61239361218e565b915060c08112156123a357600080fd5b506123ac6121b6565b823581526020830135602082015260408301356040820152606083013560608201526080830135608082015260a083013560a08201528082525060c0820135602082015260e082013560408201526101008201356060820152610120820135608082015261014082013560a082015261016082013560c082015292915050565b6000806101a0838503121561244057600080fd5b82356001600160401b038082111561245757600080fd5b9084019060a0828703121561246b57600080fd5b6124736121d8565b823581526020830135602082015260408301356040820152606083013560608201526080830135828111156124a757600080fd5b6124b388828601612321565b6080830152508094505050506124cc8460208501612377565b90509250929050565b6000604082840312156124e757600080fd5b6124ef6121fa565b905081356124fc81612137565b815260208201356001600160401b0381111561251757600080fd5b61252384828501612321565b60208301525092915050565b6000806040838503121561254257600080fd5b82356001600160401b038082111561255957600080fd5b908401906040828703121561256d57600080fd5b6125756121fa565b82358281111561258457600080fd5b61259088828601612321565b8252506020830135828111156125a557600080fd5b6125b188828601612321565b6020830152508094505060208501359150808211156125cf57600080fd5b506125dc858286016124d5565b9150509250929050565b8051805183526020810151602084015260408101516040840152606081015160608401526080810151608084015260a081015160a084015250602081015160c0830152604081015160e08301526060810151610100830152608081015161012083015260a081015161014083015260c08101516101608301525050565b61018081016103c282846125e6565b6001600160401b0381168114610c6157600080fd5b6000806040838503121561269a57600080fd5b82356126a581612672565b915060208301356001600160401b038111156126c057600080fd5b6125dc858286016124d5565b600080604083850312156126df57600080fd5b8235915060208301356001600160401b038111156126c057600080fd5b634e487b7160e01b600052601160045260246000fd5b8181036000831280158383131683831282161715612732576127326126fc565b5092915050565b8051801515811461274957600080fd5b919050565b60006020828403121561276057600080fd5b611a5482612739565b80820182811260008312801582168215821617156109ca576109ca6126fc565b805161274981612137565b600060c082840312156127a657600080fd5b6127ae6121b6565b8251600281106127bd57600080fd5b815260208301516127cd81612137565b602082015260408301516127e081612137565b604082015260608301516127f381612137565b60608201526080838101519082015261280e60a08401612739565b60a08201529392505050565b600060a0828403121561282c57600080fd5b6128346121d8565b9050815161284181612137565b8152602082015161285181612137565b6020820152604082015161286481612137565b80604083015250606082015160608201526080820151608082015292915050565b805161274981612672565b60005b838110156128ab578181015183820152602001612893565b50506000910152565b600082601f8301126128c557600080fd5b81516128d3612340826122fa565b8181528460208386010111156128e857600080fd5b612020826020830160208701612890565b60006020828403121561290b57600080fd5b81516001600160401b038082111561292257600080fd5b908301906101a0828603121561293757600080fd5b61293f61221c565b612949868461281a565b815260a0830151602082015261296160c08401612885565b604082015261297260e08401612789565b606082015261010080840151608083015261012084015160a083015261014084015160c08301526129a66101608501612789565b60e0830152610180840151838111156129be57600080fd5b6129ca888287016128b4565b918301919091525095945050505050565b634e487b7160e01b600052602160045260246000fd5b815160c082019060028110612a1657634e487b7160e01b600052602160045260246000fd5b80835250602083015160018060a01b03808216602085015280604086015116604085015280606086015116606085015250506080830151608083015260a0830151151560a083015292915050565b60008151808452612a7c816020860160208601612890565b601f01601f19169290920160200192915050565b60408152825160408201526020830151606082015260408301516080820152606083015160a08201526000608084015160a060c0840152612ad460e0840182612a64565b9050828103602084015260018060a01b038451168152602084015160406020830152612b036040830182612a64565b9695505050505050565b6000818303610180811215612b2157600080fd5b612b2961218e565b60c0821215612b3757600080fd5b612b3f6121b6565b9150835182526020840151602083015260408401516040830152606084015160608301526080840151608083015260a084015160a083015281815260c0840151602082015260e084015160408201526101008401516060820152610120840151608082015261014084015160a082015261016084015160c0820152809250505092915050565b6101a0808252835180516001600160a01b039081168484015260208083015182166101c086015260408084015183166101e0870152606080850151610200880152608094850151610220880152918801516102408701528701516001600160401b03166102608601528601518116610280850152908501516102a084015260a08501516102c084015260c08501516102e084015260e085015116610300830152610100840151610320830182905260009190612c85610340850182612a64565b92505050611a5460208301846125e6565b6000600160ff1b8201612cab57612cab6126fc565b5060000390565b8051600281900b811461274957600080fd5b600060408284031215612cd657600080fd5b612cde6121fa565b9050815181526020820151602082015292915050565b600060c08284031215612d0657600080fd5b612d0e6121b6565b9050815181526020820151602082015260408201516040820152606082015160608201526080820151608082015260a082015160a082015292915050565b60008183036102a0811215612d6057600080fd5b612d686121b6565b835181526020840151612d7a81612137565b60208201526040840151612d8d81612137565b60408201526060840151612da081612137565b606082015260808481015190820152610200609f1983011215612dc257600080fd5b612dca61223f565b915060a08401518252612ddf60c08501612cb2565b6020830152612df060e08501612cb2565b6040830152612e026101008501612885565b6060830152612e15856101208601612cc4565b6080830152612e28856101608601612cf4565b60a0830152612e3b856102208601612cc4565b60c0830152612e4e856102608601612cc4565b60e083015260a08101919091529392505050565b6a08ec2dadac29ee4c8cae4560ab1b81526e13dc99195c925b999bc81a5b999bcb608a1b600b820152721d5a5b9d0c8d4d881c1bdcda5d1a5bdb92590b606a1b601a8201526d1d5a5b9d0d8d081c185a5c92590b60921b602d8201527f6164647265737320656e747279546f6b656e416464726573732c000000000000603b820152721a5b9d0c8d4d881d1c985919505b5bdd5b9d0b606a1b60558201527f696e74323536207472616465416d6f756e74537172742c0000000000000000006068820152731a5b9d0c8d4d881b585c99da5b905b5bdd5b9d0b60621b607f8201527f616464726573732076616c696461746f7241646472657373000000000000000060938201527462797465732076616c69646174696f6e446174612960581b60ab82015260c00190565b60008351612f9f818460208801612890565b835190830190612fb3818360208801612890565b01949350505050565b7247616d6d614f72646572207769746e6573732960681b815260008351612fea816013850160208801612890565b835190830190613001816013840160208801612890565b01601301949350505050565b6000610140613030838a5180516001600160a01b03168252602090810151910152565b6020890151604084015260408901516060840152613064608084018980516001600160a01b03168252602090810151910152565b6001600160a01b03871660c084015260e08301869052610100830181905261308e81840186612a64565b90508281036101208401526130a38185612a64565b9998505050505050505050565b818103818111156103c2576103c26126fc565b80820281158282048414176103c2576103c26126fc565b634e487b7160e01b600052601260045260246000fd5b6000826130ff576130ff6130da565b500490565b808201808211156103c2576103c26126fc565b60006080828403121561312957600080fd5b604051608081018181106001600160401b038211171561314b5761314b612178565b8060405250809150825181526020830151602082015260408301516040820152606083015160608201525092915050565b60008183036101c081121561319057600080fd5b6131986121b6565b915082516131a581612137565b825260208301516131b581612137565b602083015260c0603f19820112156131cc57600080fd5b506131d56121b6565b60408301518152606083015160208201526080830151604082015260a0830151606082015260c0830151608082015260e083015160a082015280604083015250613223836101008401613117565b606082015261018082015160808201526101a082015160a082015292915050565b60006060828403121561325657600080fd5b61325e612262565b90508151815261327060208301612cb2565b602082015261328160408301612cb2565b604082015292915050565b6000610260828403121561329f57600080fd5b6132a7612284565b90506132b282612789565b81526132c060208301612cb2565b60208201526132d160408301612cb2565b60408201526132e260608301612885565b60608201526080828101519082015260a0808301519082015260c0808301519082015260e08083015190820152610100808301519082015261012080830151908201526101408083015190820152610160808301519082015261018080830151908201526101a061335584828501612cc4565b908201526101e061336884848301612cc4565b6101c08301526102208301519082015261024090910151610200820152919050565b805160ff8116811461274957600080fd5b600061072082840312156133ae57600080fd5b6133b66122a7565b825181526133c660208401612789565b60208201526133d760408401612789565b60408201526133e9846060850161317c565b60608201526133fc84610220850161317c565b608082015261340f846103e08501613244565b60a082015261342284610440850161328c565b60c08201526134346106a08401612789565b60e08201526134466106c08401612739565b6101008201526134596106e0840161338a565b610120820152610700929092015161014083015250919050565b600181815b808511156134ae578160001904821115613494576134946126fc565b808516156134a157918102915b93841c9390800290613478565b509250929050565b6000826134c5575060016103c2565b816134d2575060006103c2565b81600181146134e857600281146134f25761350e565b60019150506103c2565b60ff841115613503576135036126fc565b50506001821b6103c2565b5060208310610133831016604e8410600b8410161715613531575081810a6103c2565b61353b8383613473565b806000190482111561354f5761354f6126fc565b029392505050565b6000611a5460ff8416836134b6565b60006101408c83528b60208401528a60408401526001600160401b038a16606084015260018060a01b03808a1660808501528860a08501528760c08501528660e085015280861661010085015250806101208401526135c781840185612a64565b9d9c50505050505050505050505050565b6000606082840312156135ea57600080fd5b6135f2612262565b8251815260208301516020820152604083015160408201528091505092915050565b60006020828403121561362657600080fd5b5051919050565b80820260008212600160ff1b84141615613649576136496126fc565b81810583148215176103c2576103c26126fc565b60008261366c5761366c6130da565b600160ff1b821460001984141615613686576136866126fc565b50059056fe546f6b656e5065726d697373696f6e73286164647265737320746f6b656e2c75696e7432353620616d6f756e74294f72646572496e666f2861646472657373206d61726b65742c61646472657373207472616465722c75696e74323536206e6f6e63652c75696e7432353620646561646c696e6529a26469706673582212201d0abe37d78b45d0577a8991285dbc2207ce4d9574247ae2a09af71ad8043d9b64736f6c63430008130033",
    "linkReferences": {}
  },
  "methodIdentifiers": {
    "BORROW_FEE_RATE()": "6eec1330",
    "addFillerPool(uint256)": "47421334",
    "confirmLiquidation(uint256,(address,bytes))": "e350deb0",
    "depositToInsurancePool(uint256,uint256)": "734ee06f",
    "execLiquidationCall(uint64,(address,bytes))": "c2a063e9",
    "executeOrder((bytes,bytes),(address,bytes))": "a966d863",
    "insurancePools(address,uint256)": "4b07546f",
    "predyTradeAfterCallback((uint256,uint256,int256,int256,bytes),((int256,int256,int256,int256,int256,int256),uint256,int256,int256,int256,uint256,uint256))": "944b560b",
    "updateQuoteTokenMap(uint256)": "e1c951ca",
    "userPositions(uint256)": "1e7f1370",
    "withdrawFromInsurancePool(uint256,uint256)": "0511b7a5"
  },
  "id": 56
}