{
  "abi": [
    {
      "inputs": [
        {
          "internalType": "contract IPredyPool",
          "name": "_predyPool",
          "type": "address"
        },
        {
          "internalType": "address",
          "name": "permit2Address",
          "type": "address"
        }
      ],
      "stateMutability": "nonpayable",
      "type": "constructor"
    },
    {
      "inputs": [],
      "name": "CallerIsNotFiller",
      "type": "error"
    },
    {
      "inputs": [],
      "name": "CallerIsNotPredyPool",
      "type": "error"
    },
    {
      "inputs": [],
      "name": "DeadlinePassed",
      "type": "error"
    },
    {
      "inputs": [],
      "name": "FillerPoolIsNotSafe",
      "type": "error"
    },
    {
      "inputs": [],
      "name": "InvalidMarket",
      "type": "error"
    },
    {
      "inputs": [],
      "name": "MarginIsNegative",
      "type": "error"
    },
    {
      "inputs": [],
      "name": "SignerIsNotVaultOwner",
      "type": "error"
    },
    {
      "inputs": [],
      "name": "SlippageTooLarge",
      "type": "error"
    },
    {
      "inputs": [],
      "name": "UserMarginIsNegative",
      "type": "error"
    },
    {
      "inputs": [],
      "name": "UserPositionIsNotDanger",
      "type": "error"
    },
    {
      "inputs": [],
      "name": "UserPositionIsNotSafe",
      "type": "error"
    },
    {
      "anonymous": false,
      "inputs": [
        {
          "indexed": false,
          "internalType": "uint256",
          "name": "positionId",
          "type": "uint256"
        },
        {
          "indexed": false,
          "internalType": "int256",
          "name": "fundingFee",
          "type": "int256"
        },
        {
          "indexed": false,
          "internalType": "int256",
          "name": "fillerFundingFee",
          "type": "int256"
        }
      ],
      "name": "FundingPayment",
      "type": "event"
    },
    {
      "anonymous": false,
      "inputs": [
        {
          "indexed": false,
          "internalType": "uint256",
          "name": "positionId",
          "type": "uint256"
        },
        {
          "indexed": false,
          "internalType": "int256",
          "name": "tradeAmount",
          "type": "int256"
        },
        {
          "components": [
            {
              "internalType": "int256",
              "name": "entryUpdate",
              "type": "int256"
            },
            {
              "internalType": "int256",
              "name": "payoff",
              "type": "int256"
            }
          ],
          "indexed": false,
          "internalType": "struct PerpMarket.PerpTradeResult",
          "name": "tradeResult",
          "type": "tuple"
        }
      ],
      "name": "PositionUpdated",
      "type": "event"
    },
    {
      "inputs": [
        {
          "internalType": "uint256",
          "name": "pairId",
          "type": "uint256"
        }
      ],
      "name": "addFillerPool",
      "outputs": [
        {
          "internalType": "uint256",
          "name": "",
          "type": "uint256"
        }
      ],
      "stateMutability": "nonpayable",
      "type": "function"
    },
    {
      "inputs": [
        {
          "internalType": "uint256",
          "name": "positionId",
          "type": "uint256"
        }
      ],
      "name": "close",
      "outputs": [
        {
          "components": [
            {
              "internalType": "int256",
              "name": "entryUpdate",
              "type": "int256"
            },
            {
              "internalType": "int256",
              "name": "payoff",
              "type": "int256"
            }
          ],
          "internalType": "struct PerpMarket.PerpTradeResult",
          "name": "perpTradeResult",
          "type": "tuple"
        }
      ],
      "stateMutability": "nonpayable",
      "type": "function"
    },
    {
      "inputs": [
        {
          "internalType": "address",
          "name": "filler",
          "type": "address"
        },
        {
          "internalType": "uint256",
          "name": "pairId",
          "type": "uint256"
        }
      ],
      "name": "confirmLiquidation",
      "outputs": [],
      "stateMutability": "nonpayable",
      "type": "function"
    },
    {
      "inputs": [
        {
          "internalType": "uint256",
          "name": "marginAmount",
          "type": "uint256"
        }
      ],
      "name": "depositMargin",
      "outputs": [],
      "stateMutability": "nonpayable",
      "type": "function"
    },
    {
      "inputs": [
        {
          "internalType": "uint256",
          "name": "pairId",
          "type": "uint256"
        },
        {
          "internalType": "uint256",
          "name": "depositAmount",
          "type": "uint256"
        }
      ],
      "name": "depositToInsurancePool",
      "outputs": [],
      "stateMutability": "nonpayable",
      "type": "function"
    },
    {
      "inputs": [
        {
          "internalType": "uint256",
          "name": "positionId",
          "type": "uint256"
        },
        {
          "components": [
            {
              "internalType": "address",
              "name": "settlementContractAddress",
              "type": "address"
            },
            {
              "internalType": "bytes",
              "name": "encodedData",
              "type": "bytes"
            }
          ],
          "internalType": "struct ISettlement.SettlementData",
          "name": "settlementData",
          "type": "tuple"
        }
      ],
      "name": "execLiquidationCall",
      "outputs": [],
      "stateMutability": "nonpayable",
      "type": "function"
    },
    {
      "inputs": [
        {
          "components": [
            {
              "internalType": "bytes",
              "name": "order",
              "type": "bytes"
            },
            {
              "internalType": "bytes",
              "name": "sig",
              "type": "bytes"
            }
          ],
          "internalType": "struct IFillerMarket.SignedOrder",
          "name": "order",
          "type": "tuple"
        },
        {
          "components": [
            {
              "internalType": "address",
              "name": "settlementContractAddress",
              "type": "address"
            },
            {
              "internalType": "bytes",
              "name": "encodedData",
              "type": "bytes"
            }
          ],
          "internalType": "struct ISettlement.SettlementData",
          "name": "settlementData",
          "type": "tuple"
        }
      ],
      "name": "executeOrder",
      "outputs": [
        {
          "components": [
            {
              "internalType": "int256",
              "name": "entryUpdate",
              "type": "int256"
            },
            {
              "internalType": "int256",
              "name": "payoff",
              "type": "int256"
            }
          ],
          "internalType": "struct PerpMarket.PerpTradeResult",
          "name": "perpTradeResult",
          "type": "tuple"
        }
      ],
      "stateMutability": "nonpayable",
      "type": "function"
    },
    {
      "inputs": [
        {
          "internalType": "address",
          "name": "filler",
          "type": "address"
        },
        {
          "internalType": "uint256",
          "name": "pairId",
          "type": "uint256"
        }
      ],
      "name": "insurancePools",
      "outputs": [
        {
          "internalType": "uint256",
          "name": "vaultId",
          "type": "uint256"
        },
        {
          "internalType": "uint256",
          "name": "pairId",
          "type": "uint256"
        },
        {
          "internalType": "address",
          "name": "fillerAddress",
          "type": "address"
        },
        {
          "internalType": "int256",
          "name": "marginAmount",
          "type": "int256"
        },
        {
          "internalType": "int256",
          "name": "fillercumulativeFundingRates",
          "type": "int256"
        },
        {
          "internalType": "int256",
          "name": "fundingRateGrobalGrowth",
          "type": "int256"
        },
        {
          "internalType": "uint256",
          "name": "lastFundingRateCalculationTime",
          "type": "uint256"
        },
        {
          "components": [
            {
              "internalType": "uint256",
              "name": "totalLongAmount",
              "type": "uint256"
            },
            {
              "internalType": "uint256",
              "name": "totalShortAmount",
              "type": "uint256"
            }
          ],
          "internalType": "struct PerpMarket.TotalPosition",
          "name": "totalPosition",
          "type": "tuple"
        },
        {
          "internalType": "bool",
          "name": "isLiquidated",
          "type": "bool"
        },
        {
          "internalType": "uint256",
          "name": "liquidationPrice",
          "type": "uint256"
        }
      ],
      "stateMutability": "view",
      "type": "function"
    },
    {
      "inputs": [],
      "name": "positionCount",
      "outputs": [
        {
          "internalType": "uint256",
          "name": "",
          "type": "uint256"
        }
      ],
      "stateMutability": "view",
      "type": "function"
    },
    {
      "inputs": [
        {
          "components": [
            {
              "internalType": "uint256",
              "name": "pairId",
              "type": "uint256"
            },
            {
              "internalType": "uint256",
              "name": "vaultId",
              "type": "uint256"
            },
            {
              "internalType": "int256",
              "name": "tradeAmount",
              "type": "int256"
            },
            {
              "internalType": "int256",
              "name": "tradeAmountSqrt",
              "type": "int256"
            },
            {
              "internalType": "bytes",
              "name": "extraData",
              "type": "bytes"
            }
          ],
          "internalType": "struct IPredyPool.TradeParams",
          "name": "tradeParams",
          "type": "tuple"
        },
        {
          "components": [
            {
              "components": [
                {
                  "internalType": "int256",
                  "name": "perpEntryUpdate",
                  "type": "int256"
                },
                {
                  "internalType": "int256",
                  "name": "sqrtEntryUpdate",
                  "type": "int256"
                },
                {
                  "internalType": "int256",
                  "name": "sqrtRebalanceEntryUpdateUnderlying",
                  "type": "int256"
                },
                {
                  "internalType": "int256",
                  "name": "sqrtRebalanceEntryUpdateStable",
                  "type": "int256"
                },
                {
                  "internalType": "int256",
                  "name": "perpPayoff",
                  "type": "int256"
                },
                {
                  "internalType": "int256",
                  "name": "sqrtPayoff",
                  "type": "int256"
                }
              ],
              "internalType": "struct IPredyPool.Payoff",
              "name": "payoff",
              "type": "tuple"
            },
            {
              "internalType": "uint256",
              "name": "vaultId",
              "type": "uint256"
            },
            {
              "internalType": "int256",
              "name": "fee",
              "type": "int256"
            },
            {
              "internalType": "int256",
              "name": "minMargin",
              "type": "int256"
            },
            {
              "internalType": "int256",
              "name": "averagePrice",
              "type": "int256"
            },
            {
              "internalType": "uint256",
              "name": "sqrtTwap",
              "type": "uint256"
            },
            {
              "internalType": "uint256",
              "name": "sqrtPrice",
              "type": "uint256"
            }
          ],
          "internalType": "struct IPredyPool.TradeResult",
          "name": "tradeResult",
          "type": "tuple"
        }
      ],
      "name": "predyTradeAfterCallback",
      "outputs": [],
      "stateMutability": "nonpayable",
      "type": "function"
    },
    {
      "inputs": [
        {
          "components": [
            {
              "components": [
                {
                  "internalType": "address",
                  "name": "market",
                  "type": "address"
                },
                {
                  "internalType": "address",
                  "name": "trader",
                  "type": "address"
                },
                {
                  "internalType": "address",
                  "name": "filler",
                  "type": "address"
                },
                {
                  "internalType": "uint256",
                  "name": "nonce",
                  "type": "uint256"
                },
                {
                  "internalType": "uint256",
                  "name": "deadline",
                  "type": "uint256"
                }
              ],
              "internalType": "struct OrderInfo",
              "name": "info",
              "type": "tuple"
            },
            {
              "internalType": "uint256",
              "name": "positionId",
              "type": "uint256"
            },
            {
              "internalType": "uint64",
              "name": "pairId",
              "type": "uint64"
            },
            {
              "internalType": "address",
              "name": "entryTokenAddress",
              "type": "address"
            },
            {
              "internalType": "int256",
              "name": "tradeAmount",
              "type": "int256"
            },
            {
              "internalType": "int256",
              "name": "marginAmount",
              "type": "int256"
            },
            {
              "internalType": "address",
              "name": "validatorAddress",
              "type": "address"
            },
            {
              "internalType": "bytes",
              "name": "validationData",
              "type": "bytes"
            }
          ],
          "internalType": "struct PerpOrder",
          "name": "perpOrder",
          "type": "tuple"
        },
        {
          "components": [
            {
              "internalType": "address",
              "name": "settlementContractAddress",
              "type": "address"
            },
            {
              "internalType": "bytes",
              "name": "encodedData",
              "type": "bytes"
            }
          ],
          "internalType": "struct ISettlement.SettlementData",
          "name": "settlementData",
          "type": "tuple"
        },
        {
          "internalType": "contract PredyPoolQuoter",
          "name": "quoter",
          "type": "address"
        }
      ],
      "name": "quoteExecuteOrder",
      "outputs": [],
      "stateMutability": "nonpayable",
      "type": "function"
    },
    {
      "inputs": [
        {
          "internalType": "uint256",
          "name": "positionId",
          "type": "uint256"
        }
      ],
      "name": "quoteUserPosition",
      "outputs": [],
      "stateMutability": "nonpayable",
      "type": "function"
    },
    {
      "inputs": [
        {
          "internalType": "uint256",
          "name": "pairId",
          "type": "uint256"
        }
      ],
      "name": "updateQuoteTokenMap",
      "outputs": [],
      "stateMutability": "nonpayable",
      "type": "function"
    },
    {
      "inputs": [
        {
          "internalType": "uint256",
          "name": "vaultId",
          "type": "uint256"
        }
      ],
      "name": "userPositions",
      "outputs": [
        {
          "internalType": "uint256",
          "name": "id",
          "type": "uint256"
        },
        {
          "internalType": "uint256",
          "name": "pairId",
          "type": "uint256"
        },
        {
          "internalType": "address",
          "name": "filler",
          "type": "address"
        },
        {
          "internalType": "address",
          "name": "owner",
          "type": "address"
        },
        {
          "internalType": "int256",
          "name": "positionAmount",
          "type": "int256"
        },
        {
          "internalType": "int256",
          "name": "entryValue",
          "type": "int256"
        },
        {
          "internalType": "int256",
          "name": "marginAmount",
          "type": "int256"
        },
        {
          "internalType": "int256",
          "name": "cumulativeFundingRates",
          "type": "int256"
        }
      ],
      "stateMutability": "view",
      "type": "function"
    },
    {
      "inputs": [
        {
          "internalType": "uint256",
          "name": "pairId",
          "type": "uint256"
        },
        {
          "internalType": "uint256",
          "name": "withdrawAmount",
          "type": "uint256"
        }
      ],
      "name": "withdrawFromInsurancePool",
      "outputs": [],
      "stateMutability": "nonpayable",
      "type": "function"
    },
    {
      "inputs": [
        {
          "internalType": "uint256",
          "name": "marginAmount",
          "type": "uint256"
        }
      ],
      "name": "withdrawMargin",
      "outputs": [],
      "stateMutability": "nonpayable",
      "type": "function"
    }
  ],
  "bytecode": {
    "object": "0x60806040523480156200001157600080fd5b50604051620043bc380380620043bc833981016040819052620000349162000084565b600080546001600160a01b039384166001600160a01b031991821617909155600280549290931691161790556001600355620000c3565b6001600160a01b03811681146200008157600080fd5b50565b600080604083850312156200009857600080fd5b8251620000a5816200006b565b6020840151909250620000b8816200006b565b809150509250929050565b6142e980620000d36000396000f3fe608060405234801561001057600080fd5b50600436106101005760003560e01c80637521ec9211610097578063a966d86311610066578063a966d86314610370578063e1c951ca14610383578063e7702d0514610396578063fa06bb6d1461039f57600080fd5b80637521ec9214610324578063798c80d51461033757806386f9f1141461034a578063944b560b1461035d57600080fd5b80631e7f1370116100d35780631e7f13701461015457806347421334146101fb5780634b07546f1461021c578063734ee06f1461031157600080fd5b80630511b7a5146101055780630aebeb4e1461011a5780630cea75341461014357806319bd177614610143575b600080fd5b610118610113366004612dcf565b6103b2565b005b61012d610128366004612df1565b6105a3565b60405161013a9190612e0a565b60405180910390f35b610118610151366004612df1565b50565b6101b4610162366004612df1565b600460208190526000918252604090912080546001820154600283015460038401549484015460058501546006860154600790960154949693956001600160a01b039384169594909316939192909188565b6040805198895260208901979097526001600160a01b0395861696880196909652939092166060860152608085015260a084015260c083015260e08201526101000161013a565b61020e610209366004612df1565b6106eb565b60405190815260200161013a565b6102a861022a366004612e46565b6005602081815260009384526040808520825292845292829020805460018201546002830154600384015460048501549585015460068601548851808a01909952600787015489526008870154998901999099526009860154600a90960154949893976001600160a01b0390931696919591949093929160ff16908a565b604080519a8b526020808c019a909a526001600160a01b03909816978a01979097526060890195909552608088019390935260a087019190915260c0860152805160e086015292909201516101008401529015156101208301526101408201526101600161013a565b61011861031f366004612dcf565b6106fd565b610118610332366004612df1565b61090b565b610118610345366004613133565b6109bc565b61011861035836600461323c565b610b54565b61011861036b366004613337565b610da4565b61012d61037e3660046133e0565b610dcf565b610118610391366004612df1565b61143d565b61020e60035481565b6101186103ad366004612e46565b611491565b33600081815260056020908152604080832086845290915290206002015483916001600160a01b03909116146103fb57604051638173c76360e01b815260040160405180910390fd5b6000821161040857600080fd5b60008054338252600560209081526040808420878552909152909120546001600160a01b0390911690635393e78090610440856134a3565b6040516001600160e01b031960e085901b16815260048101929092526024820152604401600060405180830381600087803b15801561047e57600080fd5b505af1158015610492573d6000803e3d6000fd5b5050336000908152600560209081526040808320888452909152812060030180548694509092506104c49084906134bf565b90915550503360009081526005602081815260408084208785528252928390208351610140810185528154815260018201548184015260028201546001600160a01b03168186015260038201546060820152600482015460808201529281015460a0840152600681015460c084015283518085019094526007810154845260088101549184019190915260e0820192909252600982015460ff161515610100820152600a9091015461012082015261057b906115d2565b60008381526001602052604090205461059e906001600160a01b03163384611717565b505050565b6040805180820190915260008082526020820152600082815260046020908152604080832060028101546001600160a01b031684526005835281842060018201548552909252909120600981015460ff166106455760405162461bcd60e51b815260206004820152601860248201527f66696c6c6572206973206e6f74206c697175696461746564000000000000000060448201526064015b60405180910390fd5b600a810154600090600160601b9061065d90806134e6565b6106679190613513565b905060008360040154610679906134a3565b90506000600160601b8361068c846134a3565b6106969190613527565b6106a09190613557565b90506106ae84888484611817565b95506106bb8760006118e5565b60078401541580156106cf57506008840154155b156106e15760098401805460ff191690555b5050505050919050565b60006106f78233611a0e565b92915050565b33600081815260056020908152604080832086845290915290206002015483916001600160a01b039091161461074657604051638173c76360e01b815260040160405180910390fd5b6000821161075357600080fd5b600083815260016020526040908190205490516323b872dd60e01b8152336004820152306024820152604481018490526001600160a01b039091169081906323b872dd906064016020604051808303816000875af11580156107b9573d6000803e3d6000fd5b505050506040513d601f19601f820116820180604052508101906107dd9190613595565b503360009081526005602090815260408083208784529091528120600301805485929061080b9084906135b0565b909155505060005460405163095ea7b360e01b81526001600160a01b039182166004820152602481018590529082169063095ea7b3906044016020604051808303816000875af1158015610863573d6000803e3d6000fd5b505050506040513d601f19601f820116820180604052508101906108879190613595565b50600080543382526005602090815260408084208885529091529182902054915162a727cf60e71b81526004810192909252602482018590526001600160a01b031690635393e78090604401600060405180830381600087803b1580156108ed57600080fd5b505af1158015610901573d6000803e3d6000fd5b5050505050505050565b600081815260046020908152604080832060028101546001600160a01b03168452600583528184206001820154855290925290912061094a9082611af2565b6040805161010081018252825481526001830154602082015260028301546001600160a01b03908116928201929092526003830154909116606082015260048201546080820152600582015460a0820152600682015460c0820152600782015460e08201526109b890611cf3565b5050565b604080518082019091526000808252602082015283602001516000036109e55760035460208501525b602080850180516000908152600480845260408083208151610100810183528154815260018201548188015260028201546001600160a01b03908116828501526003830154811660608084019190915283860154608080850191909152600585015460a080860191909152600686015460c086015260079095015460e085015285519485018652858e01516001600160401b031685529751848a0152878d015184860152830186905283519788018452858852958201969096529051630a20b62d60e21b81529293871692632882d8b492610ac392918a9101613620565b610180604051808303816000875af1158015610ae3573d6000803e3d6000fd5b505050506040513d601f19601f82011682018060405250810190610b07919061369d565b9050610b3c82608001518360a001518860800151846000015160800151856000015160000151610b3791906135b0565b611d81565b60208501528352610b4c83611e54565b505050505050565b600082815260046020908152604080832060028101546001600160a01b031684526005835281842060018201548552909252909120610b938183611af2565b60008054600183015460405163acfcd9fd60e01b81526001600160a01b039092169163acfcd9fd91610bcb9160040190815260200190565b602060405180830381865afa158015610be8573d6000803e3d6000fd5b505050506040513d601f19601f82011682018060405250810190610c0c9190613755565b6040805161010081018252855481526001860154602082015260028601546001600160a01b03908116928201929092526003860154909116606082015260048501546080820152600585015460a0820152600685015460c0820152600785015460e0820152909150610c7e9082611e67565b15610c9c5760405163456f3d3360e11b815260040160405180910390fd5b60008360040154610cac906134a3565b90506000610cbe84888460008a611efb565b509050600082600160601b610ce584602001518560000151610ce091906135b0565b612039565b610cef91906134e6565b610cf99190613557565b90506127426000821315610d43578181610d15876127106134e6565b610d1f9190613513565b1115610d3e576040516378eff95d60e11b815260040160405180910390fd5b610d8b565b6000821215610d8b57610d55826134a3565b612710610d6283886134e6565b610d6c9190613513565b1015610d8b576040516378eff95d60e11b815260040160405180910390fd5b5050610d9b878560010154612055565b50505050505050565b6000546001600160a01b031633146109b857604051637542ed5d60e11b815260040160405180910390fd5b604080518082019091526000808252602082015260008360000151806020019051810190610dfd9190613834565b90506000610e0f828660200151612311565b82516040908101516001600160a01b0390811660009081526005602090815283822084880180516001600160401b03908116855291835285842090519091168352600190915292902054929350909116610e6857600080fd5b6040808401516001600160401b031660009081526001602052205460608401516001600160a01b03908116911614610e9f57600080fd5b610ea8826123c7565b60008360a001511315610fa257606083015160005460a085015160405163095ea7b360e01b81526001600160a01b039283166004820152602481019190915291169063095ea7b3906044016020604051808303816000875af1158015610f12573d6000803e3d6000fd5b505050506040513d601f19601f82011682018060405250810190610f369190613595565b50600054815460a085015160405162a727cf60e71b8152600481019290925260248201526001600160a01b0390911690635393e78090604401600060405180830381600087803b158015610f8957600080fd5b505af1158015610f9d573d6000803e3d6000fd5b505050505b82602001516000036110465760038054602085810182815260008381526004835260408082209490945587519092015181518352838320850180546001600160a01b03199081166001600160a01b039384161790915584890151835185528585206001600160401b039091166001919091015588518501519251845293832060020180549094169116179091558154919061103c83613908565b9190505550611105565b602080840151600090815260048083526040918290208251610100810184528154815260018201548186015260028201546001600160a01b03908116948201949094526003820154841660608201819052928201546080820152600582015460a0820152600682015460c082015260079091015460e0820152865190930151909116146110e65760405163708c545360e01b815260040160405180910390fd5b816001015484604001516001600160401b03161461110357600080fd5b505b611125816004600086602001518152602001908152602001600020611af2565b61112d612d5b565b61114682856020015186608001518760a001518a611efb565b604080516101408101825285548152600186015460208083019190915260028701546001600160a01b0316828401526003870154606083015260048701546080830152600587015460a0830152600687015460c083015282518084019093526007870154835260088701549083015260e0810191909152600985015460ff161515610100820152600a85015461012082015291965091506111e6906115d2565b8360c001516001600160a01b0316635a4b158c85836040518363ffffffff1660e01b8152600401611218929190613921565b60006040518083038186803b15801561123057600080fd5b505afa158015611244573d6000803e3d6000fd5b505050508360a001516004600086602001518152602001908152602001600020600601600082825461127691906135b0565b909155505060208085015160009081526004909152604081206006015412156112b257604051631129976760e21b815260040160405180910390fd5b6020848101516000908152600480835260408083208151610100810183528154815260018201549581019590955260028101546001600160a01b0390811686840152600382015481166060870152818401546080870152600582015460a0870152600682015460c087015260079091015460e0860152925481890151915163acfcd9fd60e01b81526001600160401b03909216928201929092526113a59392919091169063acfcd9fd90602401602060405180830381865afa15801561137c573d6000803e3d6000fd5b505050506040513d601f19601f820116820180604052508101906113a09190613755565b611e67565b6113c257604051635469b69360e11b815260040160405180910390fd5b6113f0846020015160008660a00151126113dd5760006118e5565b8560a001516113eb906134a3565b6118e5565b7f1eade1ddb2643d7077273e08cc8f76a80b73bfc1556882675eb88301f8eba9a7846020015185608001518760405161142b93929190613a5f565b60405180910390a15050505092915050565b6000818152600160205260409020546001600160a01b03166101515761146281612562565b60009182526001602052604090912080546001600160a01b0319166001600160a01b0392909216919091179055565b6001600160a01b0382811660009081526005602090815260408083208584529091528082208254815492516349ebb77d60e01b81526004810193909352909316906349ebb77d90602401606060405180830381865afa1580156114f8573d6000803e3d6000fd5b505050506040513d601f19601f8201168201806040525081019061151c9190613a82565b905080604001516000148015611542575060078201541515806115425750600882015415155b61154b57600080fd5b6000805460405163acfcd9fd60e01b8152600481018690526001600160a01b039091169063acfcd9fd90602401602060405180830381865afa158015611595573d6000803e3d6000fd5b505050506040513d601f19601f820116820180604052508101906115b99190613755565b600a8401555050600901805460ff191660011790555050565b6000805482516040516349ebb77d60e01b81526001600160a01b03909216916349ebb77d916116079160040190815260200190565b606060405180830381865afa158015611624573d6000803e3d6000fd5b505050506040513d601f19601f820116820180604052508101906116489190613a82565b60008054602085015160405163acfcd9fd60e01b8152600481019190915292935090916001600160a01b039091169063acfcd9fd90602401602060405180830381865afa15801561169d573d6000803e3d6000fd5b505050506040513d601f19601f820116820180604052508101906116c19190613755565b90506000836060015112156116e9576040516391dcf9e360e01b815260040160405180910390fd5b6116f383826125dd565b8260200151121561059e576040516386548aef60e01b815260040160405180910390fd5b604080516001600160a01b038481166024830152604480830185905283518084039091018152606490920183526020820180516001600160e01b031663a9059cbb60e01b17905291516000928392908716916117739190613abe565b6000604051808303816000865af19150503d80600081146117b0576040519150601f19603f3d011682016040523d82523d6000602084013e6117b5565b606091505b50915091508180156117df5750805115806117df5750808060200190518101906117df9190613595565b6118105760405162461bcd60e51b815260206004820152600260248201526114d560f21b604482015260640161063c565b5050505050565b6040805180820190915260008082526020820152600084815260046020819052604090912090810154600582015461185191908686611d81565b602084015280835260058201805460009061186d9084906135b0565b9250508190555061188386826004015486612761565b8381600401600082825461189791906135b0565b925050819055506118ae8683602001516004612890565b602083018190526006820180546000906118c99084906135b0565b9091555050600590950154600790950194909455509192915050565b6000828152600460208190526040822090810154909103611999576000808260060154131561191b575060068101805460009091555b6040805161010081018252835481526001840154602082015260028401546001600160a01b03908116928201929092526003840154909116606082015260048301546080820152600583015460a0820152600683015460c0820152600783015460e08201526119939061198e8584613ada565b6128de565b50505050565b811561059e576040805161010081018252825481526001830154602082015260028301546001600160a01b03908116928201929092526003830154909116606082015260048201546080820152600582015460a0820152600682015460c0820152600782015460e082015261059e90836128de565b60008054604051639abbdf4b60e01b81526004810185905282916001600160a01b031690639abbdf4b906024016020604051808303816000875af1158015611a5a573d6000803e3d6000fd5b505050506040513d601f19601f82011682018060405250810190611a7e9190613755565b6001600160a01b03841660009081526005602090815260408083208884529091529020909150611ab060018587612a29565b818155600181018590556002810180546001600160a01b0386166001600160a01b0319909116179055426006820155600901805460ff19169055905092915050565b6301e13380826006015442611b079190613aed565b604080516101408101825285548152600186015460208083019190915260028701546001600160a01b0316828401526003870154606083015260048701546080830152600587015460a0830152600687015460c083015282518084019093526007870154835260088701549083015260e0810191909152600985015460ff161515610100820152600a850154610120820152611ba290612a7f565b611bac9190613527565b611bb69190613557565b826005016000828254611bc991906135b0565b9091555050426006830155600481015460078201546005840154600092600160601b929091611bf891906134bf565b611c029190613527565b611c0c9190613557565b9050611c1a83826004612890565b905080826006016000828254611c3091906135b0565b909155505060058301546007808401919091558301546008840154600091600160601b91611c5e91906134bf565b85600401548660050154611c7291906134bf565b611c7c9190613527565b611c869190613557565b905080846003016000828254611c9c91906135b0565b9091555050600584015460048501558254604080519182526020820184905281018290527f6edc6b9188a760fe7e1bb9244d55c8fc5aa20cbb358d58797e2eba749eb13e5a9060600160405180910390a150505050565b600081604051602001611d6891906000610100820190508251825260208301516020830152604083015160018060a01b03808216604085015280606086015116606085015250506080830151608083015260a083015160a083015260c083015160c083015260e083015160e083015292915050565b6040516020818303038152906040529050805181602001fd5b60008083600003611d9757506000905080611e4b565b6000611da38588613527565b12611db057829150611e4b565b611db984612039565b611dc287612039565b10611df557600086611dd48688613527565b611dde9190613557565b9250829050611ded81856134bf565b915050611e4b565b6000611e00866134a3565b9050600085611e0f818a6135b0565b611e199087613527565b611e239190613557565b9050611e2f81836135b0565b935080611e3c83876134bf565b611e4691906134bf565b925050505b94509492505050565b600081604051602001611d689190612e0a565b6000806060611e7684806134e6565b901c905060008460a00151600160601b838760800151611e969190613527565b611ea09190613557565b8660c00151611eaf91906135b0565b611eb991906135b0565b90506000611ecc600160601b60326134e6565b83611eda8860800151612039565b611ee49190613527565b611eee9190613557565b9091121595945050505050565b6040805180820190915260008082526020820152611f17612d5b565b60008054906101000a90046001600160a01b03166001600160a01b0316639b819b306040518060a001604052808a6001015481526020018a6000015481526020018881526020016000815260200187604051602001611f7891815260200190565b604051602081830303815290604052815250856040518363ffffffff1660e01b8152600401611fa8929190613620565b610180604051808303816000875af1158015611fc8573d6000803e3d6000fd5b505050506040513d601f19601f82011682018060405250810190611fec919061369d565b9050806040015187600301600082825461200691906135b0565b909155505080516080810151905161202d9189918991899161202891906135b0565b611817565b91509550959350505050565b6000808212156120515761204c826134a3565b6106f7565b5090565b600082815260046020819052604082209081015490910361059e576000816006015413156120f7576006810180546000918290556040805161010081018252845481526001850154602082015260028501546001600160a01b03908116928201929092526003850154909116606082015260048401546080820152600584015460a082015260c0810192909252600783015460e08301529061199390826128de565b60008160060154121561059e576002808201546001600160a01b0390811660009081526005602090815260408083206001870154845290915290209182015416330361217857816006015481600301600082825461215591906135b0565b909155505060038101546000131561216c57600080fd5b60006006830155611993565b60008260060154612188906134a3565b60006006850181905585815260016020526040908190205490516323b872dd60e01b8152336004820152306024820152604481018390529192506001600160a01b0316906323b872dd906064016020604051808303816000875af11580156121f4573d6000803e3d6000fd5b505050506040513d601f19601f820116820180604052508101906122189190613595565b50600084815260016020526040808220549154905163095ea7b360e01b81526001600160a01b0391821660048201526024810184905291169063095ea7b3906044016020604051808303816000875af1158015612279573d6000803e3d6000fd5b505050506040513d601f19601f8201168201806040525081019061229d9190613595565b50600054825460405162a727cf60e71b81526001600160a01b0390921691635393e780916122d8918590600401918252602082015260400190565b600060405180830381600087803b1580156122f257600080fd5b505af1158015612306573d6000803e3d6000fd5b505050505050505050565b6040805161014081018252600060a0820181815260c0830182905260e083018290526101008301829052610120830182905282526020820181905291810182905260608082019290925260808101919091526000808460a001511361237757600061237d565b8360a001515b90506040518060a001604052808560000151815260200185606001516001600160a01b031681526020018281526020016123b686612b5f565b815260200184905291505092915050565b6123d081612beb565b6002546001600160a01b031663137c29fe61244e836040805160a0808201835260006060808401828152608080860184905290855260208086018490529486019290925284519283018552858401516001600160a01b0316838201908152868601518484015283528551015192820192909252925101519082015290565b6040805180820182526000808252602091820152815180830183523081529186015190820152846000015160200151856060015160405180608001604052806047815260200161426d604791396040516020016124aa90613b00565b60408051601f19818403018152908290526124c89291602001613c04565b60408051601f1981840301815260608301909152602e80835290919061423f60208301396040516020016124fd929190613c33565b60408051601f198184030181529082905260808901516001600160e01b031960e089901b1683526125349695949392600401613c83565b600060405180830381600087803b15801561254e57600080fd5b505af1158015611810573d6000803e3d6000fd5b6000805460405163324abcfb60e21b81526004810184905282916001600160a01b03169063c92af3ec9060240161072060405180830381865afa1580156125ad573d6000803e3d6000fd5b505050506040513d601f19601f820116820180604052508101906125d19190613fec565b60600151519392505050565b60008054602084015160405163324abcfb60e21b8152600481019190915282916001600160a01b03169063c92af3ec9060240161072060405180830381865afa15801561262e573d6000803e3d6000fd5b505050506040513d601f19601f820116820180604052508101906126529190613fec565b90506000606061266285806134e6565b60e0870151602081015190519190921c925011156126f45760a0820151516000906305f5e1009061269390806134e6565b61269d9190613513565b90506000816126b06305f5e10082613aed565b6126ba90856134e6565b6126c49190613513565b9050600160601b818860e00151600001516126df91906134e6565b6126e99190613513565b9450505050506106f7565b60a0820151516000906305f5e1009061270d90806134e6565b6127179190613513565b905060006305f5e10061272a8184613aed565b61273490856134e6565b61273e9190613513565b9050600160601b818860e00151602001516126df91906134e6565b505092915050565b6000808061276f8486613527565b1261277c578291506127b2565b61278583612039565b61278e85612039565b1061279a5750816127b2565b6127a483856135b0565b91506127af846134a3565b90505b60008213156127d857818560070160000160008282546127d29190613ada565b90915550505b6000821215612804576127ea826134a3565b6008860180546000906127fe908490613ada565b90915550505b600081131561282a57808560070160010160008282546128249190613aed565b90915550505b60008112156128565761283c816134a3565b600786018054600090612850908490613aed565b90915550505b8115801590612872575060028501546001600160a01b03163314155b1561181057604051638173c76360e01b815260040160405180910390fd5b6000806128a7846128a285600a6141a8565b612c3c565b9050808413156128d4576128bb81856134bf565b8560030160008282546128ce91906135b0565b90915550505b90505b9392505050565b6040808301516001600160a01b03908116600090815260056020818152848320818801518452815284832085516101408101875281548152600182015481840152600282015486168188015260038201546060820152600482015460808201529281015460a0840152600681015460c084015285518087019096526007810154865260088101549186019190915260e0820194909452600984015460ff161515610100820152600a90930154610120840152548251911690635393e780906129a5856134a3565b6040516001600160e01b031960e085901b16815260048101929092526024820152604401600060405180830381600087803b1580156129e357600080fd5b505af11580156129f7573d6000803e3d6000fd5b50505050602081810151600090815260019091526040902054606084015161059e916001600160a01b03169084611717565b604051602481018490526001600160a01b03831660448201526064810182905261059e9060840160408051601f198184030181529190526020810180516001600160e01b0316634421a1d560e11b179052612c8c565b6000805460208301516040516318e8074960e01b8152600481019190915282916001600160a01b0316906318e8074990602401602060405180830381865afa158015612acf573d6000803e3d6000fd5b505050506040513d601f19601f82011682018060405250810190612af391906141b7565b6001600160a01b031690506000600160601b612b0f83806134e6565b612b199190613513565b90506064612b2882600c613527565b612b329190613557565b60e0850151602081015190519194501015612b4e575050919050565b612b57836134a3565b949350505050565b6000604051602001612b7090613b00565b60405160208183030381529060405280519060200120612b938360000151612cad565b83602001518460400151856060015186608001518760a001518860c001518960e00151604051602001612bce999897969594939291906141d4565b604051602081830303815290604052805190602001209050919050565b8051516001600160a01b03163014612c1657604051639db8d5b160e01b815260040160405180910390fd5b8051608001514211156101515760405163387b2e5560e11b815260040160405180910390fd5b600080831315612c645781612c5384600185612d17565b612c5d91906134e6565b90506106f7565b81612c79612c71856134a3565b600185612d35565b612c8391906134e6565b612c5d906134a3565b80516a636f6e736f6c652e6c6f67602083016000808483855afa5050505050565b600060405180608001604052806047815260200161426d60479139805160209182012083518483015160608601516080870151604051612bce96019485526001600160a01b0393841660208601529190921660408401526060830191909152608082015260a00190565b6000826000190484118302158202612d2e57600080fd5b5091020490565b6000826000190484118302158202612d4c57600080fd5b50910281810615159190040190565b6040518060e00160405280612d9f6040518060c001604052806000815260200160008152602001600081526020016000815260200160008152602001600081525090565b81526020016000815260200160008152602001600081526020016000815260200160008152602001600081525090565b60008060408385031215612de257600080fd5b50508035926020909101359150565b600060208284031215612e0357600080fd5b5035919050565b8151815260208083015190820152604081016106f7565b6001600160a01b038116811461015157600080fd5b8035612e4181612e21565b919050565b60008060408385031215612e5957600080fd5b8235612e6481612e21565b946020939093013593505050565b634e487b7160e01b600052604160045260246000fd5b60405160a081016001600160401b0381118282101715612eaa57612eaa612e72565b60405290565b604080519081016001600160401b0381118282101715612eaa57612eaa612e72565b60405161010081016001600160401b0381118282101715612eaa57612eaa612e72565b60405160e081016001600160401b0381118282101715612eaa57612eaa612e72565b60405160c081016001600160401b0381118282101715612eaa57612eaa612e72565b604051606081016001600160401b0381118282101715612eaa57612eaa612e72565b60405161022081016001600160401b0381118282101715612eaa57612eaa612e72565b60405161016081016001600160401b0381118282101715612eaa57612eaa612e72565b604051601f8201601f191681016001600160401b0381118282101715612fc957612fc9612e72565b604052919050565b600060a08284031215612fe357600080fd5b612feb612e88565b90508135612ff881612e21565b8152602082013561300881612e21565b6020820152604082013561301b81612e21565b80604083015250606082013560608201526080820135608082015292915050565b6001600160401b038116811461015157600080fd5b8035612e418161303c565b60006001600160401b0382111561307557613075612e72565b50601f01601f191660200190565b600082601f83011261309457600080fd5b81356130a76130a28261305c565b612fa1565b8181528460208386010111156130bc57600080fd5b816020850160208301376000918101602001919091529392505050565b6000604082840312156130eb57600080fd5b6130f3612eb0565b9050813561310081612e21565b815260208201356001600160401b0381111561311b57600080fd5b61312784828501613083565b60208301525092915050565b60008060006060848603121561314857600080fd5b83356001600160401b038082111561315f57600080fd5b90850190610180828803121561317457600080fd5b61317c612ed2565b6131868884612fd1565b815260a0830135602082015261319e60c08401613051565b60408201526131af60e08401612e36565b6060820152610100830135608082015261012083013560a08201526131d76101408401612e36565b60c0820152610160830135828111156131ef57600080fd5b6131fb89828601613083565b60e0830152509450602086013591508082111561321757600080fd5b50613224868287016130d9565b92505061323360408501612e36565b90509250925092565b6000806040838503121561324f57600080fd5b8235915060208301356001600160401b0381111561326c57600080fd5b613278858286016130d9565b9150509250929050565b600081830361018081121561329657600080fd5b61329e612ef5565b915060c08112156132ae57600080fd5b506132b7612f17565b823581526020830135602082015260408301356040820152606083013560608201526080830135608082015260a083013560a08201528082525060c0820135602082015260e082013560408201526101008201356060820152610120820135608082015261014082013560a082015261016082013560c082015292915050565b6000806101a0838503121561334b57600080fd5b82356001600160401b038082111561336257600080fd5b9084019060a0828703121561337657600080fd5b61337e612e88565b823581526020830135602082015260408301356040820152606083013560608201526080830135828111156133b257600080fd5b6133be88828601613083565b6080830152508094505050506133d78460208501613282565b90509250929050565b600080604083850312156133f357600080fd5b82356001600160401b038082111561340a57600080fd5b908401906040828703121561341e57600080fd5b613426612eb0565b82358281111561343557600080fd5b61344188828601613083565b82525060208301358281111561345657600080fd5b61346288828601613083565b60208301525080945050602085013591508082111561348057600080fd5b50613278858286016130d9565b634e487b7160e01b600052601160045260246000fd5b6000600160ff1b82016134b8576134b861348d565b5060000390565b81810360008312801583831316838312821617156134df576134df61348d565b5092915050565b80820281158282048414176106f7576106f761348d565b634e487b7160e01b600052601260045260246000fd5b600082613522576135226134fd565b500490565b80820260008212600160ff1b841416156135435761354361348d565b81810583148215176106f7576106f761348d565b600082613566576135666134fd565b600160ff1b8214600019841416156135805761358061348d565b500590565b80518015158114612e4157600080fd5b6000602082840312156135a757600080fd5b6128d782613585565b80820182811260008312801582168215821617156127595761275961348d565b60005b838110156135eb5781810151838201526020016135d3565b50506000910152565b6000815180845261360c8160208601602086016135d0565b601f01601f19169290920160200192915050565b60408152825160408201526020830151606082015260408301516080820152606083015160a08201526000608084015160a060c084015261366460e08401826135f4565b9050828103602084015260018060a01b03845116815260208401516040602083015261369360408301826135f4565b9695505050505050565b60008183036101808112156136b157600080fd5b6136b9612ef5565b60c08212156136c757600080fd5b6136cf612f17565b9150835182526020840151602083015260408401516040830152606084015160608301526080840151608083015260a084015160a083015281815260c0840151602082015260e084015160408201526101008401516060820152610120840151608082015261014084015160a082015261016084015160c0820152809250505092915050565b60006020828403121561376757600080fd5b5051919050565b8051612e4181612e21565b600060a0828403121561378b57600080fd5b613793612e88565b905081516137a081612e21565b815260208201516137b081612e21565b602082015260408201516137c381612e21565b80604083015250606082015160608201526080820151608082015292915050565b8051612e418161303c565b600082601f83011261380057600080fd5b815161380e6130a28261305c565b81815284602083860101111561382357600080fd5b612b578260208301602087016135d0565b60006020828403121561384657600080fd5b81516001600160401b038082111561385d57600080fd5b90830190610180828603121561387257600080fd5b61387a612ed2565b6138848684613779565b815260a0830151602082015261389c60c084016137e4565b60408201526138ad60e0840161376e565b6060820152610100830151608082015261012083015160a08201526138d5610140840161376e565b60c0820152610160830151828111156138ed57600080fd5b6138f9878286016137ef565b60e08301525095945050505050565b60006001820161391a5761391a61348d565b5060010190565b6101a0808252835180516001600160a01b039081169284019290925260208082015183166101c085015260408083015184166101e0860152606080840151610200870152608093840151610220870152918701516102408601528601516001600160401b031661026085015285015182166102808401528401516102a083015260a08401516102c083015260c0840151166102e082015260e08301516101806103008301526000906139d76103208401826135f4565b9150506128d760208301848051805183526020810151602084015260408101516040840152606081015160608401526080810151608084015260a081015160a084015250602081015160c0830152604081015160e08301526060810151610100830152608081015161012083015260a081015161014083015260c08101516101608301525050565b838152602080820184905282516040830152820151606082015260808101612b57565b600060608284031215613a9457600080fd5b613a9c612f39565b8251815260208301516020820152604083015160408201528091505092915050565b60008251613ad08184602087016135d0565b9190910192915050565b808201808211156106f7576106f761348d565b818103818111156106f7576106f761348d565b690a0cae4e09ee4c8cae4560b31b81526e13dc99195c925b999bc81a5b999bcb608a1b600a820152721d5a5b9d0c8d4d881c1bdcda5d1a5bdb92590b606a1b60198201526d1d5a5b9d0d8d081c185a5c92590b60921b602c8201527f6164647265737320656e747279546f6b656e416464726573732c000000000000603a820152721a5b9d0c8d4d881d1c985919505b5bdd5b9d0b606a1b6054820152731a5b9d0c8d4d881b585c99da5b905b5bdd5b9d0b60621b60678201527f616464726573732076616c696461746f72416464726573730000000000000000607b8201527462797465732076616c69646174696f6e446174612960581b609382015260a80190565b60008351613c168184602088016135d0565b835190830190613c2a8183602088016135d0565b01949350505050565b71506572704f72646572207769746e6573732960701b815260008351613c608160128501602088016135d0565b835190830190613c778160128401602088016135d0565b01601201949350505050565b6000610140613ca6838a5180516001600160a01b03168252602090810151910152565b6020890151604084015260408901516060840152613cda608084018980516001600160a01b03168252602090810151910152565b6001600160a01b03871660c084015260e083018690526101008301819052613d04818401866135f4565b9050828103610120840152613d1981856135f4565b9998505050505050505050565b600060808284031215613d3857600080fd5b604051608081018181106001600160401b0382111715613d5a57613d5a612e72565b8060405250809150825181526020830151602082015260408301516040820152606083015160608201525092915050565b60008183036101c0811215613d9f57600080fd5b613da7612f17565b91508251613db481612e21565b82526020830151613dc481612e21565b602083015260c0603f1982011215613ddb57600080fd5b50613de4612f17565b60408301518152606083015160208201526080830151604082015260a0830151606082015260c0830151608082015260e083015160a082015280604083015250613e32836101008401613d26565b606082015261018082015160808201526101a082015160a082015292915050565b8051600281900b8114612e4157600080fd5b600060608284031215613e7757600080fd5b613e7f612f39565b905081518152613e9160208301613e53565b6020820152613ea260408301613e53565b604082015292915050565b600060408284031215613ebf57600080fd5b613ec7612eb0565b9050815181526020820151602082015292915050565b60006102608284031215613ef057600080fd5b613ef8612f5b565b9050613f038261376e565b8152613f1160208301613e53565b6020820152613f2260408301613e53565b6040820152613f33606083016137e4565b60608201526080828101519082015260a0808301519082015260c0808301519082015260e08083015190820152610100808301519082015261012080830151908201526101408083015190820152610160808301519082015261018080830151908201526101a0613fa684828501613ead565b908201526101e0613fb984848301613ead565b6101c08301526102208301519082015261024090910151610200820152919050565b805160ff81168114612e4157600080fd5b60006107208284031215613fff57600080fd5b614007612f7e565b825181526140176020840161376e565b60208201526140286040840161376e565b604082015261403a8460608501613d8b565b606082015261404d846102208501613d8b565b6080820152614060846103e08501613e65565b60a0820152614073846104408501613edd565b60c08201526140856106a0840161376e565b60e08201526140976106c08401613585565b6101008201526140aa6106e08401613fdb565b610120820152610700929092015161014083015250919050565b600181815b808511156140ff5781600019048211156140e5576140e561348d565b808516156140f257918102915b93841c93908002906140c9565b509250929050565b600082614116575060016106f7565b81614123575060006106f7565b816001811461413957600281146141435761415f565b60019150506106f7565b60ff8411156141545761415461348d565b50506001821b6106f7565b5060208310610133831016604e8410600b8410161715614182575081810a6106f7565b61418c83836140c4565b80600019048211156141a0576141a061348d565b029392505050565b60006128d760ff841683614107565b6000602082840312156141c957600080fd5b81516128d781612e21565b60006101208b83528a60208401528960408401526001600160401b038916606084015260018060a01b0380891660808501528760a08501528660c085015280861660e0850152508061010084015261422e818401856135f4565b9c9b50505050505050505050505056fe546f6b656e5065726d697373696f6e73286164647265737320746f6b656e2c75696e7432353620616d6f756e74294f72646572496e666f2861646472657373206d61726b65742c61646472657373207472616465722c75696e74323536206e6f6e63652c75696e7432353620646561646c696e6529a26469706673582212204b7c41957d07c7176857f5f87059f23985c28a21eeb38ef17db08736623254b564736f6c63430008130033",
    "linkReferences": {}
  },
  "methodIdentifiers": {
    "addFillerPool(uint256)": "47421334",
    "close(uint256)": "0aebeb4e",
    "confirmLiquidation(address,uint256)": "fa06bb6d",
    "depositMargin(uint256)": "19bd1776",
    "depositToInsurancePool(uint256,uint256)": "734ee06f",
    "execLiquidationCall(uint256,(address,bytes))": "86f9f114",
    "executeOrder((bytes,bytes),(address,bytes))": "a966d863",
    "insurancePools(address,uint256)": "4b07546f",
    "positionCount()": "e7702d05",
    "predyTradeAfterCallback((uint256,uint256,int256,int256,bytes),((int256,int256,int256,int256,int256,int256),uint256,int256,int256,int256,uint256,uint256))": "944b560b",
    "quoteExecuteOrder(((address,address,address,uint256,uint256),uint256,uint64,address,int256,int256,address,bytes),(address,bytes),address)": "798c80d5",
    "quoteUserPosition(uint256)": "7521ec92",
    "updateQuoteTokenMap(uint256)": "e1c951ca",
    "userPositions(uint256)": "1e7f1370",
    "withdrawFromInsurancePool(uint256,uint256)": "0511b7a5",
    "withdrawMargin(uint256)": "0cea7534"
  },
  "id": 57
}