{
  "address": "0x6d6AC3a31aA545Fc00a59E51386A0Bd1a95c5FEc",
  "abi": [
    {
      "inputs": [
        {
          "internalType": "contract IPredyPool",
          "name": "predyPool",
          "type": "address"
        },
        {
          "internalType": "address",
          "name": "permit2Address",
          "type": "address"
        },
        {
          "internalType": "address",
          "name": "whitelistFiller",
          "type": "address"
        },
        {
          "internalType": "address",
          "name": "quoterAddress",
          "type": "address"
        }
      ],
      "stateMutability": "nonpayable",
      "type": "constructor"
    },
    {
      "inputs": [],
      "name": "CallerIsNotFiller",
      "type": "error"
    },
    {
      "inputs": [],
      "name": "CallerIsNotPredyPool",
      "type": "error"
    },
    {
      "inputs": [],
      "name": "CloseBeforeExpiration",
      "type": "error"
    },
    {
      "inputs": [],
      "name": "DeadlinePassed",
      "type": "error"
    },
    {
      "inputs": [],
      "name": "DurationTooLong",
      "type": "error"
    },
    {
      "inputs": [],
      "name": "InvalidAveragePrice",
      "type": "error"
    },
    {
      "inputs": [],
      "name": "InvalidMarket",
      "type": "error"
    },
    {
      "inputs": [],
      "name": "NullOwner",
      "type": "error"
    },
    {
      "inputs": [],
      "name": "OutOfAcceptablePriceRange",
      "type": "error"
    },
    {
      "inputs": [],
      "name": "SignerIsNotVaultOwner",
      "type": "error"
    },
    {
      "inputs": [],
      "name": "SlippageTooLarge",
      "type": "error"
    },
    {
      "anonymous": false,
      "inputs": [
        {
          "indexed": true,
          "internalType": "address",
          "name": "user",
          "type": "address"
        },
        {
          "indexed": true,
          "internalType": "address",
          "name": "newOwner",
          "type": "address"
        }
      ],
      "name": "OwnershipTransferred",
      "type": "event"
    },
    {
      "anonymous": false,
      "inputs": [
        {
          "indexed": false,
          "internalType": "uint256",
          "name": "vaultId",
          "type": "uint256"
        },
        {
          "indexed": false,
          "internalType": "uint256",
          "name": "closeValue",
          "type": "uint256"
        },
        {
          "components": [
            {
              "internalType": "int256",
              "name": "perpEntryUpdate",
              "type": "int256"
            },
            {
              "internalType": "int256",
              "name": "sqrtEntryUpdate",
              "type": "int256"
            },
            {
              "internalType": "int256",
              "name": "sqrtRebalanceEntryUpdateUnderlying",
              "type": "int256"
            },
            {
              "internalType": "int256",
              "name": "sqrtRebalanceEntryUpdateStable",
              "type": "int256"
            },
            {
              "internalType": "int256",
              "name": "perpPayoff",
              "type": "int256"
            },
            {
              "internalType": "int256",
              "name": "sqrtPayoff",
              "type": "int256"
            }
          ],
          "indexed": false,
          "internalType": "struct IPredyPool.Payoff",
          "name": "payoff",
          "type": "tuple"
        },
        {
          "indexed": false,
          "internalType": "int256",
          "name": "fee",
          "type": "int256"
        }
      ],
      "name": "PredictPositionClosed",
      "type": "event"
    },
    {
      "anonymous": false,
      "inputs": [
        {
          "indexed": true,
          "internalType": "uint256",
          "name": "vaultId",
          "type": "uint256"
        },
        {
          "indexed": false,
          "internalType": "address",
          "name": "trader",
          "type": "address"
        },
        {
          "indexed": false,
          "internalType": "uint256",
          "name": "pairId",
          "type": "uint256"
        },
        {
          "indexed": false,
          "internalType": "uint256",
          "name": "openValue",
          "type": "uint256"
        },
        {
          "components": [
            {
              "internalType": "int256",
              "name": "perpEntryUpdate",
              "type": "int256"
            },
            {
              "internalType": "int256",
              "name": "sqrtEntryUpdate",
              "type": "int256"
            },
            {
              "internalType": "int256",
              "name": "sqrtRebalanceEntryUpdateUnderlying",
              "type": "int256"
            },
            {
              "internalType": "int256",
              "name": "sqrtRebalanceEntryUpdateStable",
              "type": "int256"
            },
            {
              "internalType": "int256",
              "name": "perpPayoff",
              "type": "int256"
            },
            {
              "internalType": "int256",
              "name": "sqrtPayoff",
              "type": "int256"
            }
          ],
          "indexed": false,
          "internalType": "struct IPredyPool.Payoff",
          "name": "payoff",
          "type": "tuple"
        },
        {
          "indexed": false,
          "internalType": "uint256",
          "name": "expiration",
          "type": "uint256"
        },
        {
          "indexed": false,
          "internalType": "uint256",
          "name": "duration",
          "type": "uint256"
        }
      ],
      "name": "PredictPositionOpened",
      "type": "event"
    },
    {
      "inputs": [
        {
          "internalType": "uint256",
          "name": "positionId",
          "type": "uint256"
        },
        {
          "components": [
            {
              "internalType": "address",
              "name": "settlementContractAddress",
              "type": "address"
            },
            {
              "internalType": "bytes",
              "name": "encodedData",
              "type": "bytes"
            }
          ],
          "internalType": "struct ISettlement.SettlementData",
          "name": "settlementData",
          "type": "tuple"
        }
      ],
      "name": "closeAfterExpiration",
      "outputs": [
        {
          "components": [
            {
              "components": [
                {
                  "internalType": "int256",
                  "name": "perpEntryUpdate",
                  "type": "int256"
                },
                {
                  "internalType": "int256",
                  "name": "sqrtEntryUpdate",
                  "type": "int256"
                },
                {
                  "internalType": "int256",
                  "name": "sqrtRebalanceEntryUpdateUnderlying",
                  "type": "int256"
                },
                {
                  "internalType": "int256",
                  "name": "sqrtRebalanceEntryUpdateStable",
                  "type": "int256"
                },
                {
                  "internalType": "int256",
                  "name": "perpPayoff",
                  "type": "int256"
                },
                {
                  "internalType": "int256",
                  "name": "sqrtPayoff",
                  "type": "int256"
                }
              ],
              "internalType": "struct IPredyPool.Payoff",
              "name": "payoff",
              "type": "tuple"
            },
            {
              "internalType": "uint256",
              "name": "vaultId",
              "type": "uint256"
            },
            {
              "internalType": "int256",
              "name": "fee",
              "type": "int256"
            },
            {
              "internalType": "int256",
              "name": "minMargin",
              "type": "int256"
            },
            {
              "internalType": "int256",
              "name": "averagePrice",
              "type": "int256"
            },
            {
              "internalType": "uint256",
              "name": "sqrtTwap",
              "type": "uint256"
            },
            {
              "internalType": "uint256",
              "name": "sqrtPrice",
              "type": "uint256"
            }
          ],
          "internalType": "struct IPredyPool.TradeResult",
          "name": "tradeResult",
          "type": "tuple"
        }
      ],
      "stateMutability": "nonpayable",
      "type": "function"
    },
    {
      "inputs": [
        {
          "components": [
            {
              "internalType": "bytes",
              "name": "order",
              "type": "bytes"
            },
            {
              "internalType": "bytes",
              "name": "sig",
              "type": "bytes"
            }
          ],
          "internalType": "struct IFillerMarket.SignedOrder",
          "name": "order",
          "type": "tuple"
        },
        {
          "components": [
            {
              "internalType": "address",
              "name": "settlementContractAddress",
              "type": "address"
            },
            {
              "internalType": "bytes",
              "name": "encodedData",
              "type": "bytes"
            }
          ],
          "internalType": "struct ISettlement.SettlementData",
          "name": "settlementData",
          "type": "tuple"
        }
      ],
      "name": "executeOrder",
      "outputs": [
        {
          "components": [
            {
              "components": [
                {
                  "internalType": "int256",
                  "name": "perpEntryUpdate",
                  "type": "int256"
                },
                {
                  "internalType": "int256",
                  "name": "sqrtEntryUpdate",
                  "type": "int256"
                },
                {
                  "internalType": "int256",
                  "name": "sqrtRebalanceEntryUpdateUnderlying",
                  "type": "int256"
                },
                {
                  "internalType": "int256",
                  "name": "sqrtRebalanceEntryUpdateStable",
                  "type": "int256"
                },
                {
                  "internalType": "int256",
                  "name": "perpPayoff",
                  "type": "int256"
                },
                {
                  "internalType": "int256",
                  "name": "sqrtPayoff",
                  "type": "int256"
                }
              ],
              "internalType": "struct IPredyPool.Payoff",
              "name": "payoff",
              "type": "tuple"
            },
            {
              "internalType": "uint256",
              "name": "vaultId",
              "type": "uint256"
            },
            {
              "internalType": "int256",
              "name": "fee",
              "type": "int256"
            },
            {
              "internalType": "int256",
              "name": "minMargin",
              "type": "int256"
            },
            {
              "internalType": "int256",
              "name": "averagePrice",
              "type": "int256"
            },
            {
              "internalType": "uint256",
              "name": "sqrtTwap",
              "type": "uint256"
            },
            {
              "internalType": "uint256",
              "name": "sqrtPrice",
              "type": "uint256"
            }
          ],
          "internalType": "struct IPredyPool.TradeResult",
          "name": "tradeResult",
          "type": "tuple"
        }
      ],
      "stateMutability": "nonpayable",
      "type": "function"
    },
    {
      "inputs": [],
      "name": "owner",
      "outputs": [
        {
          "internalType": "address",
          "name": "",
          "type": "address"
        }
      ],
      "stateMutability": "view",
      "type": "function"
    },
    {
      "inputs": [
        {
          "components": [
            {
              "internalType": "uint256",
              "name": "pairId",
              "type": "uint256"
            },
            {
              "internalType": "uint256",
              "name": "vaultId",
              "type": "uint256"
            },
            {
              "internalType": "int256",
              "name": "tradeAmount",
              "type": "int256"
            },
            {
              "internalType": "int256",
              "name": "tradeAmountSqrt",
              "type": "int256"
            },
            {
              "internalType": "bytes",
              "name": "extraData",
              "type": "bytes"
            }
          ],
          "internalType": "struct IPredyPool.TradeParams",
          "name": "tradeParams",
          "type": "tuple"
        },
        {
          "components": [
            {
              "components": [
                {
                  "internalType": "int256",
                  "name": "perpEntryUpdate",
                  "type": "int256"
                },
                {
                  "internalType": "int256",
                  "name": "sqrtEntryUpdate",
                  "type": "int256"
                },
                {
                  "internalType": "int256",
                  "name": "sqrtRebalanceEntryUpdateUnderlying",
                  "type": "int256"
                },
                {
                  "internalType": "int256",
                  "name": "sqrtRebalanceEntryUpdateStable",
                  "type": "int256"
                },
                {
                  "internalType": "int256",
                  "name": "perpPayoff",
                  "type": "int256"
                },
                {
                  "internalType": "int256",
                  "name": "sqrtPayoff",
                  "type": "int256"
                }
              ],
              "internalType": "struct IPredyPool.Payoff",
              "name": "payoff",
              "type": "tuple"
            },
            {
              "internalType": "uint256",
              "name": "vaultId",
              "type": "uint256"
            },
            {
              "internalType": "int256",
              "name": "fee",
              "type": "int256"
            },
            {
              "internalType": "int256",
              "name": "minMargin",
              "type": "int256"
            },
            {
              "internalType": "int256",
              "name": "averagePrice",
              "type": "int256"
            },
            {
              "internalType": "uint256",
              "name": "sqrtTwap",
              "type": "uint256"
            },
            {
              "internalType": "uint256",
              "name": "sqrtPrice",
              "type": "uint256"
            }
          ],
          "internalType": "struct IPredyPool.TradeResult",
          "name": "tradeResult",
          "type": "tuple"
        }
      ],
      "name": "predyTradeAfterCallback",
      "outputs": [],
      "stateMutability": "nonpayable",
      "type": "function"
    },
    {
      "inputs": [
        {
          "components": [
            {
              "components": [
                {
                  "internalType": "address",
                  "name": "market",
                  "type": "address"
                },
                {
                  "internalType": "address",
                  "name": "trader",
                  "type": "address"
                },
                {
                  "internalType": "uint256",
                  "name": "nonce",
                  "type": "uint256"
                },
                {
                  "internalType": "uint256",
                  "name": "deadline",
                  "type": "uint256"
                }
              ],
              "internalType": "struct OrderInfo",
              "name": "info",
              "type": "tuple"
            },
            {
              "internalType": "uint64",
              "name": "pairId",
              "type": "uint64"
            },
            {
              "internalType": "uint64",
              "name": "duration",
              "type": "uint64"
            },
            {
              "internalType": "address",
              "name": "entryTokenAddress",
              "type": "address"
            },
            {
              "internalType": "int256",
              "name": "tradeAmount",
              "type": "int256"
            },
            {
              "internalType": "int256",
              "name": "tradeAmountSqrt",
              "type": "int256"
            },
            {
              "internalType": "uint256",
              "name": "marginAmount",
              "type": "uint256"
            },
            {
              "internalType": "address",
              "name": "validatorAddress",
              "type": "address"
            },
            {
              "internalType": "bytes",
              "name": "validationData",
              "type": "bytes"
            }
          ],
          "internalType": "struct PredictOrder",
          "name": "predictOrder",
          "type": "tuple"
        },
        {
          "components": [
            {
              "internalType": "address",
              "name": "settlementContractAddress",
              "type": "address"
            },
            {
              "internalType": "bytes",
              "name": "encodedData",
              "type": "bytes"
            }
          ],
          "internalType": "struct ISettlement.SettlementData",
          "name": "settlementData",
          "type": "tuple"
        }
      ],
      "name": "quoteExecuteOrder",
      "outputs": [],
      "stateMutability": "nonpayable",
      "type": "function"
    },
    {
      "inputs": [
        {
          "internalType": "address",
          "name": "newOwner",
          "type": "address"
        }
      ],
      "name": "transferOwnership",
      "outputs": [],
      "stateMutability": "nonpayable",
      "type": "function"
    },
    {
      "inputs": [
        {
          "internalType": "uint256",
          "name": "pairId",
          "type": "uint256"
        }
      ],
      "name": "updateQuoteTokenMap",
      "outputs": [],
      "stateMutability": "nonpayable",
      "type": "function"
    },
    {
      "inputs": [
        {
          "internalType": "address",
          "name": "newWhitelistFiller",
          "type": "address"
        }
      ],
      "name": "updateWhitelistFiller",
      "outputs": [],
      "stateMutability": "nonpayable",
      "type": "function"
    },
    {
      "inputs": [
        {
          "internalType": "uint256",
          "name": "vaultId",
          "type": "uint256"
        }
      ],
      "name": "userPositions",
      "outputs": [
        {
          "internalType": "address",
          "name": "owner",
          "type": "address"
        },
        {
          "internalType": "uint256",
          "name": "expiration",
          "type": "uint256"
        }
      ],
      "stateMutability": "view",
      "type": "function"
    },
    {
      "inputs": [],
      "name": "whitelistFiller",
      "outputs": [
        {
          "internalType": "address",
          "name": "",
          "type": "address"
        }
      ],
      "stateMutability": "view",
      "type": "function"
    }
  ],
  "transactionHash": "0xc0d0ec023a102ceed72d4fada43c251d7f7ddbc10d5d7d5a67995ee6b71f902c",
  "args": [
    "0xE3238DE86ab31113a375552121affCEcB8aaAE2D",
    "0x000000000022d473030f116ddee9f6b43ac78ba3",
    "0x4b748969Ab77C9d09AE07b4282A151B82F96311B",
    "0x3fAD40bBE403c3AB4eB4d87865aa9CE2C57E6Aa1"
  ],
  "numDeployments": 1,
  "solcInputHash": "61f2983d436c422c16b7fa3761ed0d97",
  "bytecode": "0x60e06040523480156200001157600080fd5b5060405162002b9238038062002b928339810160408190526200003491620000d4565b6001600160a01b038416608052600080546001600160a01b031916339081178255604051869285928592909182917f8be0079c531659141344cd1fd0a4f28419497f9722a3daafe3b4186f6b6457e0908290a350600180546001600160a01b0319166001600160a01b03938416179055811660a0529390931660c052506200013c92505050565b6001600160a01b0381168114620000d157600080fd5b50565b60008060008060808587031215620000eb57600080fd5b8451620000f881620000bb565b60208601519094506200010b81620000bb565b60408601519093506200011e81620000bb565b60608601519092506200013181620000bb565b939692955090935050565b60805160a05160c0516129e7620001ab6000396000611101015260006102270152600081816103920152818161043201528181610552015281816106030152818161067c015281816106f6015281816107bc0152818161096101528181610ac80152610f1701526129e76000f3fe608060405234801561001057600080fd5b506004361061009e5760003560e01c80639a962592116100665780639a9625921461016d578063a966d86314610180578063e1c951ca14610193578063ea2f788c146101a6578063f2fde38b146101b957600080fd5b80631e7f1370146100a3578063212ff3de146100fa5780633818f8951461010f5780638da5cb5b1461012f578063944b560b1461015a575b600080fd5b6100d66100b136600461152b565b600360205260009081526040902080546001909101546001600160a01b039091169082565b604080516001600160a01b0390931683526020830191909152015b60405180910390f35b61010d61010836600461183a565b6101cc565b005b61012261011d366004611947565b610324565b6040516100f19190611a0c565b600054610142906001600160a01b031681565b6040516001600160a01b0390911681526020016100f1565b61010d610168366004611ad0565b6105f8565b61010d61017b366004611b79565b61086a565b61012261018e366004611b96565b6108da565b61010d6101a136600461152b565b610c23565b600154610142906001600160a01b031681565b61010d6101c7366004611b79565b610c78565b6040805160a080820183526020808601516001600160401b0316835260008184018190526080808801518587015292870151606085015284519182018552808252918301529151630a20b62d60e21b81526001600160a01b037f00000000000000000000000000000000000000000000000000000000000000001691632882d8b49161025d91908690600401611c86565b610180604051808303816000875af115801561027d573d6000803e3d6000fd5b505050506040513d601f19601f820116820180604052508101906102a19190611d03565b90508260e001516001600160a01b031663edb1dc8284608001518560a00151866101000151856040518563ffffffff1660e01b81526004016102e69493929190611dbb565b60006040518083038186803b1580156102fe57600080fd5b505afa158015610312573d6000803e3d6000fd5b5050505061031f81610d0c565b505050565b61032c6114b7565b6000838152600360205260409020600181015461034857600080fd5b428160010154111561036d5760405163bf0038a760e01b815260040160405180910390fd5b600181018054600091829055604051632500ed8d60e21b8152600481018790529091907f00000000000000000000000000000000000000000000000000000000000000006001600160a01b031690639403b634906024016102a060405180830381865afa1580156103e2573d6000803e3d6000fd5b505050506040513d601f19601f820116820180604052508101906104069190611ea4565b6040805160a0808201835283018051518252602082018a90525160800151519293506001600160a01b037f00000000000000000000000000000000000000000000000000000000000000001692639b819b309282019061046590611fd0565b81526020018460a0015160a001516000015161048090611fd0565b815260200160405180604001604052806001808111156104a2576104a2611fec565b815260006020918201526040516104ba929101612002565b604051602081830303815290604052815250876040518363ffffffff1660e01b81526004016104ea929190611c86565b610180604051808303816000875af115801561050a573d6000803e3d6000fd5b505050506040513d601f19601f8201168201806040525081019061052e9190611d03565b60a08201515160405163acfcd9fd60e01b815260048101919091529094506105ef907f00000000000000000000000000000000000000000000000000000000000000006001600160a01b03169063acfcd9fd90602401602060405180830381865afa1580156105a1573d6000803e3d6000fd5b505050506040513d601f19601f820116820180604052508101906105c5919061203b565b856105d08542610d38565b60a080860151015151156105e85763060c9913610dc4565b6000610dc4565b50505092915050565b336001600160a01b037f0000000000000000000000000000000000000000000000000000000000000000161461064157604051637542ed5d60e11b815260040160405180910390fd5b6000826080015180602001905181019061065b9190612054565b905060008151600181111561067257610672611fec565b036106bd5761031f7f000000000000000000000000000000000000000000000000000000000000000082602001516106ad8660000151610ef4565b6001600160a01b03169190610f8f565b6001815160018111156106d2576106d2611fec565b0361031f576020830151604051632500ed8d60e21b81526000916001600160a01b037f00000000000000000000000000000000000000000000000000000000000000001691639403b6349161072d9160040190815260200190565b6102a060405180830381865afa15801561074b573d6000803e3d6000fd5b505050506040513d601f19601f8201168201806040525081019061076f9190611ea4565b60808101516020868101516000908152600390915260409081902054905163031adb4d60e61b8152600160048201526001600160a01b0391821660248201526044810183905292935090917f00000000000000000000000000000000000000000000000000000000000000009091169063c6b6d34090606401600060405180830381600087803b15801561080257600080fd5b505af1158015610816573d6000803e3d6000fd5b505050507fcf15b89728450ebdc3970e3d85394942e776f619397bf2dd107a04673fb7a1518560200151828660000151876040015160405161085b9493929190612092565b60405180910390a15050505050565b6000546001600160a01b031633146108b85760405162461bcd60e51b815260206004820152600c60248201526b15539055551213d49256915160a21b60448201526064015b60405180910390fd5b600180546001600160a01b0319166001600160a01b0392909216919091179055565b6108e26114b7565b600083600001518060200190518101906108fc919061215b565b9050600061090e828660200151611016565b905061092b82602001516001600160401b031683606001516110aa565b6001546001600160a01b0316331461095657604051638173c76360e01b815260040160405180910390fd5b61095f816110f6565b7f00000000000000000000000000000000000000000000000000000000000000006001600160a01b0316639b819b306040518060a0016040528085602001516001600160401b0316815260200160008152602001856080015181526020018560a0015181526020016040518060400160405280600060018111156109e5576109e5611fec565b815260c0880151602091820152604051610a00929101612002565b604051602081830303815290604052815250866040518363ffffffff1660e01b8152600401610a30929190611c86565b610180604051808303816000875af1158015610a50573d6000803e3d6000fd5b505050506040513d601f19601f82011682018060405250810190610a749190611d03565b9250610aa5836020015183600001516020015184604001516001600160401b031642610aa09190612243565b6112b7565b60208084015183519091015160405163055a6d9b60e51b81526001600160a01b037f0000000000000000000000000000000000000000000000000000000000000000169263ab4db36092610b0d926004019182526001600160a01b0316602082015260400190565b600060405180830381600087803b158015610b2757600080fd5b505af1158015610b3b573d6000803e3d6000fd5b505050508160e001516001600160a01b031663edb1dc8283608001518460a00151856101000151876040518563ffffffff1660e01b8152600401610b829493929190611dbb565b60006040518083038186803b158015610b9a57600080fd5b505afa158015610bae573d6000803e3d6000fd5b50505060208085015184518201518583015160c087015188516040808a015160008781526003909852968190206001015490519597507fc5038920174afe5161a18631e7ead3c06883cee8b2be0d2ae3ad6ff16a386e5296610c1296909190612256565b60405180910390a250505b92915050565b6000818152600260205260409020546001600160a01b0316610c7557610c4881610ef4565b600082815260026020526040902080546001600160a01b0319166001600160a01b03929092169190911790555b50565b6000546001600160a01b03163314610cc15760405162461bcd60e51b815260206004820152600c60248201526b15539055551213d49256915160a21b60448201526064016108af565b600080546001600160a01b0319166001600160a01b0383169081178255604051909133917f8be0079c531659141344cd1fd0a4f28419497f9722a3daafe3b4186f6b6457e09190a350565b600081604051602001610d1f9190611a0c565b6040516020818303038152906040529050805181602001fd5b6000828211610d4b5750620f4628610c1d565b60006104b0610d5a85856122a3565b610d66906127106122b6565b610d7091906122cd565b9050612710811115610d8857620f9060915050610c1d565b612710610d9b620f4628620f90606122a3565b610da590836122b6565b610daf91906122cd565b610dbc90620f4628612243565b949350505050565b60006060610dd286806122b6565b901c90508360800151600003610dfb5760405163cb78a88f60e01b815260040160405180910390fd5b600084608001511315610e3b576080840151610e178285611338565b1115610e36576040516378eff95d60e11b815260040160405180910390fd5b610e7f565b600084608001511215610e7f578360800151610e5690611fd0565b610e608285611359565b1015610e7f576040516378eff95d60e11b815260040160405180910390fd5b600082118015610ecf575081610e99866305f5e1006122b6565b610ea391906122cd565b8460c001511080610ecf575060c08401516305f5e100610ec384886122b6565b610ecd91906122cd565b105b15610eed5760405163dbaffb0160e01b815260040160405180910390fd5b5050505050565b60405163324abcfb60e21b81526004810182905260009081906001600160a01b037f0000000000000000000000000000000000000000000000000000000000000000169063c92af3ec9060240161078060405180830381865afa158015610f5f573d6000803e3d6000fd5b505050506040513d601f19601f82011682018060405250810190610f839190612588565b60600151519392505050565b600060405163a9059cbb60e01b81526001600160a01b0384166004820152826024820152602060006044836000895af13d15601f3d11600160005114161716915050806110105760405162461bcd60e51b815260206004820152600f60248201526e1514905394d1915497d19052531151608a1b60448201526064016108af565b50505050565b6040805161012081018252600060a0820181815260c0830182905260e08301829052610100830182905282526020820181905291810182905260608082019290925260808101919091526040518060a001604052808460000151815260200184606001516001600160a01b031681526020018460c00151815260200161109b85611369565b81526020019290925250919050565b6000828152600260205260409020546001600160a01b0316158015906110e957506000828152600260205260409020546001600160a01b038281169116145b6110f257600080fd5b5050565b6110ff816113fc565b7f00000000000000000000000000000000000000000000000000000000000000006001600160a01b031663137c29fe6111a3836040805160a0810182526000606082018181526080830182905282526020820181905291810191909152506040805160a0810182526020808401516001600160a01b031660608084019182528585015160808501529083528451840151918301919091529251909201519082015290565b6040805180820182526000808252602091820152815180830183523081529186015190820152846000015160200151856060015160405180608001604052806047815260200161296b604791396040516020016111ff90612673565b60408051601f198184030181529082905261121d929160200161279e565b60408051601f1981840301815260608301909152602e80835290919061293d60208301396040516020016112529291906127cd565b60408051601f198184030181529082905260808901516001600160e01b031960e089901b1683526112899695949392600401612820565b600060405180830381600087803b1580156112a357600080fd5b505af1158015610eed573d6000803e3d6000fd5b6001600160a01b038216158015906112cf5750600083115b6112d857600080fd5b6112e54262278d00612243565b81111561130557604051634a94fa8360e11b815260040160405180910390fd5b60009283526003602052604090922080546001600160a01b0319166001600160a01b039290921691909117815560010155565b600081611348620f4240856122b6565b61135291906122cd565b9392505050565b6000620f424061134883856122b6565b600060405160200161137a90612673565b6040516020818303038152906040528051906020012061139d836000015161144d565b83602001518460400151856060015186608001518760a001518860c001518960e001518a61010001516040516020016113df9a999897969594939291906128c3565b604051602081830303815290604052805190602001209050919050565b8051516001600160a01b0316301461142757604051639db8d5b160e01b815260040160405180910390fd5b805160600151421115610c755760405163387b2e5560e11b815260040160405180910390fd5b600060405180608001604052806047815260200161296b6047913980516020918201208351848301516040808701516060808901518351978801969096526001600160a01b03948516928701929092529290911690840152608083015260a082015260c0016113df565b6040518060e001604052806114fb6040518060c001604052806000815260200160008152602001600081526020016000815260200160008152602001600081525090565b81526020016000815260200160008152602001600081526020016000815260200160008152602001600081525090565b60006020828403121561153d57600080fd5b5035919050565b634e487b7160e01b600052604160045260246000fd5b604051608081016001600160401b038111828210171561157c5761157c611544565b60405290565b604080519081016001600160401b038111828210171561157c5761157c611544565b60405161012081016001600160401b038111828210171561157c5761157c611544565b60405160e081016001600160401b038111828210171561157c5761157c611544565b60405160c081016001600160401b038111828210171561157c5761157c611544565b60405160a081016001600160401b038111828210171561157c5761157c611544565b60405161010081016001600160401b038111828210171561157c5761157c611544565b60405161022081016001600160401b038111828210171561157c5761157c611544565b60405161018081016001600160401b038111828210171561157c5761157c611544565b604051601f8201601f191681016001600160401b03811182821017156116be576116be611544565b604052919050565b6001600160a01b0381168114610c7557600080fd5b80356116e6816116c6565b919050565b6000608082840312156116fd57600080fd5b61170561155a565b90508135611712816116c6565b81526020820135611722816116c6565b80602083015250604082013560408201526060820135606082015292915050565b6001600160401b0381168114610c7557600080fd5b80356116e681611743565b60006001600160401b0382111561177c5761177c611544565b50601f01601f191660200190565b600082601f83011261179b57600080fd5b81356117ae6117a982611763565b611696565b8181528460208386010111156117c357600080fd5b816020850160208301376000918101602001919091529392505050565b6000604082840312156117f257600080fd5b6117fa611582565b90508135611807816116c6565b815260208201356001600160401b0381111561182257600080fd5b61182e8482850161178a565b60208301525092915050565b6000806040838503121561184d57600080fd5b82356001600160401b038082111561186457600080fd5b90840190610180828703121561187957600080fd5b6118816115a4565b61188b87846116eb565b815261189960808401611758565b60208201526118aa60a08401611758565b60408201526118bb60c084016116db565b606082015260e083013560808201526101008084013560a083015261012084013560c08301526118ee61014085016116db565b60e08301526101608401358381111561190657600080fd5b6119128982870161178a565b82840152505080945050602085013591508082111561193057600080fd5b5061193d858286016117e0565b9150509250929050565b6000806040838503121561195a57600080fd5b8235915060208301356001600160401b0381111561197757600080fd5b61193d858286016117e0565b805182526020810151602083015260408101516040830152606081015160608301526080810151608083015260a081015160a08301525050565b6119c8828251611983565b602081015160c0830152604081015160e08301526060810151610100830152608081015161012083015260a081015161014083015260c08101516101608301525050565b6101808101610c1d82846119bd565b6000818303610180811215611a2f57600080fd5b611a376115c7565b915060c0811215611a4757600080fd5b50611a506115e9565b823581526020830135602082015260408301356040820152606083013560608201526080830135608082015260a083013560a08201528082525060c0820135602082015260e082013560408201526101008201356060820152610120820135608082015261014082013560a082015261016082013560c082015292915050565b6000806101a08385031215611ae457600080fd5b82356001600160401b0380821115611afb57600080fd5b9084019060a08287031215611b0f57600080fd5b611b1761160b565b82358152602083013560208201526040830135604082015260608301356060820152608083013582811115611b4b57600080fd5b611b578882860161178a565b608083015250809450505050611b708460208501611a1b565b90509250929050565b600060208284031215611b8b57600080fd5b8135611352816116c6565b60008060408385031215611ba957600080fd5b82356001600160401b0380821115611bc057600080fd5b9084019060408287031215611bd457600080fd5b611bdc611582565b823582811115611beb57600080fd5b611bf78882860161178a565b825250602083013582811115611c0c57600080fd5b611c188882860161178a565b60208301525080945050602085013591508082111561193057600080fd5b60005b83811015611c51578181015183820152602001611c39565b50506000910152565b60008151808452611c72816020860160208601611c36565b601f01601f19169290920160200192915050565b60408152825160408201526020830151606082015260408301516080820152606083015160a08201526000608084015160a060c0840152611cca60e0840182611c5a565b9050828103602084015260018060a01b038451168152602084015160406020830152611cf96040830182611c5a565b9695505050505050565b6000818303610180811215611d1757600080fd5b611d1f6115c7565b60c0821215611d2d57600080fd5b611d356115e9565b9150835182526020840151602083015260408401516040830152606084015160608301526080840151608083015260a084015160a083015281815260c0840151602082015260e084015160408201526101008401516060820152610120840151608082015261014084015160a082015261016084015160c0820152809250505092915050565b60006101e0868352856020840152806040840152611ddb81840186611c5a565b915050611deb60608301846119bd565b95945050505050565b80516116e6816116c6565b8051600281900b81146116e657600080fd5b80516116e681611743565b600060408284031215611e2e57600080fd5b611e36611582565b9050815181526020820151602082015292915050565b600060c08284031215611e5e57600080fd5b611e666115e9565b9050815181526020820151602082015260408201516040820152606082015160608201526080820151608082015260a082015160a082015292915050565b60008183036102a0811215611eb857600080fd5b611ec06115e9565b835181526020840151611ed2816116c6565b60208201526040840151611ee5816116c6565b60408201526060840151611ef8816116c6565b606082015260808481015190820152610200609f1983011215611f1a57600080fd5b611f2261162d565b915060a08401518252611f3760c08501611dff565b6020830152611f4860e08501611dff565b6040830152611f5a6101008501611e11565b6060830152611f6d856101208601611e1c565b6080830152611f80856101608601611e4c565b60a0830152611f93856102208601611e1c565b60c0830152611fa6856102608601611e1c565b60e083015260a08101919091529392505050565b634e487b7160e01b600052601160045260246000fd5b6000600160ff1b8201611fe557611fe5611fba565b5060000390565b634e487b7160e01b600052602160045260246000fd5b815160408201906002811061202757634e487b7160e01b600052602160045260246000fd5b808352506020830151602083015292915050565b60006020828403121561204d57600080fd5b5051919050565b60006040828403121561206657600080fd5b61206e611582565b82516002811061207d57600080fd5b81526020928301519281019290925250919050565b8481526020810184905261012081016120ae6040830185611983565b8261010083015295945050505050565b6000608082840312156120d057600080fd5b6120d861155a565b905081516120e5816116c6565b815260208201516120f5816116c6565b80602083015250604082015160408201526060820151606082015292915050565b600082601f83011261212757600080fd5b81516121356117a982611763565b81815284602083860101111561214a57600080fd5b610dbc826020830160208701611c36565b60006020828403121561216d57600080fd5b81516001600160401b038082111561218457600080fd5b90830190610180828603121561219957600080fd5b6121a16115a4565b6121ab86846120be565b81526121b960808401611e11565b60208201526121ca60a08401611e11565b60408201526121db60c08401611df4565b606082015260e083015160808201526101008084015160a083015261012084015160c083015261220e6101408501611df4565b60e08301526101608401518381111561222657600080fd5b61223288828701612116565b918301919091525095945050505050565b80820180821115610c1d57610c1d611fba565b6001600160a01b03871681526001600160401b0386811660208301526040820186905261016082019061228c6060840187611983565b939093166101208201526101400152949350505050565b81810381811115610c1d57610c1d611fba565b8082028115828204841417610c1d57610c1d611fba565b6000826122ea57634e487b7160e01b600052601260045260246000fd5b500490565b60006080828403121561230157600080fd5b61230961155a565b90508151815260208201516020820152604082015160408201526060820151606082015292915050565b60008183036101c081121561234757600080fd5b61234f6115e9565b9150825161235c816116c6565b8252602083015161236c816116c6565b602083015260c0603f198201121561238357600080fd5b5061238c6115e9565b60408301518152606083015160208201526080830151604082015260a0830151606082015260c0830151608082015260e083015160a0820152806040830152506123da8361010084016122ef565b606082015261018082015160808201526101a082015160a082015292915050565b600060a0828403121561240d57600080fd5b61241561160b565b90508151815261242760208301611dff565b602082015261243860408301611dff565b6040820152606082015161244b81611743565b6060820152608082015161245e81611743565b608082015292915050565b6000610260828403121561247c57600080fd5b612484611650565b905061248f82611df4565b815261249d60208301611dff565b60208201526124ae60408301611dff565b60408201526124bf60608301611e11565b60608201526080828101519082015260a0808301519082015260c0808301519082015260e08083015190820152610100808301519082015261012080830151908201526101408083015190820152610160808301519082015261018080830151908201526101a061253284828501611e1c565b908201526101e061254584848301611e1c565b6101c08301526102208301519082015261024090910151610200820152919050565b805180151581146116e657600080fd5b805160ff811681146116e657600080fd5b6000610780828403121561259b57600080fd5b6125a3611673565b825181526125b360208401611df4565b60208201526125c460408401611df4565b60408201526125d68460608501612333565b60608201526125e9846102208501612333565b60808201526125fc846103e085016123fb565b60a082015261260f846104808501612469565b60c08201526126216106e08401611df4565b60e08201526126336107008401612567565b6101008201526126466107208401612567565b6101208201526126596107408401612577565b610140820152610760929092015161016083015250919050565b6c0a0e4cac8d2c6e89ee4c8cae45609b1b81526e13dc99195c925b999bc81a5b999bcb608a1b600d8201526d1d5a5b9d0d8d081c185a5c92590b60921b601c8201526f1d5a5b9d0d8d08191d5c985d1a5bdb8b60821b602a8201527f6164647265737320656e747279546f6b656e416464726573732c000000000000603a820152721a5b9d0c8d4d881d1c985919505b5bdd5b9d0b606a1b60548201527f696e74323536207472616465416d6f756e74537172742c0000000000000000006067820152741d5a5b9d0c8d4d881b585c99da5b905b5bdd5b9d0b605a1b607e8201527f616464726573732076616c696461746f7241646472657373000000000000000060938201527462797465732076616c69646174696f6e446174612960581b60ab82015260c00190565b600083516127b0818460208801611c36565b8351908301906127c4818360208801611c36565b01949350505050565b74507265646963744f72646572207769746e6573732960581b8152600083516127fd816015850160208801611c36565b835190830190612814816015840160208801611c36565b01601501949350505050565b6000610140612843838a5180516001600160a01b03168252602090810151910152565b6020890151604084015260408901516060840152612877608084018980516001600160a01b03168252602090810151910152565b6001600160a01b03871660c084015260e0830186905261010083018190526128a181840186611c5a565b90508281036101208401526128b68185611c5a565b9998505050505050505050565b8a8152602081018a90526001600160401b038981166040830152881660608201526001600160a01b03878116608083015260a0820187905260c0820186905260e082018590528316610100820152610140610120820181905260009061292b83820185611c5a565b9d9c5050505050505050505050505056fe546f6b656e5065726d697373696f6e73286164647265737320746f6b656e2c75696e7432353620616d6f756e74294f72646572496e666f2861646472657373206d61726b65742c61646472657373207472616465722c75696e74323536206e6f6e63652c75696e7432353620646561646c696e6529a264697066735822122049b7e48240d6f4797a17fa9e1b34fcd95950b0555353ef222ef267c8164363a764736f6c63430008130033",
  "devdoc": {
    "kind": "dev",
    "methods": {
      "closeAfterExpiration(uint256,(address,bytes))": {
        "details": "Anyone can call this function",
        "params": {
          "positionId": "The id of position",
          "settlementData": "The route of settlement created by filler"
        },
        "returns": {
          "tradeResult": "The result of trade"
        }
      },
      "executeOrder((bytes,bytes),(address,bytes))": {
        "params": {
          "order": "The order signed by trader",
          "settlementData": "The route of settlement created by filler"
        },
        "returns": {
          "tradeResult": "The result of trade"
        }
      },
      "updateWhitelistFiller(address)": {
        "details": "only owner can call this function"
      }
    },
    "version": 1
  },
  "userdoc": {
    "errors": {
      "DeadlinePassed()": [
        {
          "notice": "thrown if the order has expired"
        }
      ],
      "InvalidMarket()": [
        {
          "notice": "thrown when the order targets a different market contract"
        }
      ]
    },
    "kind": "user",
    "methods": {
      "closeAfterExpiration(uint256,(address,bytes))": {
        "notice": "Closes a predict position"
      },
      "executeOrder((bytes,bytes),(address,bytes))": {
        "notice": "Verifies signature of the order and open new predict position"
      },
      "quoteExecuteOrder(((address,address,uint256,uint256),uint64,uint64,address,int256,int256,uint256,address,bytes),(address,bytes))": {
        "notice": "Estimate transaction results and return with revert message"
      },
      "updateQuoteTokenMap(uint256)": {
        "notice": "Registers quote token address for the pair"
      },
      "updateWhitelistFiller(address)": {
        "notice": "Updates the whitelist filler address"
      }
    },
    "notice": "Predict market contract A trader can open position with any duration. Anyone can close the position after expiration timestamp.",
    "version": 1
  },
  "storageLayout": {
    "storage": [
      {
        "astId": 2515,
        "contract": "src/markets/predict/PredictMarket.sol:PredictMarket",
        "label": "owner",
        "offset": 0,
        "slot": "0",
        "type": "t_address"
      },
      {
        "astId": 6774,
        "contract": "src/markets/predict/PredictMarket.sol:PredictMarket",
        "label": "whitelistFiller",
        "offset": 0,
        "slot": "1",
        "type": "t_address"
      },
      {
        "astId": 6781,
        "contract": "src/markets/predict/PredictMarket.sol:PredictMarket",
        "label": "_quoteTokenMap",
        "offset": 0,
        "slot": "2",
        "type": "t_mapping(t_uint256,t_address)"
      },
      {
        "astId": 19499,
        "contract": "src/markets/predict/PredictMarket.sol:PredictMarket",
        "label": "userPositions",
        "offset": 0,
        "slot": "3",
        "type": "t_mapping(t_uint256,t_struct(UserPosition)19485_storage)"
      }
    ],
    "types": {
      "t_address": {
        "encoding": "inplace",
        "label": "address",
        "numberOfBytes": "20"
      },
      "t_mapping(t_uint256,t_address)": {
        "encoding": "mapping",
        "key": "t_uint256",
        "label": "mapping(uint256 => address)",
        "numberOfBytes": "32",
        "value": "t_address"
      },
      "t_mapping(t_uint256,t_struct(UserPosition)19485_storage)": {
        "encoding": "mapping",
        "key": "t_uint256",
        "label": "mapping(uint256 => struct PredictMarket.UserPosition)",
        "numberOfBytes": "32",
        "value": "t_struct(UserPosition)19485_storage"
      },
      "t_struct(UserPosition)19485_storage": {
        "encoding": "inplace",
        "label": "struct PredictMarket.UserPosition",
        "members": [
          {
            "astId": 19482,
            "contract": "src/markets/predict/PredictMarket.sol:PredictMarket",
            "label": "owner",
            "offset": 0,
            "slot": "0",
            "type": "t_address"
          },
          {
            "astId": 19484,
            "contract": "src/markets/predict/PredictMarket.sol:PredictMarket",
            "label": "expiration",
            "offset": 0,
            "slot": "1",
            "type": "t_uint256"
          }
        ],
        "numberOfBytes": "64"
      },
      "t_uint256": {
        "encoding": "inplace",
        "label": "uint256",
        "numberOfBytes": "32"
      }
    }
  }
}