{
  "abi": [
    {
      "inputs": [
        {
          "internalType": "address",
          "name": "uniswapFactory",
          "type": "address"
        }
      ],
      "stateMutability": "nonpayable",
      "type": "constructor"
    },
    {
      "inputs": [],
      "name": "CallerIsNotVaultOwner",
      "type": "error"
    },
    {
      "inputs": [],
      "name": "CurrencyNotSettled",
      "type": "error"
    },
    {
      "inputs": [],
      "name": "InvalidAddress",
      "type": "error"
    },
    {
      "inputs": [],
      "name": "InvalidAmount",
      "type": "error"
    },
    {
      "inputs": [],
      "name": "InvalidPairId",
      "type": "error"
    },
    {
      "inputs": [
        {
          "internalType": "address",
          "name": "locker",
          "type": "address"
        }
      ],
      "name": "LockedBy",
      "type": "error"
    },
    {
      "inputs": [],
      "name": "T",
      "type": "error"
    },
    {
      "inputs": [],
      "name": "VaultAlreadyHasAnotherMarginId",
      "type": "error"
    },
    {
      "inputs": [],
      "name": "VaultAlreadyHasAnotherPair",
      "type": "error"
    },
    {
      "inputs": [],
      "name": "VaultIsNotDanger",
      "type": "error"
    },
    {
      "inputs": [
        {
          "internalType": "address",
          "name": "",
          "type": "address"
        }
      ],
      "name": "allowedUniswapPools",
      "outputs": [
        {
          "internalType": "bool",
          "name": "",
          "type": "bool"
        }
      ],
      "stateMutability": "view",
      "type": "function"
    },
    {
      "inputs": [
        {
          "internalType": "uint256",
          "name": "vaultId",
          "type": "uint256"
        },
        {
          "internalType": "uint256",
          "name": "pairId",
          "type": "uint256"
        }
      ],
      "name": "createVault",
      "outputs": [
        {
          "internalType": "uint256",
          "name": "",
          "type": "uint256"
        }
      ],
      "stateMutability": "nonpayable",
      "type": "function"
    },
    {
      "inputs": [
        {
          "internalType": "uint256",
          "name": "vaultId",
          "type": "uint256"
        },
        {
          "internalType": "uint256",
          "name": "closeRatio",
          "type": "uint256"
        },
        {
          "components": [
            {
              "internalType": "address",
              "name": "settlementContractAddress",
              "type": "address"
            },
            {
              "internalType": "bytes",
              "name": "encodedData",
              "type": "bytes"
            }
          ],
          "internalType": "struct ISettlement.SettlementData",
          "name": "settlementData",
          "type": "tuple"
        }
      ],
      "name": "execLiquidationCall",
      "outputs": [
        {
          "components": [
            {
              "components": [
                {
                  "internalType": "int256",
                  "name": "perpEntryUpdate",
                  "type": "int256"
                },
                {
                  "internalType": "int256",
                  "name": "sqrtEntryUpdate",
                  "type": "int256"
                },
                {
                  "internalType": "int256",
                  "name": "sqrtRebalanceEntryUpdateUnderlying",
                  "type": "int256"
                },
                {
                  "internalType": "int256",
                  "name": "sqrtRebalanceEntryUpdateStable",
                  "type": "int256"
                },
                {
                  "internalType": "int256",
                  "name": "perpPayoff",
                  "type": "int256"
                },
                {
                  "internalType": "int256",
                  "name": "sqrtPayoff",
                  "type": "int256"
                }
              ],
              "internalType": "struct IPredyPool.Payoff",
              "name": "payoff",
              "type": "tuple"
            },
            {
              "internalType": "uint256",
              "name": "vaultId",
              "type": "uint256"
            },
            {
              "internalType": "int256",
              "name": "fee",
              "type": "int256"
            },
            {
              "internalType": "int256",
              "name": "minMargin",
              "type": "int256"
            },
            {
              "internalType": "int256",
              "name": "averagePrice",
              "type": "int256"
            },
            {
              "internalType": "uint256",
              "name": "sqrtTwap",
              "type": "uint256"
            },
            {
              "internalType": "uint256",
              "name": "sqrtPrice",
              "type": "uint256"
            }
          ],
          "internalType": "struct IPredyPool.TradeResult",
          "name": "tradeResult",
          "type": "tuple"
        }
      ],
      "stateMutability": "nonpayable",
      "type": "function"
    },
    {
      "inputs": [
        {
          "internalType": "uint256",
          "name": "pairId",
          "type": "uint256"
        }
      ],
      "name": "getPairStatus",
      "outputs": [
        {
          "components": [
            {
              "internalType": "uint256",
              "name": "id",
              "type": "uint256"
            },
            {
              "internalType": "address",
              "name": "marginId",
              "type": "address"
            },
            {
              "internalType": "address",
              "name": "poolOwner",
              "type": "address"
            },
            {
              "components": [
                {
                  "internalType": "address",
                  "name": "token",
                  "type": "address"
                },
                {
                  "internalType": "address",
                  "name": "supplyTokenAddress",
                  "type": "address"
                },
                {
                  "components": [
                    {
                      "internalType": "uint256",
                      "name": "totalCompoundDeposited",
                      "type": "uint256"
                    },
                    {
                      "internalType": "uint256",
                      "name": "totalNormalDeposited",
                      "type": "uint256"
                    },
                    {
                      "internalType": "uint256",
                      "name": "totalNormalBorrowed",
                      "type": "uint256"
                    },
                    {
                      "internalType": "uint256",
                      "name": "assetScaler",
                      "type": "uint256"
                    },
                    {
                      "internalType": "uint256",
                      "name": "assetGrowth",
                      "type": "uint256"
                    },
                    {
                      "internalType": "uint256",
                      "name": "debtGrowth",
                      "type": "uint256"
                    }
                  ],
                  "internalType": "struct ScaledAsset.AssetStatus",
                  "name": "tokenStatus",
                  "type": "tuple"
                },
                {
                  "components": [
                    {
                      "internalType": "uint256",
                      "name": "baseRate",
                      "type": "uint256"
                    },
                    {
                      "internalType": "uint256",
                      "name": "kinkRate",
                      "type": "uint256"
                    },
                    {
                      "internalType": "uint256",
                      "name": "slope1",
                      "type": "uint256"
                    },
                    {
                      "internalType": "uint256",
                      "name": "slope2",
                      "type": "uint256"
                    }
                  ],
                  "internalType": "struct InterestRateModel.IRMParams",
                  "name": "irmParams",
                  "type": "tuple"
                },
                {
                  "internalType": "uint256",
                  "name": "accumulatedProtocolRevenue",
                  "type": "uint256"
                },
                {
                  "internalType": "uint256",
                  "name": "accumulatedCreatorRevenue",
                  "type": "uint256"
                }
              ],
              "internalType": "struct Perp.AssetPoolStatus",
              "name": "quotePool",
              "type": "tuple"
            },
            {
              "components": [
                {
                  "internalType": "address",
                  "name": "token",
                  "type": "address"
                },
                {
                  "internalType": "address",
                  "name": "supplyTokenAddress",
                  "type": "address"
                },
                {
                  "components": [
                    {
                      "internalType": "uint256",
                      "name": "totalCompoundDeposited",
                      "type": "uint256"
                    },
                    {
                      "internalType": "uint256",
                      "name": "totalNormalDeposited",
                      "type": "uint256"
                    },
                    {
                      "internalType": "uint256",
                      "name": "totalNormalBorrowed",
                      "type": "uint256"
                    },
                    {
                      "internalType": "uint256",
                      "name": "assetScaler",
                      "type": "uint256"
                    },
                    {
                      "internalType": "uint256",
                      "name": "assetGrowth",
                      "type": "uint256"
                    },
                    {
                      "internalType": "uint256",
                      "name": "debtGrowth",
                      "type": "uint256"
                    }
                  ],
                  "internalType": "struct ScaledAsset.AssetStatus",
                  "name": "tokenStatus",
                  "type": "tuple"
                },
                {
                  "components": [
                    {
                      "internalType": "uint256",
                      "name": "baseRate",
                      "type": "uint256"
                    },
                    {
                      "internalType": "uint256",
                      "name": "kinkRate",
                      "type": "uint256"
                    },
                    {
                      "internalType": "uint256",
                      "name": "slope1",
                      "type": "uint256"
                    },
                    {
                      "internalType": "uint256",
                      "name": "slope2",
                      "type": "uint256"
                    }
                  ],
                  "internalType": "struct InterestRateModel.IRMParams",
                  "name": "irmParams",
                  "type": "tuple"
                },
                {
                  "internalType": "uint256",
                  "name": "accumulatedProtocolRevenue",
                  "type": "uint256"
                },
                {
                  "internalType": "uint256",
                  "name": "accumulatedCreatorRevenue",
                  "type": "uint256"
                }
              ],
              "internalType": "struct Perp.AssetPoolStatus",
              "name": "basePool",
              "type": "tuple"
            },
            {
              "components": [
                {
                  "internalType": "uint256",
                  "name": "riskRatio",
                  "type": "uint256"
                },
                {
                  "internalType": "int24",
                  "name": "rangeSize",
                  "type": "int24"
                },
                {
                  "internalType": "int24",
                  "name": "rebalanceThreshold",
                  "type": "int24"
                }
              ],
              "internalType": "struct Perp.AssetRiskParams",
              "name": "riskParams",
              "type": "tuple"
            },
            {
              "components": [
                {
                  "internalType": "address",
                  "name": "uniswapPool",
                  "type": "address"
                },
                {
                  "internalType": "int24",
                  "name": "tickLower",
                  "type": "int24"
                },
                {
                  "internalType": "int24",
                  "name": "tickUpper",
                  "type": "int24"
                },
                {
                  "internalType": "uint64",
                  "name": "numRebalance",
                  "type": "uint64"
                },
                {
                  "internalType": "uint256",
                  "name": "totalAmount",
                  "type": "uint256"
                },
                {
                  "internalType": "uint256",
                  "name": "borrowedAmount",
                  "type": "uint256"
                },
                {
                  "internalType": "uint256",
                  "name": "lastRebalanceTotalSquartAmount",
                  "type": "uint256"
                },
                {
                  "internalType": "uint256",
                  "name": "lastFee0Growth",
                  "type": "uint256"
                },
                {
                  "internalType": "uint256",
                  "name": "lastFee1Growth",
                  "type": "uint256"
                },
                {
                  "internalType": "uint256",
                  "name": "borrowPremium0Growth",
                  "type": "uint256"
                },
                {
                  "internalType": "uint256",
                  "name": "borrowPremium1Growth",
                  "type": "uint256"
                },
                {
                  "internalType": "uint256",
                  "name": "fee0Growth",
                  "type": "uint256"
                },
                {
                  "internalType": "uint256",
                  "name": "fee1Growth",
                  "type": "uint256"
                },
                {
                  "components": [
                    {
                      "internalType": "int256",
                      "name": "positionAmount",
                      "type": "int256"
                    },
                    {
                      "internalType": "uint256",
                      "name": "lastFeeGrowth",
                      "type": "uint256"
                    }
                  ],
                  "internalType": "struct ScaledAsset.UserStatus",
                  "name": "rebalancePositionUnderlying",
                  "type": "tuple"
                },
                {
                  "components": [
                    {
                      "internalType": "int256",
                      "name": "positionAmount",
                      "type": "int256"
                    },
                    {
                      "internalType": "uint256",
                      "name": "lastFeeGrowth",
                      "type": "uint256"
                    }
                  ],
                  "internalType": "struct ScaledAsset.UserStatus",
                  "name": "rebalancePositionStable",
                  "type": "tuple"
                },
                {
                  "internalType": "int256",
                  "name": "rebalanceFeeGrowthUnderlying",
                  "type": "int256"
                },
                {
                  "internalType": "int256",
                  "name": "rebalanceFeeGrowthStable",
                  "type": "int256"
                }
              ],
              "internalType": "struct Perp.SqrtPerpAssetStatus",
              "name": "sqrtAssetStatus",
              "type": "tuple"
            },
            {
              "internalType": "address",
              "name": "priceFeed",
              "type": "address"
            },
            {
              "internalType": "bool",
              "name": "isMarginZero",
              "type": "bool"
            },
            {
              "internalType": "uint8",
              "name": "feeRatio",
              "type": "uint8"
            },
            {
              "internalType": "uint256",
              "name": "lastUpdateTimestamp",
              "type": "uint256"
            }
          ],
          "internalType": "struct Perp.PairStatus",
          "name": "",
          "type": "tuple"
        }
      ],
      "stateMutability": "view",
      "type": "function"
    },
    {
      "inputs": [
        {
          "internalType": "uint256",
          "name": "pairId",
          "type": "uint256"
        }
      ],
      "name": "getSqrtIndexPrice",
      "outputs": [
        {
          "internalType": "uint256",
          "name": "",
          "type": "uint256"
        }
      ],
      "stateMutability": "view",
      "type": "function"
    },
    {
      "inputs": [
        {
          "internalType": "uint256",
          "name": "pairId",
          "type": "uint256"
        }
      ],
      "name": "getSqrtPrice",
      "outputs": [
        {
          "internalType": "uint160",
          "name": "",
          "type": "uint160"
        }
      ],
      "stateMutability": "view",
      "type": "function"
    },
    {
      "inputs": [
        {
          "internalType": "uint256",
          "name": "vaultId",
          "type": "uint256"
        }
      ],
      "name": "getVault",
      "outputs": [
        {
          "components": [
            {
              "internalType": "uint256",
              "name": "id",
              "type": "uint256"
            },
            {
              "internalType": "address",
              "name": "marginId",
              "type": "address"
            },
            {
              "internalType": "address",
              "name": "owner",
              "type": "address"
            },
            {
              "internalType": "address",
              "name": "recepient",
              "type": "address"
            },
            {
              "internalType": "int256",
              "name": "margin",
              "type": "int256"
            },
            {
              "components": [
                {
                  "internalType": "uint256",
                  "name": "pairId",
                  "type": "uint256"
                },
                {
                  "internalType": "int24",
                  "name": "rebalanceLastTickLower",
                  "type": "int24"
                },
                {
                  "internalType": "int24",
                  "name": "rebalanceLastTickUpper",
                  "type": "int24"
                },
                {
                  "internalType": "uint64",
                  "name": "lastNumRebalance",
                  "type": "uint64"
                },
                {
                  "components": [
                    {
                      "internalType": "int256",
                      "name": "amount",
                      "type": "int256"
                    },
                    {
                      "internalType": "int256",
                      "name": "entryValue",
                      "type": "int256"
                    }
                  ],
                  "internalType": "struct Perp.PositionStatus",
                  "name": "perp",
                  "type": "tuple"
                },
                {
                  "components": [
                    {
                      "internalType": "int256",
                      "name": "amount",
                      "type": "int256"
                    },
                    {
                      "internalType": "int256",
                      "name": "entryValue",
                      "type": "int256"
                    },
                    {
                      "internalType": "int256",
                      "name": "quoteRebalanceEntryValue",
                      "type": "int256"
                    },
                    {
                      "internalType": "int256",
                      "name": "baseRebalanceEntryValue",
                      "type": "int256"
                    },
                    {
                      "internalType": "uint256",
                      "name": "entryTradeFee0",
                      "type": "uint256"
                    },
                    {
                      "internalType": "uint256",
                      "name": "entryTradeFee1",
                      "type": "uint256"
                    }
                  ],
                  "internalType": "struct Perp.SqrtPositionStatus",
                  "name": "sqrtPerp",
                  "type": "tuple"
                },
                {
                  "components": [
                    {
                      "internalType": "int256",
                      "name": "positionAmount",
                      "type": "int256"
                    },
                    {
                      "internalType": "uint256",
                      "name": "lastFeeGrowth",
                      "type": "uint256"
                    }
                  ],
                  "internalType": "struct ScaledAsset.UserStatus",
                  "name": "underlying",
                  "type": "tuple"
                },
                {
                  "components": [
                    {
                      "internalType": "int256",
                      "name": "positionAmount",
                      "type": "int256"
                    },
                    {
                      "internalType": "uint256",
                      "name": "lastFeeGrowth",
                      "type": "uint256"
                    }
                  ],
                  "internalType": "struct ScaledAsset.UserStatus",
                  "name": "stable",
                  "type": "tuple"
                }
              ],
              "internalType": "struct Perp.UserStatus",
              "name": "openPosition",
              "type": "tuple"
            }
          ],
          "internalType": "struct DataType.Vault",
          "name": "",
          "type": "tuple"
        }
      ],
      "stateMutability": "view",
      "type": "function"
    },
    {
      "inputs": [
        {
          "internalType": "uint256",
          "name": "vaultId",
          "type": "uint256"
        }
      ],
      "name": "getVaultStatus",
      "outputs": [
        {
          "components": [
            {
              "internalType": "uint256",
              "name": "id",
              "type": "uint256"
            },
            {
              "internalType": "int256",
              "name": "vaultValue",
              "type": "int256"
            },
            {
              "internalType": "int256",
              "name": "minMargin",
              "type": "int256"
            }
          ],
          "internalType": "struct IPredyPool.VaultStatus",
          "name": "",
          "type": "tuple"
        }
      ],
      "stateMutability": "view",
      "type": "function"
    },
    {
      "inputs": [],
      "name": "globalData",
      "outputs": [
        {
          "internalType": "uint256",
          "name": "pairsCount",
          "type": "uint256"
        },
        {
          "internalType": "uint256",
          "name": "vaultCount",
          "type": "uint256"
        },
        {
          "internalType": "address",
          "name": "uniswapFactory",
          "type": "address"
        },
        {
          "components": [
            {
              "internalType": "address",
              "name": "locker",
              "type": "address"
            },
            {
              "internalType": "uint256",
              "name": "quoteReserve",
              "type": "uint256"
            },
            {
              "internalType": "uint256",
              "name": "baseReserve",
              "type": "uint256"
            },
            {
              "internalType": "uint256",
              "name": "pairId",
              "type": "uint256"
            }
          ],
          "internalType": "struct LockDataLibrary.LockData",
          "name": "lockData",
          "type": "tuple"
        }
      ],
      "stateMutability": "view",
      "type": "function"
    },
    {
      "inputs": [
        {
          "internalType": "uint256",
          "name": "pairId",
          "type": "uint256"
        },
        {
          "components": [
            {
              "internalType": "address",
              "name": "settlementContractAddress",
              "type": "address"
            },
            {
              "internalType": "bytes",
              "name": "encodedData",
              "type": "bytes"
            }
          ],
          "internalType": "struct ISettlement.SettlementData",
          "name": "settlementData",
          "type": "tuple"
        }
      ],
      "name": "reallocate",
      "outputs": [
        {
          "internalType": "bool",
          "name": "relocationOccurred",
          "type": "bool"
        }
      ],
      "stateMutability": "nonpayable",
      "type": "function"
    },
    {
      "inputs": [
        {
          "components": [
            {
              "internalType": "address",
              "name": "marginId",
              "type": "address"
            },
            {
              "internalType": "address",
              "name": "poolOwner",
              "type": "address"
            },
            {
              "internalType": "address",
              "name": "uniswapPool",
              "type": "address"
            },
            {
              "internalType": "address",
              "name": "priceFeed",
              "type": "address"
            },
            {
              "internalType": "uint8",
              "name": "fee",
              "type": "uint8"
            },
            {
              "components": [
                {
                  "internalType": "uint256",
                  "name": "riskRatio",
                  "type": "uint256"
                },
                {
                  "internalType": "int24",
                  "name": "rangeSize",
                  "type": "int24"
                },
                {
                  "internalType": "int24",
                  "name": "rebalanceThreshold",
                  "type": "int24"
                }
              ],
              "internalType": "struct Perp.AssetRiskParams",
              "name": "assetRiskParams",
              "type": "tuple"
            },
            {
              "components": [
                {
                  "internalType": "uint256",
                  "name": "baseRate",
                  "type": "uint256"
                },
                {
                  "internalType": "uint256",
                  "name": "kinkRate",
                  "type": "uint256"
                },
                {
                  "internalType": "uint256",
                  "name": "slope1",
                  "type": "uint256"
                },
                {
                  "internalType": "uint256",
                  "name": "slope2",
                  "type": "uint256"
                }
              ],
              "internalType": "struct InterestRateModel.IRMParams",
              "name": "stableIrmParams",
              "type": "tuple"
            },
            {
              "components": [
                {
                  "internalType": "uint256",
                  "name": "baseRate",
                  "type": "uint256"
                },
                {
                  "internalType": "uint256",
                  "name": "kinkRate",
                  "type": "uint256"
                },
                {
                  "internalType": "uint256",
                  "name": "slope1",
                  "type": "uint256"
                },
                {
                  "internalType": "uint256",
                  "name": "slope2",
                  "type": "uint256"
                }
              ],
              "internalType": "struct InterestRateModel.IRMParams",
              "name": "underlyingIrmParams",
              "type": "tuple"
            }
          ],
          "internalType": "struct AddPairLogic.AddPairParams",
          "name": "addPairParam",
          "type": "tuple"
        }
      ],
      "name": "registerPair",
      "outputs": [
        {
          "internalType": "uint256",
          "name": "",
          "type": "uint256"
        }
      ],
      "stateMutability": "nonpayable",
      "type": "function"
    },
    {
      "inputs": [
        {
          "internalType": "uint256",
          "name": "pairId",
          "type": "uint256"
        },
        {
          "internalType": "bool",
          "name": "isQuoteAsset",
          "type": "bool"
        },
        {
          "internalType": "uint256",
          "name": "supplyAmount",
          "type": "uint256"
        }
      ],
      "name": "supply",
      "outputs": [
        {
          "internalType": "uint256",
          "name": "finalSuppliedAmount",
          "type": "uint256"
        }
      ],
      "stateMutability": "nonpayable",
      "type": "function"
    },
    {
      "inputs": [
        {
          "internalType": "bool",
          "name": "isQuoteAsset",
          "type": "bool"
        },
        {
          "internalType": "address",
          "name": "to",
          "type": "address"
        },
        {
          "internalType": "uint256",
          "name": "amount",
          "type": "uint256"
        }
      ],
      "name": "take",
      "outputs": [],
      "stateMutability": "nonpayable",
      "type": "function"
    },
    {
      "inputs": [
        {
          "components": [
            {
              "internalType": "uint256",
              "name": "pairId",
              "type": "uint256"
            },
            {
              "internalType": "uint256",
              "name": "vaultId",
              "type": "uint256"
            },
            {
              "internalType": "int256",
              "name": "tradeAmount",
              "type": "int256"
            },
            {
              "internalType": "int256",
              "name": "tradeAmountSqrt",
              "type": "int256"
            },
            {
              "internalType": "bytes",
              "name": "extraData",
              "type": "bytes"
            }
          ],
          "internalType": "struct IPredyPool.TradeParams",
          "name": "tradeParams",
          "type": "tuple"
        },
        {
          "components": [
            {
              "internalType": "address",
              "name": "settlementContractAddress",
              "type": "address"
            },
            {
              "internalType": "bytes",
              "name": "encodedData",
              "type": "bytes"
            }
          ],
          "internalType": "struct ISettlement.SettlementData",
          "name": "settlementData",
          "type": "tuple"
        }
      ],
      "name": "trade",
      "outputs": [
        {
          "components": [
            {
              "components": [
                {
                  "internalType": "int256",
                  "name": "perpEntryUpdate",
                  "type": "int256"
                },
                {
                  "internalType": "int256",
                  "name": "sqrtEntryUpdate",
                  "type": "int256"
                },
                {
                  "internalType": "int256",
                  "name": "sqrtRebalanceEntryUpdateUnderlying",
                  "type": "int256"
                },
                {
                  "internalType": "int256",
                  "name": "sqrtRebalanceEntryUpdateStable",
                  "type": "int256"
                },
                {
                  "internalType": "int256",
                  "name": "perpPayoff",
                  "type": "int256"
                },
                {
                  "internalType": "int256",
                  "name": "sqrtPayoff",
                  "type": "int256"
                }
              ],
              "internalType": "struct IPredyPool.Payoff",
              "name": "payoff",
              "type": "tuple"
            },
            {
              "internalType": "uint256",
              "name": "vaultId",
              "type": "uint256"
            },
            {
              "internalType": "int256",
              "name": "fee",
              "type": "int256"
            },
            {
              "internalType": "int256",
              "name": "minMargin",
              "type": "int256"
            },
            {
              "internalType": "int256",
              "name": "averagePrice",
              "type": "int256"
            },
            {
              "internalType": "uint256",
              "name": "sqrtTwap",
              "type": "uint256"
            },
            {
              "internalType": "uint256",
              "name": "sqrtPrice",
              "type": "uint256"
            }
          ],
          "internalType": "struct IPredyPool.TradeResult",
          "name": "tradeResult",
          "type": "tuple"
        }
      ],
      "stateMutability": "nonpayable",
      "type": "function"
    },
    {
      "inputs": [
        {
          "internalType": "uint256",
          "name": "amount0",
          "type": "uint256"
        },
        {
          "internalType": "uint256",
          "name": "amount1",
          "type": "uint256"
        },
        {
          "internalType": "bytes",
          "name": "",
          "type": "bytes"
        }
      ],
      "name": "uniswapV3MintCallback",
      "outputs": [],
      "stateMutability": "nonpayable",
      "type": "function"
    },
    {
      "inputs": [
        {
          "internalType": "uint256",
          "name": "vaultId",
          "type": "uint256"
        },
        {
          "internalType": "int256",
          "name": "marginAmount",
          "type": "int256"
        }
      ],
      "name": "updateMargin",
      "outputs": [],
      "stateMutability": "nonpayable",
      "type": "function"
    },
    {
      "inputs": [
        {
          "internalType": "uint256",
          "name": "vaultId",
          "type": "uint256"
        },
        {
          "internalType": "address",
          "name": "recepient",
          "type": "address"
        }
      ],
      "name": "updateRecepient",
      "outputs": [],
      "stateMutability": "nonpayable",
      "type": "function"
    },
    {
      "inputs": [
        {
          "internalType": "uint256",
          "name": "pairId",
          "type": "uint256"
        },
        {
          "internalType": "bool",
          "name": "isQuoteAsset",
          "type": "bool"
        },
        {
          "internalType": "uint256",
          "name": "withdrawAmount",
          "type": "uint256"
        }
      ],
      "name": "withdraw",
      "outputs": [
        {
          "internalType": "uint256",
          "name": "finalBurnAmount",
          "type": "uint256"
        },
        {
          "internalType": "uint256",
          "name": "finalWithdrawAmount",
          "type": "uint256"
        }
      ],
      "stateMutability": "nonpayable",
      "type": "function"
    }
  ],
  "bytecode": {
    "object": "0x60806040523480156200001157600080fd5b50604051620047b6380380620047b68339810160408190526200003491620000bb565b600280546001600160a01b0319166001600160a01b03831617905560405163743b521360e11b81526000600482015273__$95910b7b93a5208ca27f4262a74795a535$__9063e876a4269060240160006040518083038186803b1580156200009b57600080fd5b505af4158015620000b0573d6000803e3d6000fd5b5050505050620000ed565b600060208284031215620000ce57600080fd5b81516001600160a01b0381168114620000e657600080fd5b9392505050565b6146b980620000fd6000396000f3fe608060405234801561001057600080fd5b50600436106101165760003560e01c80639b819b30116100a2578063c92af3ec11610071578063c92af3ec14610396578063d3487997146103b6578063db9d4a19146103c9578063e5fbab85146103dc578063f3eb8cd8146103ef57600080fd5b80639b819b301461034a578063ab4db3601461035d578063acfcd9fd14610370578063c6b6d3401461038357600080fd5b80635393e780116100e95780635393e780146101c4578063613ce410146101d95780637f223b4c1461027257806391d0370f1461029a5780639403b6341461032a57600080fd5b806318e807491461011b5780633b39b99d1461014b57806349ebb77d1461016c5780634e20a76e146101a1575b600080fd5b61012e610129366004613509565b610412565b6040516001600160a01b0390911681526020015b60405180910390f35b61015e610159366004613714565b610461565b604051908152602001610142565b61017f61017a366004613509565b6104e1565b6040805182518152602080840151908201529181015190820152606001610142565b6101b46101af3660046138a5565b610c4c565b6040519015158152602001610142565b6101d76101d23660046138eb565b610cd2565b005b600054600154600254604080516080810182526006546001600160a01b0390811682526007546020830152600854928201929092526009546060820152610224949392919091169084565b604080519485526020808601949094526001600160a01b039283168582015281519092166060808601919091529281015160808501529081015160a0840152015160c082015260e001610142565b61028561028036600461391b565b610d53565b60408051928352602083019190915201610142565b6102ad6102a8366004613953565b610ded565b60408051825180518252602080820151818401528184015183850152606080830151818501526080808401518186015260a093840151848601529186015160c0808601919091529486015160e085015285015161010084015284015161012083015283015161014082015291015161016082015261018001610142565b61033d610338366004613509565b610e7d565b60405161014291906139a2565b6102ad610358366004613ab6565b610fd6565b6101d761036b366004613b65565b611048565b61015e61037e366004613509565b6110a1565b6101d7610391366004613b95565b6113ae565b6103a96103a4366004613509565b6113fd565b6040516101429190613d6d565b6101d76103c4366004613e55565b61170d565b61015e6103d736600461391b565b611815565b61015e6103ea3660046138eb565b6118a2565b6101b46103fd366004613ed4565b600a6020526000908152604090205460ff1681565b60008181526003602052604081206021015461045b9061043a906001600160a01b03166118c4565b600084815260036020526040902060320154600160a01b900460ff16611935565b92915050565b604051635641324160e11b815260009073__$95910b7b93a5208ca27f4262a74795a535$__9063ac826482906104a0908490600a908790600401613ef1565b602060405180830381865af41580156104bd573d6000803e3d6000fd5b505050506040513d601f19601f8201168201806040525081019061045b9190613fe6565b61050560405180606001604052806000815260200160008152602001600081525090565b6000806005016000848152602001908152602001600020600501600001549050600080610c296000600301600085815260200190815260200160002060405180610160016040529081600082015481526020016001820160009054906101000a90046001600160a01b03166001600160a01b03166001600160a01b031681526020016002820160009054906101000a90046001600160a01b03166001600160a01b03166001600160a01b03168152602001600382016040518060c00160405290816000820160009054906101000a90046001600160a01b03166001600160a01b03166001600160a01b031681526020016001820160009054906101000a90046001600160a01b03166001600160a01b03166001600160a01b03168152602001600282016040518060c001604052908160008201548152602001600182015481526020016002820154815260200160038201548152602001600482015481526020016005820154815250508152602001600882016040518060800160405290816000820154815260200160018201548152602001600282015481526020016003820154815250508152602001600c8201548152602001600d820154815250508152602001601182016040518060c00160405290816000820160009054906101000a90046001600160a01b03166001600160a01b03166001600160a01b031681526020016001820160009054906101000a90046001600160a01b03166001600160a01b03166001600160a01b03168152602001600282016040518060c001604052908160008201548152602001600182015481526020016002820154815260200160038201548152602001600482015481526020016005820154815250508152602001600882016040518060800160405290816000820154815260200160018201548152602001600282015481526020016003820154815250508152602001600c8201548152602001600d820154815250508152602001601f8201604051806060016040529081600082015481526020016001820160009054906101000a900460020b60020b60020b81526020016001820160039054906101000a900460020b60020b60020b81525050815260200160218201604051806102200160405290816000820160009054906101000a90046001600160a01b03166001600160a01b03166001600160a01b031681526020016000820160149054906101000a900460020b60020b60020b81526020016000820160179054906101000a900460020b60020b60020b81526020016001820160009054906101000a90046001600160401b03166001600160401b03166001600160401b031681526020016002820154815260200160038201548152602001600482015481526020016005820154815260200160068201548152602001600782015481526020016008820154815260200160098201548152602001600a8201548152602001600b8201604051806040016040529081600082015481526020016001820154815250508152602001600d8201604051806040016040529081600082015481526020016001820154815250508152602001600f820154815260200160108201548152505081526020016032820160009054906101000a90046001600160a01b03166001600160a01b03166001600160a01b031681526020016032820160149054906101000a900460ff161515151581526020016032820160159054906101000a900460ff1660ff1660ff1681526020016033820154815250506000600401600060050160008981526020019081526020016000206040518060c0016040529081600082015481526020016001820160009054906101000a90046001600160a01b03166001600160a01b03166001600160a01b031681526020016002820160009054906101000a90046001600160a01b03166001600160a01b03166001600160a01b031681526020016003820160009054906101000a90046001600160a01b03166001600160a01b03166001600160a01b03168152602001600482015481526020016005820160405180610100016040529081600082015481526020016001820160009054906101000a900460020b60020b60020b81526020016001820160039054906101000a900460020b60020b60020b81526020016001820160069054906101000a90046001600160401b03166001600160401b03166001600160401b0316815260200160028201604051806040016040529081600082015481526020016001820154815250508152602001600482016040518060c001604052908160008201548152602001600182015481526020016002820154815260200160038201548152602001600482015481526020016005820154815250508152602001600a8201604051806040016040529081600082015481526020016001820154815250508152602001600c8201604051806040016040529081600082015481526020016001820154815250508152505081525050611962565b505060408051606081018252978852602088019190915286015250929392505050565b60405163f78c1fb560e01b815260009073__$82e740bfb21403018c74028207d6b78a82$__9063f78c1fb590610c8a90849087908790600401614076565b602060405180830381865af4158015610ca7573d6000803e3d6000fd5b505050506040513d601f19601f82011682018060405250810190610ccb919061409e565b9392505050565b610cdd600083611a05565b5060405163f66f5cc760e01b815260006004820152602481018390526044810182905273__$dce61b2ba8cb2bacc386287dc451d94595$__9063f66f5cc79060640160006040518083038186803b158015610d3757600080fd5b505af4158015610d4b573d6000803e3d6000fd5b505050505050565b604051633e16468d60e01b81526000600482018190526024820185905260448201839052831515606483015290819073__$22e71cc2a9e9de4b2967c224ed91c7d01e$__90633e16468d906084016040805180830381865af4158015610dbd573d6000803e3d6000fd5b505050506040513d601f19601f82011682018060405250810190610de191906140bb565b91509150935093915050565b610df5613187565b60405163fe8473e160e01b815273__$a1fa80d38d689cae49e54718da49b6432c$__9063fe8473e190610e33908790879060009088906004016140df565b61018060405180830381865af4158015610e51573d6000803e3d6000fd5b505050506040513d601f19601f82011682018060405250810190610e75919061410e565b949350505050565b610e856131fb565b50600090815260056020818152604092839020835160c080820186528254825260018301546001600160a01b039081168386015260028085015482168489015260038501549091166060808501919091526004850154608080860191909152885161010081018a52978601548852600686015480840b898901526301000000810490930b888a015266010000000000009092046001600160401b0316878201528751808901895260078601548152600886015481880152878301528751808401895260098601548152600a86015481880152600b860154818a0152600c86015491810191909152600d85015491810191909152600e84015460a0808301919091528087019190915286518088018852600f8501548152601085015481870152918601919091528551808701909652601183015486526012909201549285019290925260e08301939093529182015290565b610fde613187565b8251610fec90600090611a42565b6020830151835160009161100291839190611a72565b8054602086015260405163010bcadf60e21b815290915073__$bc9f384c073b2381249378965b2d698cf3$__9063042f2b7c90610e3390600090889088906004016141c6565b60006110548184611a05565b90506001600160a01b03821661107d5760405163e6c4247b60e01b815260040160405180910390fd5b60030180546001600160a01b0319166001600160a01b039290921691909117905550565b6000818152600360208181526040808420815161016080820184528254825260018301546001600160a01b0390811683870152600280850154821684870152855160c08082018852988601548316815260048601548316818901528651808a018852600587015481526006870154818a015260078701548189015260088701546060828101919091526009880154608080840191909152600a89015460a080850191909152848b019390935289518082018b52600b8a01548152600c8a0154818d0152600d8a0154818c0152600e8a01548184015284830152600f89015481850152601089015483850152818801939093528851808c018a5260118901548616815260128901548616818c01528951808d018b5260138a0154815260148a0154818d015260158a0154818c015260168a01548184015260178a01548186015260188a015481850152818b015289518085018b5260198a01548152601a8a0154818d0152601b8a0154818c0152601c8a01548184015281830152601d89015481850152601e890154818401528388015288518082018a52601f8901548152888b015480860b828d015263010000009004850b818b015282880152885161022081018a5260218901548087168252600160a01b808204870b838e0152600160b81b90910490950b818b015260228901546001600160401b0316918101919091526023880154928101929092526024870154908201526025860154818a0152602686015460e080830191909152602787015461010083810191909152602888015461012080850191909152602989015461014080860191909152602a8a015497850197909752602b8901546101808501528951808b018b52602c8a01548152602d8a0154818d01526101a08501528951808b01909a52602e8901548a52602f8901549a8a019a909a526101c083019890985260308701546101e083015260318701546102008301529885015260328501549182169784019790975260ff9681048716151594830194909452600160a81b909304909416928401929092526033909101549082015261045b90611bab565b6006546001600160a01b03163381146113ea576040516313d2c13360e21b81526001600160a01b03821660048201526024015b60405180910390fd5b6113f76000858585611c36565b50505050565b611405613251565b50600090815260036020818152604092839020835161016080820186528254825260018301546001600160a01b0390811683860152600280850154821684890152875160c08082018a529786015483168152600486015483168188015288518089018a52600587015481526006870154818901526007870154818b015260088701546060808301919091526009880154608080840191909152600a89015460a080850191909152848d01939093528b518082018d52600b8a01548152600c8a0154818c0152600d8a0154818e0152600e8a01548184015282850152600f89015481850152601089015483850152818801939093528a51808b018c5260118901548616815260128901548616818b01528b51808c018d5260138a0154815260148a0154818c015260158a0154818e015260168a01548184015260178a01548186015260188a015481850152818d01528b518085018d5260198a01548152601a8a0154818c0152601b8a0154818e0152601c8a01548184015281830152601d89015481850152601e89015481840152838801528a518082018c52601f8901548152888a015480860b828c015263010000009004850b818d0152828801528a5161022081018c5260218901548087168252600160a01b808204870b838d0152600160b81b90910490950b818d015260228901546001600160401b031691810191909152602388015492810192909252602487015490820152602586015481890152602686015460e080830191909152602787015461010080840191909152602888015461012080850191909152602989015461014080860191909152602a8a015497850197909752602b8901546101808501528b51808d018d52602c8a01548152602d8a0154818c01526101a08501528b51808d01909c52602e8901548c52602f890154998c01999099526101c083019a909a5260308701546101e083015260318701546102008301529785015260328501549182169684019690965294850460ff908116151596830196909652600160a81b90940490941691840191909152603301549082015290565b336000908152600a602052604090205460ff1661172957600080fd5b33841561179c5761179c816001600160a01b0316630dfe16816040518163ffffffff1660e01b8152600401602060405180830381865afa158015611771573d6000803e3d6000fd5b505050506040513d601f19601f820116820180604052508101906117959190614225565b3387611fdd565b831561180e5761180e816001600160a01b031663d21220a76040518163ffffffff1660e01b8152600401602060405180830381865afa1580156117e3573d6000803e3d6000fd5b505050506040513d601f19601f820116820180604052508101906118079190614225565b3386611fdd565b5050505050565b604051633ec463bf60e01b8152600060048201819052602482018590526044820183905283151560648301529073__$22e71cc2a9e9de4b2967c224ed91c7d01e$__90633ec463bf90608401602060405180830381865af415801561187e573d6000803e3d6000fd5b505050506040513d601f19601f82011682018060405250810190610e759190613fe6565b60006118ae8183611a42565b60006118bb818585611a72565b54949350505050565b6000816001600160a01b0316633850c7bd6040518163ffffffff1660e01b815260040160e060405180830381865afa158015611904573d6000803e3d6000fd5b505050506040513d601f19601f820116820180604052508101906119289190614254565b5094979650505050505050565b6000811561195b576119546001600160a01b038416600160c01b614312565b905061045b565b508161045b565b60008060008060008061197489611bab565b9250611996876119898b8b8b60a001516120d6565b60a08c015151869061216e565b919750909550909250905060006119c5620f42406119b6846107d0614326565b6119c09190614312565b612202565b9050806119d2848861433d565b6119dc919061435d565b96508480156119ed5750620f424087125b156119f957620f424096505b50505093509350935093565b6000818152600583016020526040902060028101546001600160a01b0316331461045b57604051631b65793760e01b815260040160405180910390fd5b801580611a50575081548110155b15611a6e5760405163a8c399e560e01b815260040160405180910390fd5b5050565b60008181526003840160205260408120600101546001600160a01b0316838203611b0f576001858101805460008181526005808a0160205260408220838155600281018054336001600160a01b03199182168117909255600383018054821690921790915591810189905594850180549091166001600160a01b038716179055825493955090929190611b0483614385565b919050555050611ba3565b6000848152600586016020526040902060028101549092506001600160a01b03163314611b4f57604051631b65793760e01b815260040160405180910390fd5b60018201546001600160a01b03828116911614611b7f57604051630b89b31360e21b815260040160405180910390fd5b60058201548314611ba3576040516324d0239560e11b815260040160405180910390fd5b509392505050565b60e08101516000906001600160a01b031615611c03578160e001516001600160a01b03166386e6862d6040518163ffffffff1660e01b8152600401602060405180830381865afa1580156104bd573d6000803e3d6000fd5b611c22611c178360c0015160000151612270565b836101000151611935565b6001600160a01b031692915050565b919050565b6009848101546000908152600380870160209081526040808420815161016080820184528254825260018301546001600160a01b0390811683870152600280850154821684870152855160c08082018852988601548316815260048601548316818901528651808a018852600587015481526006870154818a015260078701548189015260088701546060808301919091529b870154608080830191909152600a88015460a080840191909152838a019290925288518082018a52600b8901548152600c890154818c0152600d890154818b0152600e890154818f01528d840152600f880154818401526010880154828401528c8701929092528751808b01895260118801548516815260128801548516818b01528851808c018a52601389015481526014890154818c01526015890154818b01526016890154818f0152601789015481850152601889015481840152818a015288518084018a5260198901548152601a890154818c0152601b890154818b0152601c890154818f0152818e0152601d88015481840152601e88015481830152828701528751808d018952601f8801548152878a015480850b828c015263010000009004840b818a01528187015287516102208101895260218801548086168252600160a01b808204860b838d0152600160b81b90910490940b818a015260228801546001600160401b03169c81019c909c526023870154918c01919091526024860154908b015260258501548a890152602685015460e0808c01919091526027860154610100808d01919091526028870154610120808e01919091526029880154610140808f0191909152602a890154968e0196909652602b8801546101808e01528851808a018a52602c8901548152602d890154818c01526101a08e01528851808a01909952602e8801548952602f880154998901999099526101c08c019790975260308601546101e08c015260318601546102008c01529784019990995260328401549081169683019690965296850460ff908116151593820193909352600160a81b9094049091169183019190915260330154928101929092528415611f595750606081015151611f61565b506080810151515b60405163a9059cbb60e01b81526001600160a01b0385811660048301526024820185905282169063a9059cbb906044016020604051808303816000875af1158015611fb0573d6000803e3d6000fd5b505050506040513d601f19601f82011682018060405250810190611fd4919061409e565b50505050505050565b604080516001600160a01b038481166024830152604480830185905283518084039091018152606490920183526020820180516001600160e01b031663a9059cbb60e01b1790529151600092839290871691612039919061439e565b6000604051808303816000865af19150503d8060008114612076576040519150601f19603f3d011682016040523d82523d6000602084013e61207b565b606091505b50915091508180156120a55750805115806120a55750808060200190518101906120a5919061409e565b61180e5760405162461bcd60e51b815260206004820152600260248201526114d560f21b60448201526064016113e1565b6120fa60405180606001604052806000815260200160008152602001600081525090565b600080612108868686612285565b915091506040518060600160405280828660a0015160200151876080015160200151612134919061435d565b61213e919061435d565b815260a086015151602082015260808601515160409091019061216290859061435d565b90529695505050505050565b60008060008060008860a001519050612188878988612338565b612192908661435d565b945061219e8789612437565b6121a8908561435d565b93506121b487826124b9565b6121be90846143ba565b925081806121d057506121d0816124ff565b91508860800151856121e2919061435d565b94508860800151846121f4919061435d565b935050945094509450949050565b60006001600160ff1b0382111561226c5760405162461bcd60e51b815260206004820152602860248201527f53616665436173743a2076616c756520646f65736e27742066697420696e2061604482015267371034b73a191a9b60c11b60648201526084016113e1565b5090565b600061227e8261070861252e565b5092915050565b6000806122a78360c001518660800151604001516129bb90919063ffffffff16565b91506122c88360e001518660600151604001516129bb90919063ffffffff16565b90506000806122e187600001518860c0015188886129e6565b90925090506122f0828561435d565b93506122fc818461435d565b92505050600080612311878660a00151612aae565b9092509050612320828561435d565b935061232c818461435d565b92505050935093915050565b6001600160ff1b0360006305f5e1006123518487614326565b61235b9190614312565b905060008361236e6305f5e10088614326565b6123789190614312565b905060006123868387612437565b905083811215612394578093505b5060006123a18287612437565b9050838112156123af578093505b50600085602001511280156123c8575060008560400151135b1561242e5760008560400151600160601b87602001516123e7906143cd565b6123f19190614326565b6123fb9190614312565b9050808210801561240b57508281105b1561242c57600061241c8288612437565b90508481121561242a578094505b505b505b50509392505050565b60008060606124468580614326565b8451911c9150600160601b61245a86612202565b856020015161246991906143e9565b6124749060026143e9565b61247e9190614419565b600160601b61248c84612202565b866040015161249b91906143e9565b6124a59190614419565b6124af919061435d565b610e75919061435d565b60a081015151600090818113156124d457600091505061045b565b6060846124e0836143cd565b6124ea9190614326565b6124f5906002614326565b901c949350505050565b6000808260e0015160000151128061251c575060a0820151516000135b8061045b57505060c001515160001390565b604080516002808252606082018352600092839283929091602083019080368337019050509050838160008151811061256957612569614447565b602002602001019063ffffffff16908163ffffffff168152505060008160018151811061259857612598614447565b602002602001019063ffffffff16908163ffffffff1681525050600080866001600160a01b031663883bdbfd60e01b846040516024016125d8919061445d565b60408051601f198184030181529181526020820180516001600160e01b03166001600160e01b0319909416939093179092529051612616919061439e565b600060405180830381855afa9150503d8060008114612651576040519150601f19603f3d011682016040523d82523d6000602084013e612656565b606091505b5091509150816129365760405160206024820152600360448201526213d31160ea1b606482015260840160408051601f19818403018152919052602080820180516001600160e01b031662461bcd60e51b1781529151909120825191830191909120146126c6576126c681612b97565b600080886001600160a01b0316633850c7bd6040518163ffffffff1660e01b815260040160e060405180830381865afa158015612707573d6000803e3d6000fd5b505050506040513d601f19601f8201168201806040525081019061272b9190614254565b5050509350935050506000808a6001600160a01b031663252c09d78486600161275491906144a7565b61275e91906144c2565b6040516001600160e01b031960e084901b16815261ffff9091166004820152602401608060405180830381865afa15801561279d573d6000803e3d6000fd5b505050506040513d601f19601f820116820180604052508101906127c191906144f5565b9350505091508061283c5760405163252c09d760e01b8152600060048201526001600160a01b038c169063252c09d790602401608060405180830381865afa158015612811573d6000803e3d6000fd5b505050506040513d601f19601f8201168201806040525081019061283591906144f5565b5091935050505b61284c63ffffffff831642614559565b9950898760008151811061286257612862614447565b602002602001019063ffffffff16908163ffffffff16815250508a6001600160a01b031663883bdbfd60e01b8860405160240161289f919061445d565b60408051601f198184030181529181526020820180516001600160e01b03166001600160e01b03199094169390931790925290516128dd919061439e565b600060405180830381855afa9150503d8060008114612918576040519150601f19603f3d011682016040523d82523d6000602084013e61291d565b606091505b509096509450856129315761293185612b97565b505050505b60008180602001905181019061294c919061456c565b90506000878260008151811061296457612964614447565b60200260200101518360018151811061297f5761297f614447565b60200260200101516129919190614618565b61299b9190614645565b905060006129a882612bde565b97508896505050505050505b9250929050565b600080826000015113156129d3576119548383612f01565b6129dd8383612f63565b610ccb906143cd565b60a081015151600090819015801590612a18575084606001516001600160401b031683606001516001600160401b0316105b15612aa5576000612a2d878560600151612fce565b90506000612a428560a0015160000151612ff0565b6000838152602088905260409020600101546101e0890151919250612a7a91612a6b919061433d565b82670de0b6b3a7640000613008565b600083815260208890526040902054610200890151919550612aa091612a6b919061433d565b925050505b94509492505050565b600080600080600085600001511315612afc5784608001518660c001516101600151612ada9190614559565b91508460a001518660c001516101800151612af59190614559565b9050612b41565b845160001315612b3a5784608001518660c001516101200151612b1f9190614559565b91508460a001518660c001516101400151612af59190614559565b50506129b4565b6000612b56866000015184600160801b613008565b90506000612b6d876000015184600160801b613008565b905087610100015115612b8557819450809550612b8c565b8195508094505b505050509250929050565b805115612ba657805181602001fd5b60405162461bcd60e51b815260206004820152600d60248201526c3297b2b6b83a3c96b2b93937b960991b60448201526064016113e1565b60008060008360020b12612bf5578260020b612bfd565b8260020b6000035b9050620d89e8811115612c23576040516315e4079d60e11b815260040160405180910390fd5b600081600116600003612c3a57600160801b612c4c565b6ffffcb933bd6fad37aa2d162d1a5940015b70ffffffffffffffffffffffffffffffffff1690506002821615612c80576ffff97272373d413259a46990580e213a0260801c5b6004821615612c9f576ffff2e50f5f656932ef12357cf3c7fdcc0260801c5b6008821615612cbe576fffe5caca7e10e4e61c3624eaa0941cd00260801c5b6010821615612cdd576fffcb9843d60f6159c9db58835c9266440260801c5b6020821615612cfc576fff973b41fa98c081472e6896dfb254c00260801c5b6040821615612d1b576fff2ea16466c96a3843ec78b326b528610260801c5b6080821615612d3a576ffe5dee046a99a2a811c461f1969c30530260801c5b610100821615612d5a576ffcbe86c7900a88aedcffc83b479aa3a40260801c5b610200821615612d7a576ff987a7253ac413176f2b074cf7815e540260801c5b610400821615612d9a576ff3392b0822b70005940c7a398e4b70f30260801c5b610800821615612dba576fe7159475a2c29b7443b29c7fa6e889d90260801c5b611000821615612dda576fd097f3bdfd2022b8845ad8f792aa58250260801c5b612000821615612dfa576fa9f746462d870fdf8a65dc1f90e061e50260801c5b614000821615612e1a576f70d869a156d2a1b890bb3df62baf32f70260801c5b618000821615612e3a576f31be135f97d08fd981231505542fcfa60260801c5b62010000821615612e5b576f09aa508b5b7a84e1c677de54f3e99bc90260801c5b62020000821615612e7b576e5d6af8dedb81196699c329225ee6040260801c5b62040000821615612e9a576d2216e584f5fa1ea926041bedfe980260801c5b62080000821615612eb7576b048a170391f7dc42444e8fa20260801c5b60008460020b1315612ed8578060001981612ed457612ed46142e6565b0490505b640100000000810615612eec576001612eef565b60005b60ff16602082901c0192505050919050565b60008082600001511215612f3c5760405162461bcd60e51b8152602060048201526002602482015261533160f01b60448201526064016113e1565b610ccb82602001518460800151612f539190614559565b8351670de0b6b3a7640000613051565b60008082600001511315612f9e5760405162461bcd60e51b8152602060048201526002602482015261533160f01b60448201526064016113e1565b610ccb82602001518460a00151612fb59190614559565b8351612fc0906143cd565b670de0b6b3a764000061306f565b60006001600160401b0380831690612fe69085614326565b610ccb91906143ba565b60008082121561226c57613003826143cd565b61045b565b60008360000361301a57506000610ccb565b60008413156130355761302e848484613095565b9050610ccb565b613048613041856143cd565b8484613147565b61302e906143cd565b600082600019048411830215820261306857600080fd5b5091020490565b600082600019048411830215820261308657600080fd5b50910281810615159190040190565b60008080600019858709858702925082811083820303915050806000036130ce57600084116130c357600080fd5b508290049050610ccb565b8084116130da57600080fd5b6000848688096000868103871696879004966002600389028118808a02820302808a02820302808a02820302808a02820302808a02820302808a02909103029181900381900460010186841190950394909402919094039290920491909117919091029150509392505050565b6000613154848484613095565b905060008280613166576131666142e6565b8486091115610ccb57600019811061317d57600080fd5b6001019392505050565b6040518060e001604052806131cb6040518060c001604052806000815260200160008152602001600081526020016000815260200160008152602001600081525090565b81526020016000815260200160008152602001600081526020016000815260200160008152602001600081525090565b6040518060c001604052806000815260200160006001600160a01b0316815260200160006001600160a01b0316815260200160006001600160a01b031681526020016000815260200161324c6132e8565b905290565b6040518061016001604052806000815260200160006001600160a01b0316815260200160006001600160a01b0316815260200161328c6133a3565b81526020016132996133a3565b815260408051606081018252600080825260208281018290529282015291019081526020016132c661344b565b8152600060208201819052604082018190526060820181905260809091015290565b604080516101008101825260008082526020808301829052828401829052606083018290528351808501909452818452830152906080820190815260200161335f6040518060c001604052806000815260200160008152602001600081526020016000815260200160008152602001600081525090565b8152602001613381604051806040016040528060008152602001600081525090565b815260200161324c604051806040016040528060008152602001600081525090565b6040518060c0016040528060006001600160a01b0316815260200160006001600160a01b031681526020016134076040518060c001604052806000815260200160008152602001600081526020016000815260200160008152602001600081525090565b81526020016134376040518060800160405280600081526020016000815260200160008152602001600081525090565b815260200160008152602001600081525090565b60405180610220016040528060006001600160a01b03168152602001600060020b8152602001600060020b815260200160006001600160401b031681526020016000815260200160008152602001600081526020016000815260200160008152602001600081526020016000815260200160008152602001600081526020016134e7604051806040016040528060008152602001600081525090565b8152602001613437604051806040016040528060008152602001600081525090565b60006020828403121561351b57600080fd5b5035919050565b634e487b7160e01b600052604160045260246000fd5b60405161010081016001600160401b038111828210171561355b5761355b613522565b60405290565b60405160a081016001600160401b038111828210171561355b5761355b613522565b60405160e081016001600160401b038111828210171561355b5761355b613522565b60405160c081016001600160401b038111828210171561355b5761355b613522565b604051601f8201601f191681016001600160401b03811182821017156135ef576135ef613522565b604052919050565b6001600160a01b038116811461360c57600080fd5b50565b8035611c31816135f7565b60ff8116811461360c57600080fd5b8035611c318161361a565b8060020b811461360c57600080fd5b60006060828403121561365557600080fd5b604051606081018181106001600160401b038211171561367757613677613522565b60405282358152905080602083013561368f81613634565b602082015260408301356136a281613634565b6040919091015292915050565b6000608082840312156136c157600080fd5b604051608081018181106001600160401b03821117156136e3576136e3613522565b8060405250809150823581526020830135602082015260408301356040820152606083013560608201525092915050565b6000610200828403121561372757600080fd5b61372f613538565b6137388361360f565b81526137466020840161360f565b60208201526137576040840161360f565b60408201526137686060840161360f565b606082015261377960808401613629565b608082015261378b8460a08501613643565b60a082015261379e8461010085016136af565b60c08201526137b18461018085016136af565b60e08201529392505050565b600082601f8301126137ce57600080fd5b81356001600160401b038111156137e7576137e7613522565b6137fa601f8201601f19166020016135c7565b81815284602083860101111561380f57600080fd5b816020850160208301376000918101602001919091529392505050565b60006040828403121561383e57600080fd5b604051604081016001600160401b03828210818311171561386157613861613522565b8160405282935084359150613875826135f7565b9082526020840135908082111561388b57600080fd5b50613898858286016137bd565b6020830152505092915050565b600080604083850312156138b857600080fd5b8235915060208301356001600160401b038111156138d557600080fd5b6138e18582860161382c565b9150509250929050565b600080604083850312156138fe57600080fd5b50508035926020909101359150565b801515811461360c57600080fd5b60008060006060848603121561393057600080fd5b8335925060208401356139428161390d565b929592945050506040919091013590565b60008060006060848603121561396857600080fd5b833592506020840135915060408401356001600160401b0381111561398c57600080fd5b6139988682870161382c565b9150509250925092565b60006102a08201905082518252602083015160018060a01b03808216602085015280604086015116604085015280606086015116606085015250506080830151608083015260a0830151805160a0840152602081015160020b60c0840152604081015160020b60e08401526001600160401b036060820151166101008401526080810151613a3e61012085018280518252602090810151910152565b5060a081810151805161016086015260208082015161018087015260408201516101a087015260608201516101c087015260808201516101e087015291015161020085015260c0820151805161022086015281015161024085015260e09091015180516102608501529081015161028084015261227e565b60008060408385031215613ac957600080fd5b82356001600160401b0380821115613ae057600080fd5b9084019060a08287031215613af457600080fd5b613afc613561565b82358152602083013560208201526040830135604082015260608301356060820152608083013582811115613b3057600080fd5b613b3c888286016137bd565b60808301525093506020850135915080821115613b5857600080fd5b506138e18582860161382c565b60008060408385031215613b7857600080fd5b823591506020830135613b8a816135f7565b809150509250929050565b600080600060608486031215613baa57600080fd5b8335613bb58161390d565b92506020840135613942816135f7565b60018060a01b03808251168352806020830151166020840152506040810151805160408401526020810151606084015260408101516080840152606081015160a0840152608081015160c084015260a081015160e0840152506060810151613c52610100840182805182526020810151602083015260408101516040830152606081015160608301525050565b50608081015161018083015260a001516101a090910152565b80516001600160a01b031682526020810151613c8c602084018260020b9052565b506040810151613ca1604084018260020b9052565b506060810151613cbc60608401826001600160401b03169052565b506080818101519083015260a0808201519083015260c0808201519083015260e08082015190830152610100808201519083015261012080820151908301526101408082015190830152610160808201519083015261018080820151908301526101a08082015180518285015260208101516101c085015250506101c08101516101e0613d558185018380518252602090810151910152565b82015161022084015250610200015161024090910152565b81518152602080830151610720830191613d91908401826001600160a01b03169052565b506040830151613dac60408401826001600160a01b03169052565b506060830151613dbf6060840182613bc5565b506080830151613dd3610220840182613bc5565b5060a083015180516103e08401526020810151600290810b6104008501526040820151900b6104208401525060c0830151613e12610440840182613c6b565b5060e08301516001600160a01b03166106a083015261010083015115156106c083015261012083015160ff166106e0830152610140909201516107009091015290565b60008060008060608587031215613e6b57600080fd5b843593506020850135925060408501356001600160401b0380821115613e9057600080fd5b818701915087601f830112613ea457600080fd5b813581811115613eb357600080fd5b886020828501011115613ec557600080fd5b95989497505060200194505050565b600060208284031215613ee657600080fd5b8135610ccb816135f7565b60006102408201905084825283602083015260018060a01b03808451166040840152806020850151166060840152806040850151166080840152506060830151613f4660a08401826001600160a01b03169052565b50608083015160ff811660c08401525060a0830151805160e08401526020810151600290810b6101008501526040820151900b6101208401525060c083015180516101408401526020810151610160840152604081015161018084015260608101516101a08401525060e083015180516101c084015260208101516101e08401526040810151610200840152606081015161022084015250949350505050565b600060208284031215613ff857600080fd5b5051919050565b60005b8381101561401a578181015183820152602001614002565b50506000910152565b6000815180845261403b816020860160208601613fff565b601f01601f19169290920160200192915050565b60018060a01b0381511682526000602082015160406020850152610e756040850182614023565b838152826020820152606060408201526000614095606083018461404f565b95945050505050565b6000602082840312156140b057600080fd5b8151610ccb8161390d565b600080604083850312156140ce57600080fd5b505080516020909101519092909150565b848152836020820152826040820152608060608201526000614104608083018461404f565b9695505050505050565b600081830361018081121561412257600080fd5b61412a613583565b60c082121561413857600080fd5b6141406135a5565b9150835182526020840151602083015260408401516040830152606084015160608301526080840151608083015260a084015160a083015281815260c0840151602082015260e084015160408201526101008401516060820152610120840151608082015261014084015160a082015261016084015160c0820152809250505092915050565b838152606060208201528251606082015260208301516080820152604083015160a0820152606083015160c08201526000608084015160a060e0840152614211610100840182614023565b90508281036040840152614104818561404f565b60006020828403121561423757600080fd5b8151610ccb816135f7565b805161ffff81168114611c3157600080fd5b600080600080600080600060e0888a03121561426f57600080fd5b875161427a816135f7565b602089015190975061428b81613634565b955061429960408901614242565b94506142a760608901614242565b93506142b560808901614242565b925060a08801516142c58161361a565b60c08901519092506142d68161390d565b8091505092959891949750929550565b634e487b7160e01b600052601260045260246000fd5b634e487b7160e01b600052601160045260246000fd5b600082614321576143216142e6565b500490565b808202811582820484141761045b5761045b6142fc565b818103600083128015838313168383128216171561227e5761227e6142fc565b808201828112600083128015821682158216171561437d5761437d6142fc565b505092915050565b600060018201614397576143976142fc565b5060010190565b600082516143b0818460208701613fff565b9190910192915050565b8082018082111561045b5761045b6142fc565b6000600160ff1b82016143e2576143e26142fc565b5060000390565b80820260008212600160ff1b84141615614405576144056142fc565b818105831482151761045b5761045b6142fc565b600082614428576144286142e6565b600160ff1b821460001984141615614442576144426142fc565b500590565b634e487b7160e01b600052603260045260246000fd5b6020808252825182820181905260009190848201906040850190845b8181101561449b57835163ffffffff1683529284019291840191600101614479565b50909695505050505050565b61ffff81811683821601908082111561227e5761227e6142fc565b600061ffff808416806144d7576144d76142e6565b92169190910692915050565b8051600681900b8114611c3157600080fd5b6000806000806080858703121561450b57600080fd5b845163ffffffff8116811461451f57600080fd5b935061452d602086016144e3565b9250604085015161453d816135f7565b606086015190925061454e8161390d565b939692955090935050565b8181038181111561045b5761045b6142fc565b6000602080838503121561457f57600080fd5b82516001600160401b038082111561459657600080fd5b818501915085601f8301126145aa57600080fd5b8151818111156145bc576145bc613522565b8060051b91506145cd8483016135c7565b81815291830184019184810190888411156145e757600080fd5b938501935b8385101561460c576145fd856144e3565b825293850193908501906145ec565b98975050505050505050565b600682810b9082900b03667fffffffffffff198112667fffffffffffff8213171561045b5761045b6142fc565b60008160060b8360060b8061465c5761465c6142e6565b667fffffffffffff1982146000198214161561467a5761467a6142fc565b9005939250505056fea26469706673582212207e4692154c1885ba8e84d5a1f0f64e20458046090899a7eb0307eb1e7fd5623264736f6c63430008130033",
    "linkReferences": {
      "src/libraries/logic/AddPairLogic.sol": {
        "AddPairLogic": [
          {
            "start": 101,
            "length": 20
          },
          {
            "start": 1392,
            "length": 20
          }
        ]
      },
      "src/libraries/logic/LiquidationLogic.sol": {
        "LiquidationLogic": [
          {
            "start": 3841,
            "length": 20
          }
        ]
      },
      "src/libraries/logic/MarginLogic.sol": {
        "MarginLogic": [
          {
            "start": 3583,
            "length": 20
          }
        ]
      },
      "src/libraries/logic/ReallocationLogic.sol": {
        "ReallocationLogic": [
          {
            "start": 3419,
            "length": 20
          }
        ]
      },
      "src/libraries/logic/SupplyLogic.sol": {
        "SupplyLogic": [
          {
            "start": 3713,
            "length": 20
          },
          {
            "start": 6465,
            "length": 20
          }
        ]
      },
      "src/libraries/logic/TradeLogic.sol": {
        "TradeLogic": [
          {
            "start": 4376,
            "length": 20
          }
        ]
      }
    }
  },
  "methodIdentifiers": {
    "allowedUniswapPools(address)": "f3eb8cd8",
    "createVault(uint256,uint256)": "e5fbab85",
    "execLiquidationCall(uint256,uint256,(address,bytes))": "91d0370f",
    "getPairStatus(uint256)": "c92af3ec",
    "getSqrtIndexPrice(uint256)": "acfcd9fd",
    "getSqrtPrice(uint256)": "18e80749",
    "getVault(uint256)": "9403b634",
    "getVaultStatus(uint256)": "49ebb77d",
    "globalData()": "613ce410",
    "reallocate(uint256,(address,bytes))": "4e20a76e",
    "registerPair((address,address,address,address,uint8,(uint256,int24,int24),(uint256,uint256,uint256,uint256),(uint256,uint256,uint256,uint256)))": "3b39b99d",
    "supply(uint256,bool,uint256)": "db9d4a19",
    "take(bool,address,uint256)": "c6b6d340",
    "trade((uint256,uint256,int256,int256,bytes),(address,bytes))": "9b819b30",
    "uniswapV3MintCallback(uint256,uint256,bytes)": "d3487997",
    "updateMargin(uint256,int256)": "5393e780",
    "updateRecepient(uint256,address)": "ab4db360",
    "withdraw(uint256,bool,uint256)": "7f223b4c"
  },
  "id": 55
}