{
  "abi": [
    {
      "inputs": [
        {
          "internalType": "contract IPredyPool",
          "name": "_predyPool",
          "type": "address"
        },
        {
          "internalType": "address",
          "name": "revertSettlement",
          "type": "address"
        }
      ],
      "stateMutability": "nonpayable",
      "type": "constructor"
    },
    {
      "inputs": [],
      "name": "CallerIsNotPredyPool",
      "type": "error"
    },
    {
      "inputs": [
        {
          "components": [
            {
              "internalType": "uint256",
              "name": "pairId",
              "type": "uint256"
            },
            {
              "internalType": "uint256",
              "name": "vaultId",
              "type": "uint256"
            },
            {
              "internalType": "int256",
              "name": "tradeAmount",
              "type": "int256"
            },
            {
              "internalType": "int256",
              "name": "tradeAmountSqrt",
              "type": "int256"
            },
            {
              "internalType": "bytes",
              "name": "extraData",
              "type": "bytes"
            }
          ],
          "internalType": "struct IPredyPool.TradeParams",
          "name": "",
          "type": "tuple"
        },
        {
          "components": [
            {
              "components": [
                {
                  "internalType": "int256",
                  "name": "perpEntryUpdate",
                  "type": "int256"
                },
                {
                  "internalType": "int256",
                  "name": "sqrtEntryUpdate",
                  "type": "int256"
                },
                {
                  "internalType": "int256",
                  "name": "sqrtRebalanceEntryUpdateUnderlying",
                  "type": "int256"
                },
                {
                  "internalType": "int256",
                  "name": "sqrtRebalanceEntryUpdateStable",
                  "type": "int256"
                },
                {
                  "internalType": "int256",
                  "name": "perpPayoff",
                  "type": "int256"
                },
                {
                  "internalType": "int256",
                  "name": "sqrtPayoff",
                  "type": "int256"
                }
              ],
              "internalType": "struct IPredyPool.Payoff",
              "name": "payoff",
              "type": "tuple"
            },
            {
              "internalType": "uint256",
              "name": "vaultId",
              "type": "uint256"
            },
            {
              "internalType": "int256",
              "name": "fee",
              "type": "int256"
            },
            {
              "internalType": "int256",
              "name": "minMargin",
              "type": "int256"
            },
            {
              "internalType": "int256",
              "name": "averagePrice",
              "type": "int256"
            },
            {
              "internalType": "uint256",
              "name": "sqrtTwap",
              "type": "uint256"
            },
            {
              "internalType": "uint256",
              "name": "sqrtPrice",
              "type": "uint256"
            }
          ],
          "internalType": "struct IPredyPool.TradeResult",
          "name": "tradeResult",
          "type": "tuple"
        }
      ],
      "name": "predyTradeAfterCallback",
      "outputs": [],
      "stateMutability": "nonpayable",
      "type": "function"
    },
    {
      "inputs": [
        {
          "components": [
            {
              "internalType": "uint256",
              "name": "pairId",
              "type": "uint256"
            },
            {
              "internalType": "uint256",
              "name": "vaultId",
              "type": "uint256"
            },
            {
              "internalType": "int256",
              "name": "tradeAmount",
              "type": "int256"
            },
            {
              "internalType": "int256",
              "name": "tradeAmountSqrt",
              "type": "int256"
            },
            {
              "internalType": "bytes",
              "name": "extraData",
              "type": "bytes"
            }
          ],
          "internalType": "struct IPredyPool.TradeParams",
          "name": "tradeParams",
          "type": "tuple"
        }
      ],
      "name": "quoteBaseAmountDelta",
      "outputs": [
        {
          "internalType": "int256",
          "name": "baseAmountDelta",
          "type": "int256"
        }
      ],
      "stateMutability": "nonpayable",
      "type": "function"
    },
    {
      "inputs": [
        {
          "internalType": "uint256",
          "name": "pairId",
          "type": "uint256"
        }
      ],
      "name": "quotePairStatus",
      "outputs": [
        {
          "components": [
            {
              "internalType": "uint256",
              "name": "id",
              "type": "uint256"
            },
            {
              "internalType": "address",
              "name": "marginId",
              "type": "address"
            },
            {
              "internalType": "address",
              "name": "poolOwner",
              "type": "address"
            },
            {
              "components": [
                {
                  "internalType": "address",
                  "name": "token",
                  "type": "address"
                },
                {
                  "internalType": "address",
                  "name": "supplyTokenAddress",
                  "type": "address"
                },
                {
                  "components": [
                    {
                      "internalType": "uint256",
                      "name": "totalCompoundDeposited",
                      "type": "uint256"
                    },
                    {
                      "internalType": "uint256",
                      "name": "totalNormalDeposited",
                      "type": "uint256"
                    },
                    {
                      "internalType": "uint256",
                      "name": "totalNormalBorrowed",
                      "type": "uint256"
                    },
                    {
                      "internalType": "uint256",
                      "name": "assetScaler",
                      "type": "uint256"
                    },
                    {
                      "internalType": "uint256",
                      "name": "assetGrowth",
                      "type": "uint256"
                    },
                    {
                      "internalType": "uint256",
                      "name": "debtGrowth",
                      "type": "uint256"
                    }
                  ],
                  "internalType": "struct ScaledAsset.AssetStatus",
                  "name": "tokenStatus",
                  "type": "tuple"
                },
                {
                  "components": [
                    {
                      "internalType": "uint256",
                      "name": "baseRate",
                      "type": "uint256"
                    },
                    {
                      "internalType": "uint256",
                      "name": "kinkRate",
                      "type": "uint256"
                    },
                    {
                      "internalType": "uint256",
                      "name": "slope1",
                      "type": "uint256"
                    },
                    {
                      "internalType": "uint256",
                      "name": "slope2",
                      "type": "uint256"
                    }
                  ],
                  "internalType": "struct InterestRateModel.IRMParams",
                  "name": "irmParams",
                  "type": "tuple"
                },
                {
                  "internalType": "uint256",
                  "name": "accumulatedProtocolRevenue",
                  "type": "uint256"
                },
                {
                  "internalType": "uint256",
                  "name": "accumulatedCreatorRevenue",
                  "type": "uint256"
                }
              ],
              "internalType": "struct Perp.AssetPoolStatus",
              "name": "quotePool",
              "type": "tuple"
            },
            {
              "components": [
                {
                  "internalType": "address",
                  "name": "token",
                  "type": "address"
                },
                {
                  "internalType": "address",
                  "name": "supplyTokenAddress",
                  "type": "address"
                },
                {
                  "components": [
                    {
                      "internalType": "uint256",
                      "name": "totalCompoundDeposited",
                      "type": "uint256"
                    },
                    {
                      "internalType": "uint256",
                      "name": "totalNormalDeposited",
                      "type": "uint256"
                    },
                    {
                      "internalType": "uint256",
                      "name": "totalNormalBorrowed",
                      "type": "uint256"
                    },
                    {
                      "internalType": "uint256",
                      "name": "assetScaler",
                      "type": "uint256"
                    },
                    {
                      "internalType": "uint256",
                      "name": "assetGrowth",
                      "type": "uint256"
                    },
                    {
                      "internalType": "uint256",
                      "name": "debtGrowth",
                      "type": "uint256"
                    }
                  ],
                  "internalType": "struct ScaledAsset.AssetStatus",
                  "name": "tokenStatus",
                  "type": "tuple"
                },
                {
                  "components": [
                    {
                      "internalType": "uint256",
                      "name": "baseRate",
                      "type": "uint256"
                    },
                    {
                      "internalType": "uint256",
                      "name": "kinkRate",
                      "type": "uint256"
                    },
                    {
                      "internalType": "uint256",
                      "name": "slope1",
                      "type": "uint256"
                    },
                    {
                      "internalType": "uint256",
                      "name": "slope2",
                      "type": "uint256"
                    }
                  ],
                  "internalType": "struct InterestRateModel.IRMParams",
                  "name": "irmParams",
                  "type": "tuple"
                },
                {
                  "internalType": "uint256",
                  "name": "accumulatedProtocolRevenue",
                  "type": "uint256"
                },
                {
                  "internalType": "uint256",
                  "name": "accumulatedCreatorRevenue",
                  "type": "uint256"
                }
              ],
              "internalType": "struct Perp.AssetPoolStatus",
              "name": "basePool",
              "type": "tuple"
            },
            {
              "components": [
                {
                  "internalType": "uint256",
                  "name": "riskRatio",
                  "type": "uint256"
                },
                {
                  "internalType": "int24",
                  "name": "rangeSize",
                  "type": "int24"
                },
                {
                  "internalType": "int24",
                  "name": "rebalanceThreshold",
                  "type": "int24"
                }
              ],
              "internalType": "struct Perp.AssetRiskParams",
              "name": "riskParams",
              "type": "tuple"
            },
            {
              "components": [
                {
                  "internalType": "address",
                  "name": "uniswapPool",
                  "type": "address"
                },
                {
                  "internalType": "int24",
                  "name": "tickLower",
                  "type": "int24"
                },
                {
                  "internalType": "int24",
                  "name": "tickUpper",
                  "type": "int24"
                },
                {
                  "internalType": "uint64",
                  "name": "numRebalance",
                  "type": "uint64"
                },
                {
                  "internalType": "uint256",
                  "name": "totalAmount",
                  "type": "uint256"
                },
                {
                  "internalType": "uint256",
                  "name": "borrowedAmount",
                  "type": "uint256"
                },
                {
                  "internalType": "uint256",
                  "name": "lastRebalanceTotalSquartAmount",
                  "type": "uint256"
                },
                {
                  "internalType": "uint256",
                  "name": "lastFee0Growth",
                  "type": "uint256"
                },
                {
                  "internalType": "uint256",
                  "name": "lastFee1Growth",
                  "type": "uint256"
                },
                {
                  "internalType": "uint256",
                  "name": "borrowPremium0Growth",
                  "type": "uint256"
                },
                {
                  "internalType": "uint256",
                  "name": "borrowPremium1Growth",
                  "type": "uint256"
                },
                {
                  "internalType": "uint256",
                  "name": "fee0Growth",
                  "type": "uint256"
                },
                {
                  "internalType": "uint256",
                  "name": "fee1Growth",
                  "type": "uint256"
                },
                {
                  "components": [
                    {
                      "internalType": "int256",
                      "name": "positionAmount",
                      "type": "int256"
                    },
                    {
                      "internalType": "uint256",
                      "name": "lastFeeGrowth",
                      "type": "uint256"
                    }
                  ],
                  "internalType": "struct ScaledAsset.UserStatus",
                  "name": "rebalancePositionUnderlying",
                  "type": "tuple"
                },
                {
                  "components": [
                    {
                      "internalType": "int256",
                      "name": "positionAmount",
                      "type": "int256"
                    },
                    {
                      "internalType": "uint256",
                      "name": "lastFeeGrowth",
                      "type": "uint256"
                    }
                  ],
                  "internalType": "struct ScaledAsset.UserStatus",
                  "name": "rebalancePositionStable",
                  "type": "tuple"
                },
                {
                  "internalType": "int256",
                  "name": "rebalanceFeeGrowthUnderlying",
                  "type": "int256"
                },
                {
                  "internalType": "int256",
                  "name": "rebalanceFeeGrowthStable",
                  "type": "int256"
                }
              ],
              "internalType": "struct Perp.SqrtPerpAssetStatus",
              "name": "sqrtAssetStatus",
              "type": "tuple"
            },
            {
              "internalType": "address",
              "name": "priceFeed",
              "type": "address"
            },
            {
              "internalType": "bool",
              "name": "isMarginZero",
              "type": "bool"
            },
            {
              "internalType": "uint8",
              "name": "feeRatio",
              "type": "uint8"
            },
            {
              "internalType": "uint256",
              "name": "lastUpdateTimestamp",
              "type": "uint256"
            }
          ],
          "internalType": "struct Perp.PairStatus",
          "name": "pairStatus",
          "type": "tuple"
        }
      ],
      "stateMutability": "nonpayable",
      "type": "function"
    },
    {
      "inputs": [
        {
          "components": [
            {
              "internalType": "uint256",
              "name": "pairId",
              "type": "uint256"
            },
            {
              "internalType": "uint256",
              "name": "vaultId",
              "type": "uint256"
            },
            {
              "internalType": "int256",
              "name": "tradeAmount",
              "type": "int256"
            },
            {
              "internalType": "int256",
              "name": "tradeAmountSqrt",
              "type": "int256"
            },
            {
              "internalType": "bytes",
              "name": "extraData",
              "type": "bytes"
            }
          ],
          "internalType": "struct IPredyPool.TradeParams",
          "name": "tradeParams",
          "type": "tuple"
        },
        {
          "components": [
            {
              "internalType": "address",
              "name": "settlementContractAddress",
              "type": "address"
            },
            {
              "internalType": "bytes",
              "name": "encodedData",
              "type": "bytes"
            }
          ],
          "internalType": "struct ISettlement.SettlementData",
          "name": "settlementData",
          "type": "tuple"
        }
      ],
      "name": "quoteTrade",
      "outputs": [
        {
          "components": [
            {
              "components": [
                {
                  "internalType": "int256",
                  "name": "perpEntryUpdate",
                  "type": "int256"
                },
                {
                  "internalType": "int256",
                  "name": "sqrtEntryUpdate",
                  "type": "int256"
                },
                {
                  "internalType": "int256",
                  "name": "sqrtRebalanceEntryUpdateUnderlying",
                  "type": "int256"
                },
                {
                  "internalType": "int256",
                  "name": "sqrtRebalanceEntryUpdateStable",
                  "type": "int256"
                },
                {
                  "internalType": "int256",
                  "name": "perpPayoff",
                  "type": "int256"
                },
                {
                  "internalType": "int256",
                  "name": "sqrtPayoff",
                  "type": "int256"
                }
              ],
              "internalType": "struct IPredyPool.Payoff",
              "name": "payoff",
              "type": "tuple"
            },
            {
              "internalType": "uint256",
              "name": "vaultId",
              "type": "uint256"
            },
            {
              "internalType": "int256",
              "name": "fee",
              "type": "int256"
            },
            {
              "internalType": "int256",
              "name": "minMargin",
              "type": "int256"
            },
            {
              "internalType": "int256",
              "name": "averagePrice",
              "type": "int256"
            },
            {
              "internalType": "uint256",
              "name": "sqrtTwap",
              "type": "uint256"
            },
            {
              "internalType": "uint256",
              "name": "sqrtPrice",
              "type": "uint256"
            }
          ],
          "internalType": "struct IPredyPool.TradeResult",
          "name": "tradeResult",
          "type": "tuple"
        }
      ],
      "stateMutability": "nonpayable",
      "type": "function"
    },
    {
      "inputs": [
        {
          "internalType": "uint256",
          "name": "vaultId",
          "type": "uint256"
        }
      ],
      "name": "quoteVaultStatus",
      "outputs": [
        {
          "components": [
            {
              "internalType": "uint256",
              "name": "id",
              "type": "uint256"
            },
            {
              "internalType": "int256",
              "name": "vaultValue",
              "type": "int256"
            },
            {
              "internalType": "int256",
              "name": "minMargin",
              "type": "int256"
            }
          ],
          "internalType": "struct IPredyPool.VaultStatus",
          "name": "vaultStatus",
          "type": "tuple"
        }
      ],
      "stateMutability": "nonpayable",
      "type": "function"
    }
  ],
  "bytecode": {
    "object": "0x608060405234801561001057600080fd5b5060405161155738038061155783398101604081905261002f91610078565b600080546001600160a01b039384166001600160a01b031991821617909155600180549290931691161790556100b2565b6001600160a01b038116811461007557600080fd5b50565b6000806040838503121561008b57600080fd5b825161009681610060565b60208401519092506100a781610060565b809150509250929050565b611496806100c16000396000f3fe608060405234801561001057600080fd5b50600436106100575760003560e01c8063255b50861461005c5780632882d8b41461008557806370577e20146100a5578063944b560b146100da5780639b46f7ef146100ef575b600080fd5b61006f61006a36600461079d565b610110565b60405161007c919061095e565b60405180910390f35b610098610093366004610c60565b6101b5565b60405161007c9190610d06565b6100b86100b336600461079d565b610278565b604080518251815260208084015190820152918101519082015260600161007c565b6100ed6100e8366004610d8e565b610330565b005b6101026100fd366004610e84565b610387565b60405190815260200161007c565b61011861052c565b600054604051631daf2c1960e01b8152600481018490526001600160a01b0390911690631daf2c1990602401600060405180830381600087803b15801561015e57600080fd5b505af192505050801561016f575060015b6101b0573d80801561019d576040519150601f19603f3d011682016040523d82523d6000602084013e6101a2565b606091505b506101ac8161045e565b9150505b919050565b6101bd6105c3565b6000546040516309b819b360e41b81526001600160a01b0390911690639b819b30906101ef9086908690600401610f06565b610180604051808303816000875af192505050801561022b575060408051601f3d908101601f1916820190925261022891810190610f83565b60015b610270573d808015610259576040519150601f19603f3d011682016040523d82523d6000602084013e61025e565b606091505b506102688161048c565b915050610272565b505b92915050565b61029c60405180606001604052806000815260200160008152602001600081525090565b60005460405163360125f160e01b8152600481018490526001600160a01b039091169063360125f190602401600060405180830381600087803b1580156102e257600080fd5b505af19250505080156102f3575060015b6101b0573d808015610321576040519150601f19603f3d011682016040523d82523d6000602084013e610326565b606091505b506101ac816104ba565b6000546001600160a01b0316331461035b57604051637542ed5d60e11b815260040160405180910390fd5b60008160405160200161036e9190610d06565b6040516020818303038152906040529050805181602001fd5b600080546040805180820182526001546001600160a01b03908116825282516020818101855286825283015291516309b819b360e41b81529190921691639b819b30916103d8918691600401610f06565b610180604051808303816000875af1925050508015610414575060408051601f3d908101601f1916820190925261041191810190610f83565b60015b610458573d808015610442576040519150601f19603f3d011682016040523d82523d6000602084013e610447565b606091505b5061045181610504565b9392505050565b50919050565b61046661052c565b60c08251101561047857815182602001fd5b818060200190518101906102729190611333565b6104946105c3565b60c0825110156104a657815182602001fd5b818060200190518101906102729190610f83565b6104de60405180606001604052806000815260200160008152602001600081525090565b60c0825110156104f057815182602001fd5b81806020019051810190610272919061140b565b600060c08251101561051857815182602001fd5b818060200190518101906102729190611447565b6040518061016001604052806000815260200160006001600160a01b0316815260200160006001600160a01b03168152602001610567610637565b8152602001610574610637565b815260408051606081018252600080825260208281018290529282015291019081526020016105a16106df565b8152600060208201819052604082018190526060820181905260809091015290565b6040518060e001604052806106076040518060c001604052806000815260200160008152602001600081526020016000815260200160008152602001600081525090565b81526020016000815260200160008152602001600081526020016000815260200160008152602001600081525090565b6040518060c0016040528060006001600160a01b0316815260200160006001600160a01b0316815260200161069b6040518060c001604052806000815260200160008152602001600081526020016000815260200160008152602001600081525090565b81526020016106cb6040518060800160405280600081526020016000815260200160008152602001600081525090565b815260200160008152602001600081525090565b60405180610220016040528060006001600160a01b03168152602001600060020b8152602001600060020b815260200160006001600160401b0316815260200160008152602001600081526020016000815260200160008152602001600081526020016000815260200160008152602001600081526020016000815260200161077b604051806040016040528060008152602001600081525090565b81526020016106cb604051806040016040528060008152602001600081525090565b6000602082840312156107af57600080fd5b5035919050565b60018060a01b03808251168352806020830151166020840152506040810151805160408401526020810151606084015260408101516080840152606081015160a0840152608081015160c084015260a081015160e0840152506060810151610843610100840182805182526020810151602083015260408101516040830152606081015160608301525050565b50608081015161018083015260a001516101a090910152565b80516001600160a01b03168252602081015161087d602084018260020b9052565b506040810151610892604084018260020b9052565b5060608101516108ad60608401826001600160401b03169052565b506080818101519083015260a0808201519083015260c0808201519083015260e08082015190830152610100808201519083015261012080820151908301526101408082015190830152610160808201519083015261018080820151908301526101a08082015180518285015260208101516101c085015250506101c08101516101e06109468185018380518252602090810151910152565b82015161022084015250610200015161024090910152565b81518152602080830151610720830191610982908401826001600160a01b03169052565b50604083015161099d60408401826001600160a01b03169052565b5060608301516109b060608401826107b6565b5060808301516109c46102208401826107b6565b5060a083015180516103e08401526020810151600290810b6104008501526040820151900b6104208401525060c0830151610a0361044084018261085c565b5060e08301516001600160a01b03166106a083015261010083015115156106c083015261012083015160ff166106e0830152610140909201516107009091015290565b634e487b7160e01b600052604160045260246000fd5b604080519081016001600160401b0381118282101715610a7e57610a7e610a46565b60405290565b60405160e081016001600160401b0381118282101715610a7e57610a7e610a46565b60405160c081016001600160401b0381118282101715610a7e57610a7e610a46565b604051606081016001600160401b0381118282101715610a7e57610a7e610a46565b60405161022081016001600160401b0381118282101715610a7e57610a7e610a46565b60405161016081016001600160401b0381118282101715610a7e57610a7e610a46565b600082601f830112610b4157600080fd5b81356001600160401b0380821115610b5b57610b5b610a46565b604051601f8301601f19908116603f01168101908282118183101715610b8357610b83610a46565b81604052838152866020858801011115610b9c57600080fd5b836020870160208301376000602085830101528094505050505092915050565b600060a08284031215610bce57600080fd5b60405160a081016001600160401b038282108183111715610bf157610bf1610a46565b81604052829350843583526020850135602084015260408501356040840152606085013560608401526080850135915080821115610c2e57600080fd5b50610c3b85828601610b30565b6080830152505092915050565b6001600160a01b0381168114610c5d57600080fd5b50565b60008060408385031215610c7357600080fd5b82356001600160401b0380821115610c8a57600080fd5b610c9686838701610bbc565b93506020850135915080821115610cac57600080fd5b9084019060408287031215610cc057600080fd5b610cc8610a5c565b8235610cd381610c48565b8152602083013582811115610ce757600080fd5b610cf388828601610b30565b6020830152508093505050509250929050565b6000610180820190508251805183526020810151602084015260408101516040840152606081015160608401526080810151608084015260a081015160a084015250602083015160c0830152604083015160e08301526060830151610100830152608083015161012083015260a083015161014083015260c083015161016083015292915050565b6000808284036101a0811215610da357600080fd5b83356001600160401b03811115610db957600080fd5b610dc586828701610bbc565b935050601f190161018080821215610ddc57600080fd5b610de4610a84565b60c0831215610df257600080fd5b610dfa610aa6565b92506020860135835260408601356020840152606086013560408401526080860135606084015260a0860135608084015260c086013560a084015282815260e0860135602082015261010086013560408201526101208601356060820152610140860135608082015261016086013560a08201528186013560c08201528093505050509250929050565b600060208284031215610e9657600080fd5b81356001600160401b03811115610eac57600080fd5b610eb884828501610bbc565b949350505050565b6000815180845260005b81811015610ee657602081850181015186830182015201610eca565b506000602082860101526020601f19601f83011685010191505092915050565b60408152825160408201526020830151606082015260408301516080820152606083015160a08201526000608084015160a060c0840152610f4a60e0840182610ec0565b9050828103602084015260018060a01b038451168152602084015160406020830152610f796040830182610ec0565b9695505050505050565b6000818303610180811215610f9757600080fd5b610f9f610a84565b60c0821215610fad57600080fd5b610fb5610aa6565b9150835182526020840151602083015260408401516040830152606084015160608301526080840151608083015260a084015160a083015281815260c0840151602082015260e084015160408201526101008401516060820152610120840151608082015261014084015160a082015261016084015160c0820152809250505092915050565b80516101b081610c48565b60006080828403121561105857600080fd5b604051608081018181106001600160401b038211171561107a5761107a610a46565b8060405250809150825181526020830151602082015260408301516040820152606083015160608201525092915050565b60008183036101c08112156110bf57600080fd5b6110c7610aa6565b915082516110d481610c48565b825260208301516110e481610c48565b602083015260c0603f19820112156110fb57600080fd5b50611104610aa6565b60408301518152606083015160208201526080830151604082015260a0830151606082015260c0830151608082015260e083015160a082015280604083015250611152836101008401611046565b606082015261018082015160808201526101a082015160a082015292915050565b8051600281900b81146101b057600080fd5b60006060828403121561119757600080fd5b61119f610ac8565b9050815181526111b160208301611173565b60208201526111c260408301611173565b604082015292915050565b80516001600160401b03811681146101b057600080fd5b6000604082840312156111f657600080fd5b6111fe610a5c565b9050815181526020820151602082015292915050565b6000610260828403121561122757600080fd5b61122f610aea565b905061123a8261103b565b815261124860208301611173565b602082015261125960408301611173565b604082015261126a606083016111cd565b60608201526080828101519082015260a0808301519082015260c0808301519082015260e08083015190820152610100808301519082015261012080830151908201526101408083015190820152610160808301519082015261018080830151908201526101a06112dd848285016111e4565b908201526101e06112f0848483016111e4565b6101c08301526102208301519082015261024090910151610200820152919050565b805180151581146101b057600080fd5b805160ff811681146101b057600080fd5b6000610720828403121561134657600080fd5b61134e610b0d565b8251815261135e6020840161103b565b602082015261136f6040840161103b565b604082015261138184606085016110ab565b60608201526113948461022085016110ab565b60808201526113a7846103e08501611185565b60a08201526113ba846104408501611214565b60c08201526113cc6106a0840161103b565b60e08201526113de6106c08401611312565b6101008201526113f16106e08401611322565b610120820152610700929092015161014083015250919050565b60006060828403121561141d57600080fd5b611425610ac8565b8251815260208301516020820152604083015160408201528091505092915050565b60006020828403121561145957600080fd5b505191905056fea2646970667358221220fb0e9c4674f74def11be12f30d419b7a2fc79c3ef74678acd3e1416ba360ad4364736f6c63430008130033",
    "linkReferences": {}
  },
  "methodIdentifiers": {
    "predyTradeAfterCallback((uint256,uint256,int256,int256,bytes),((int256,int256,int256,int256,int256,int256),uint256,int256,int256,int256,uint256,uint256))": "944b560b",
    "quoteBaseAmountDelta((uint256,uint256,int256,int256,bytes))": "9b46f7ef",
    "quotePairStatus(uint256)": "255b5086",
    "quoteTrade((uint256,uint256,int256,int256,bytes),(address,bytes))": "2882d8b4",
    "quoteVaultStatus(uint256)": "70577e20"
  },
  "id": 65
}