{
  "abi": [
    {
      "inputs": [
        {
          "internalType": "address",
          "name": "uniswapFactory",
          "type": "address"
        }
      ],
      "stateMutability": "nonpayable",
      "type": "constructor"
    },
    {
      "inputs": [],
      "name": "CallerIsNotVaultOwner",
      "type": "error"
    },
    {
      "inputs": [],
      "name": "CurrencyNotSettled",
      "type": "error"
    },
    {
      "inputs": [],
      "name": "InvalidAddress",
      "type": "error"
    },
    {
      "inputs": [],
      "name": "InvalidAmount",
      "type": "error"
    },
    {
      "inputs": [],
      "name": "InvalidPairId",
      "type": "error"
    },
    {
      "inputs": [
        {
          "internalType": "address",
          "name": "locker",
          "type": "address"
        }
      ],
      "name": "LockedBy",
      "type": "error"
    },
    {
      "inputs": [],
      "name": "T",
      "type": "error"
    },
    {
      "inputs": [],
      "name": "VaultAlreadyHasAnotherMarginId",
      "type": "error"
    },
    {
      "inputs": [],
      "name": "VaultAlreadyHasAnotherPair",
      "type": "error"
    },
    {
      "inputs": [],
      "name": "VaultIsNotDanger",
      "type": "error"
    },
    {
      "inputs": [
        {
          "internalType": "address",
          "name": "",
          "type": "address"
        }
      ],
      "name": "allowedUniswapPools",
      "outputs": [
        {
          "internalType": "bool",
          "name": "",
          "type": "bool"
        }
      ],
      "stateMutability": "view",
      "type": "function"
    },
    {
      "inputs": [
        {
          "internalType": "uint256",
          "name": "pairId",
          "type": "uint256"
        }
      ],
      "name": "createVault",
      "outputs": [
        {
          "internalType": "uint256",
          "name": "",
          "type": "uint256"
        }
      ],
      "stateMutability": "nonpayable",
      "type": "function"
    },
    {
      "inputs": [
        {
          "internalType": "uint256",
          "name": "vaultId",
          "type": "uint256"
        },
        {
          "internalType": "uint256",
          "name": "closeRatio",
          "type": "uint256"
        },
        {
          "components": [
            {
              "internalType": "address",
              "name": "settlementContractAddress",
              "type": "address"
            },
            {
              "internalType": "bytes",
              "name": "encodedData",
              "type": "bytes"
            }
          ],
          "internalType": "struct ISettlement.SettlementData",
          "name": "settlementData",
          "type": "tuple"
        }
      ],
      "name": "execLiquidationCall",
      "outputs": [
        {
          "components": [
            {
              "components": [
                {
                  "internalType": "int256",
                  "name": "perpEntryUpdate",
                  "type": "int256"
                },
                {
                  "internalType": "int256",
                  "name": "sqrtEntryUpdate",
                  "type": "int256"
                },
                {
                  "internalType": "int256",
                  "name": "sqrtRebalanceEntryUpdateUnderlying",
                  "type": "int256"
                },
                {
                  "internalType": "int256",
                  "name": "sqrtRebalanceEntryUpdateStable",
                  "type": "int256"
                },
                {
                  "internalType": "int256",
                  "name": "perpPayoff",
                  "type": "int256"
                },
                {
                  "internalType": "int256",
                  "name": "sqrtPayoff",
                  "type": "int256"
                }
              ],
              "internalType": "struct IPredyPool.Payoff",
              "name": "payoff",
              "type": "tuple"
            },
            {
              "internalType": "uint256",
              "name": "vaultId",
              "type": "uint256"
            },
            {
              "internalType": "int256",
              "name": "fee",
              "type": "int256"
            },
            {
              "internalType": "int256",
              "name": "minMargin",
              "type": "int256"
            },
            {
              "internalType": "int256",
              "name": "averagePrice",
              "type": "int256"
            },
            {
              "internalType": "uint256",
              "name": "sqrtTwap",
              "type": "uint256"
            },
            {
              "internalType": "uint256",
              "name": "sqrtPrice",
              "type": "uint256"
            }
          ],
          "internalType": "struct IPredyPool.TradeResult",
          "name": "tradeResult",
          "type": "tuple"
        }
      ],
      "stateMutability": "nonpayable",
      "type": "function"
    },
    {
      "inputs": [
        {
          "internalType": "uint256",
          "name": "pairId",
          "type": "uint256"
        }
      ],
      "name": "getPairStatus",
      "outputs": [
        {
          "components": [
            {
              "internalType": "uint256",
              "name": "id",
              "type": "uint256"
            },
            {
              "internalType": "address",
              "name": "marginId",
              "type": "address"
            },
            {
              "internalType": "address",
              "name": "poolOwner",
              "type": "address"
            },
            {
              "components": [
                {
                  "internalType": "address",
                  "name": "token",
                  "type": "address"
                },
                {
                  "internalType": "address",
                  "name": "supplyTokenAddress",
                  "type": "address"
                },
                {
                  "components": [
                    {
                      "internalType": "uint256",
                      "name": "totalCompoundDeposited",
                      "type": "uint256"
                    },
                    {
                      "internalType": "uint256",
                      "name": "totalNormalDeposited",
                      "type": "uint256"
                    },
                    {
                      "internalType": "uint256",
                      "name": "totalNormalBorrowed",
                      "type": "uint256"
                    },
                    {
                      "internalType": "uint256",
                      "name": "assetScaler",
                      "type": "uint256"
                    },
                    {
                      "internalType": "uint256",
                      "name": "assetGrowth",
                      "type": "uint256"
                    },
                    {
                      "internalType": "uint256",
                      "name": "debtGrowth",
                      "type": "uint256"
                    }
                  ],
                  "internalType": "struct ScaledAsset.AssetStatus",
                  "name": "tokenStatus",
                  "type": "tuple"
                },
                {
                  "components": [
                    {
                      "internalType": "uint256",
                      "name": "baseRate",
                      "type": "uint256"
                    },
                    {
                      "internalType": "uint256",
                      "name": "kinkRate",
                      "type": "uint256"
                    },
                    {
                      "internalType": "uint256",
                      "name": "slope1",
                      "type": "uint256"
                    },
                    {
                      "internalType": "uint256",
                      "name": "slope2",
                      "type": "uint256"
                    }
                  ],
                  "internalType": "struct InterestRateModel.IRMParams",
                  "name": "irmParams",
                  "type": "tuple"
                },
                {
                  "internalType": "uint256",
                  "name": "accumulatedProtocolRevenue",
                  "type": "uint256"
                },
                {
                  "internalType": "uint256",
                  "name": "accumulatedCreatorRevenue",
                  "type": "uint256"
                }
              ],
              "internalType": "struct Perp.AssetPoolStatus",
              "name": "quotePool",
              "type": "tuple"
            },
            {
              "components": [
                {
                  "internalType": "address",
                  "name": "token",
                  "type": "address"
                },
                {
                  "internalType": "address",
                  "name": "supplyTokenAddress",
                  "type": "address"
                },
                {
                  "components": [
                    {
                      "internalType": "uint256",
                      "name": "totalCompoundDeposited",
                      "type": "uint256"
                    },
                    {
                      "internalType": "uint256",
                      "name": "totalNormalDeposited",
                      "type": "uint256"
                    },
                    {
                      "internalType": "uint256",
                      "name": "totalNormalBorrowed",
                      "type": "uint256"
                    },
                    {
                      "internalType": "uint256",
                      "name": "assetScaler",
                      "type": "uint256"
                    },
                    {
                      "internalType": "uint256",
                      "name": "assetGrowth",
                      "type": "uint256"
                    },
                    {
                      "internalType": "uint256",
                      "name": "debtGrowth",
                      "type": "uint256"
                    }
                  ],
                  "internalType": "struct ScaledAsset.AssetStatus",
                  "name": "tokenStatus",
                  "type": "tuple"
                },
                {
                  "components": [
                    {
                      "internalType": "uint256",
                      "name": "baseRate",
                      "type": "uint256"
                    },
                    {
                      "internalType": "uint256",
                      "name": "kinkRate",
                      "type": "uint256"
                    },
                    {
                      "internalType": "uint256",
                      "name": "slope1",
                      "type": "uint256"
                    },
                    {
                      "internalType": "uint256",
                      "name": "slope2",
                      "type": "uint256"
                    }
                  ],
                  "internalType": "struct InterestRateModel.IRMParams",
                  "name": "irmParams",
                  "type": "tuple"
                },
                {
                  "internalType": "uint256",
                  "name": "accumulatedProtocolRevenue",
                  "type": "uint256"
                },
                {
                  "internalType": "uint256",
                  "name": "accumulatedCreatorRevenue",
                  "type": "uint256"
                }
              ],
              "internalType": "struct Perp.AssetPoolStatus",
              "name": "basePool",
              "type": "tuple"
            },
            {
              "components": [
                {
                  "internalType": "uint256",
                  "name": "riskRatio",
                  "type": "uint256"
                },
                {
                  "internalType": "int24",
                  "name": "rangeSize",
                  "type": "int24"
                },
                {
                  "internalType": "int24",
                  "name": "rebalanceThreshold",
                  "type": "int24"
                }
              ],
              "internalType": "struct Perp.AssetRiskParams",
              "name": "riskParams",
              "type": "tuple"
            },
            {
              "components": [
                {
                  "internalType": "address",
                  "name": "uniswapPool",
                  "type": "address"
                },
                {
                  "internalType": "int24",
                  "name": "tickLower",
                  "type": "int24"
                },
                {
                  "internalType": "int24",
                  "name": "tickUpper",
                  "type": "int24"
                },
                {
                  "internalType": "uint64",
                  "name": "numRebalance",
                  "type": "uint64"
                },
                {
                  "internalType": "uint256",
                  "name": "totalAmount",
                  "type": "uint256"
                },
                {
                  "internalType": "uint256",
                  "name": "borrowedAmount",
                  "type": "uint256"
                },
                {
                  "internalType": "uint256",
                  "name": "lastRebalanceTotalSquartAmount",
                  "type": "uint256"
                },
                {
                  "internalType": "uint256",
                  "name": "lastFee0Growth",
                  "type": "uint256"
                },
                {
                  "internalType": "uint256",
                  "name": "lastFee1Growth",
                  "type": "uint256"
                },
                {
                  "internalType": "uint256",
                  "name": "borrowPremium0Growth",
                  "type": "uint256"
                },
                {
                  "internalType": "uint256",
                  "name": "borrowPremium1Growth",
                  "type": "uint256"
                },
                {
                  "internalType": "uint256",
                  "name": "fee0Growth",
                  "type": "uint256"
                },
                {
                  "internalType": "uint256",
                  "name": "fee1Growth",
                  "type": "uint256"
                },
                {
                  "components": [
                    {
                      "internalType": "int256",
                      "name": "positionAmount",
                      "type": "int256"
                    },
                    {
                      "internalType": "uint256",
                      "name": "lastFeeGrowth",
                      "type": "uint256"
                    }
                  ],
                  "internalType": "struct ScaledAsset.UserStatus",
                  "name": "rebalancePositionUnderlying",
                  "type": "tuple"
                },
                {
                  "components": [
                    {
                      "internalType": "int256",
                      "name": "positionAmount",
                      "type": "int256"
                    },
                    {
                      "internalType": "uint256",
                      "name": "lastFeeGrowth",
                      "type": "uint256"
                    }
                  ],
                  "internalType": "struct ScaledAsset.UserStatus",
                  "name": "rebalancePositionStable",
                  "type": "tuple"
                },
                {
                  "internalType": "int256",
                  "name": "rebalanceFeeGrowthUnderlying",
                  "type": "int256"
                },
                {
                  "internalType": "int256",
                  "name": "rebalanceFeeGrowthStable",
                  "type": "int256"
                }
              ],
              "internalType": "struct Perp.SqrtPerpAssetStatus",
              "name": "sqrtAssetStatus",
              "type": "tuple"
            },
            {
              "internalType": "address",
              "name": "priceFeed",
              "type": "address"
            },
            {
              "internalType": "bool",
              "name": "isMarginZero",
              "type": "bool"
            },
            {
              "internalType": "uint8",
              "name": "feeRatio",
              "type": "uint8"
            },
            {
              "internalType": "uint256",
              "name": "lastUpdateTimestamp",
              "type": "uint256"
            }
          ],
          "internalType": "struct Perp.PairStatus",
          "name": "",
          "type": "tuple"
        }
      ],
      "stateMutability": "view",
      "type": "function"
    },
    {
      "inputs": [
        {
          "internalType": "uint256",
          "name": "vaultId",
          "type": "uint256"
        }
      ],
      "name": "getPositionWithUnrealizedFee",
      "outputs": [
        {
          "components": [
            {
              "internalType": "int256",
              "name": "amountStable",
              "type": "int256"
            },
            {
              "internalType": "int256",
              "name": "amountSqrt",
              "type": "int256"
            },
            {
              "internalType": "int256",
              "name": "amountUnderlying",
              "type": "int256"
            }
          ],
          "internalType": "struct PositionCalculator.PositionParams",
          "name": "",
          "type": "tuple"
        }
      ],
      "stateMutability": "view",
      "type": "function"
    },
    {
      "inputs": [
        {
          "internalType": "uint256",
          "name": "pairId",
          "type": "uint256"
        }
      ],
      "name": "getSqrtIndexPrice",
      "outputs": [
        {
          "internalType": "uint256",
          "name": "",
          "type": "uint256"
        }
      ],
      "stateMutability": "view",
      "type": "function"
    },
    {
      "inputs": [
        {
          "internalType": "uint256",
          "name": "pairId",
          "type": "uint256"
        }
      ],
      "name": "getSqrtPrice",
      "outputs": [
        {
          "internalType": "uint160",
          "name": "",
          "type": "uint160"
        }
      ],
      "stateMutability": "view",
      "type": "function"
    },
    {
      "inputs": [
        {
          "internalType": "uint256",
          "name": "vaultId",
          "type": "uint256"
        }
      ],
      "name": "getVault",
      "outputs": [
        {
          "components": [
            {
              "internalType": "uint256",
              "name": "id",
              "type": "uint256"
            },
            {
              "internalType": "address",
              "name": "marginId",
              "type": "address"
            },
            {
              "internalType": "address",
              "name": "owner",
              "type": "address"
            },
            {
              "internalType": "address",
              "name": "recepient",
              "type": "address"
            },
            {
              "internalType": "int256",
              "name": "margin",
              "type": "int256"
            },
            {
              "components": [
                {
                  "internalType": "uint256",
                  "name": "pairId",
                  "type": "uint256"
                },
                {
                  "internalType": "int24",
                  "name": "rebalanceLastTickLower",
                  "type": "int24"
                },
                {
                  "internalType": "int24",
                  "name": "rebalanceLastTickUpper",
                  "type": "int24"
                },
                {
                  "internalType": "uint64",
                  "name": "lastNumRebalance",
                  "type": "uint64"
                },
                {
                  "components": [
                    {
                      "internalType": "int256",
                      "name": "amount",
                      "type": "int256"
                    },
                    {
                      "internalType": "int256",
                      "name": "entryValue",
                      "type": "int256"
                    }
                  ],
                  "internalType": "struct Perp.PositionStatus",
                  "name": "perp",
                  "type": "tuple"
                },
                {
                  "components": [
                    {
                      "internalType": "int256",
                      "name": "amount",
                      "type": "int256"
                    },
                    {
                      "internalType": "int256",
                      "name": "entryValue",
                      "type": "int256"
                    },
                    {
                      "internalType": "int256",
                      "name": "quoteRebalanceEntryValue",
                      "type": "int256"
                    },
                    {
                      "internalType": "int256",
                      "name": "baseRebalanceEntryValue",
                      "type": "int256"
                    },
                    {
                      "internalType": "uint256",
                      "name": "entryTradeFee0",
                      "type": "uint256"
                    },
                    {
                      "internalType": "uint256",
                      "name": "entryTradeFee1",
                      "type": "uint256"
                    }
                  ],
                  "internalType": "struct Perp.SqrtPositionStatus",
                  "name": "sqrtPerp",
                  "type": "tuple"
                },
                {
                  "components": [
                    {
                      "internalType": "int256",
                      "name": "positionAmount",
                      "type": "int256"
                    },
                    {
                      "internalType": "uint256",
                      "name": "lastFeeGrowth",
                      "type": "uint256"
                    }
                  ],
                  "internalType": "struct ScaledAsset.UserStatus",
                  "name": "underlying",
                  "type": "tuple"
                },
                {
                  "components": [
                    {
                      "internalType": "int256",
                      "name": "positionAmount",
                      "type": "int256"
                    },
                    {
                      "internalType": "uint256",
                      "name": "lastFeeGrowth",
                      "type": "uint256"
                    }
                  ],
                  "internalType": "struct ScaledAsset.UserStatus",
                  "name": "stable",
                  "type": "tuple"
                }
              ],
              "internalType": "struct Perp.UserStatus",
              "name": "openPosition",
              "type": "tuple"
            }
          ],
          "internalType": "struct DataType.Vault",
          "name": "",
          "type": "tuple"
        }
      ],
      "stateMutability": "view",
      "type": "function"
    },
    {
      "inputs": [
        {
          "internalType": "uint256",
          "name": "vaultId",
          "type": "uint256"
        }
      ],
      "name": "getVaultStatus",
      "outputs": [
        {
          "components": [
            {
              "internalType": "uint256",
              "name": "id",
              "type": "uint256"
            },
            {
              "internalType": "int256",
              "name": "vaultValue",
              "type": "int256"
            },
            {
              "internalType": "int256",
              "name": "minMargin",
              "type": "int256"
            }
          ],
          "internalType": "struct IPredyPool.VaultStatus",
          "name": "",
          "type": "tuple"
        }
      ],
      "stateMutability": "view",
      "type": "function"
    },
    {
      "inputs": [],
      "name": "globalData",
      "outputs": [
        {
          "internalType": "uint256",
          "name": "pairsCount",
          "type": "uint256"
        },
        {
          "internalType": "uint256",
          "name": "vaultCount",
          "type": "uint256"
        },
        {
          "internalType": "address",
          "name": "uniswapFactory",
          "type": "address"
        },
        {
          "components": [
            {
              "internalType": "address",
              "name": "locker",
              "type": "address"
            },
            {
              "internalType": "uint256",
              "name": "quoteReserve",
              "type": "uint256"
            },
            {
              "internalType": "uint256",
              "name": "baseReserve",
              "type": "uint256"
            },
            {
              "internalType": "uint256",
              "name": "pairId",
              "type": "uint256"
            }
          ],
          "internalType": "struct LockDataLibrary.LockData",
          "name": "lockData",
          "type": "tuple"
        }
      ],
      "stateMutability": "view",
      "type": "function"
    },
    {
      "inputs": [
        {
          "internalType": "uint256",
          "name": "pairId",
          "type": "uint256"
        },
        {
          "components": [
            {
              "internalType": "address",
              "name": "settlementContractAddress",
              "type": "address"
            },
            {
              "internalType": "bytes",
              "name": "encodedData",
              "type": "bytes"
            }
          ],
          "internalType": "struct ISettlement.SettlementData",
          "name": "settlementData",
          "type": "tuple"
        }
      ],
      "name": "reallocate",
      "outputs": [
        {
          "internalType": "bool",
          "name": "relocationOccurred",
          "type": "bool"
        }
      ],
      "stateMutability": "nonpayable",
      "type": "function"
    },
    {
      "inputs": [
        {
          "components": [
            {
              "internalType": "address",
              "name": "marginId",
              "type": "address"
            },
            {
              "internalType": "address",
              "name": "poolOwner",
              "type": "address"
            },
            {
              "internalType": "address",
              "name": "uniswapPool",
              "type": "address"
            },
            {
              "internalType": "address",
              "name": "priceFeed",
              "type": "address"
            },
            {
              "internalType": "uint8",
              "name": "fee",
              "type": "uint8"
            },
            {
              "components": [
                {
                  "internalType": "uint256",
                  "name": "riskRatio",
                  "type": "uint256"
                },
                {
                  "internalType": "int24",
                  "name": "rangeSize",
                  "type": "int24"
                },
                {
                  "internalType": "int24",
                  "name": "rebalanceThreshold",
                  "type": "int24"
                }
              ],
              "internalType": "struct Perp.AssetRiskParams",
              "name": "assetRiskParams",
              "type": "tuple"
            },
            {
              "components": [
                {
                  "internalType": "uint256",
                  "name": "baseRate",
                  "type": "uint256"
                },
                {
                  "internalType": "uint256",
                  "name": "kinkRate",
                  "type": "uint256"
                },
                {
                  "internalType": "uint256",
                  "name": "slope1",
                  "type": "uint256"
                },
                {
                  "internalType": "uint256",
                  "name": "slope2",
                  "type": "uint256"
                }
              ],
              "internalType": "struct InterestRateModel.IRMParams",
              "name": "stableIrmParams",
              "type": "tuple"
            },
            {
              "components": [
                {
                  "internalType": "uint256",
                  "name": "baseRate",
                  "type": "uint256"
                },
                {
                  "internalType": "uint256",
                  "name": "kinkRate",
                  "type": "uint256"
                },
                {
                  "internalType": "uint256",
                  "name": "slope1",
                  "type": "uint256"
                },
                {
                  "internalType": "uint256",
                  "name": "slope2",
                  "type": "uint256"
                }
              ],
              "internalType": "struct InterestRateModel.IRMParams",
              "name": "underlyingIrmParams",
              "type": "tuple"
            }
          ],
          "internalType": "struct AddPairLogic.AddPairParams",
          "name": "addPairParam",
          "type": "tuple"
        }
      ],
      "name": "registerPair",
      "outputs": [
        {
          "internalType": "uint256",
          "name": "",
          "type": "uint256"
        }
      ],
      "stateMutability": "nonpayable",
      "type": "function"
    },
    {
      "inputs": [
        {
          "internalType": "uint256",
          "name": "pairId",
          "type": "uint256"
        }
      ],
      "name": "revertPairStatus",
      "outputs": [],
      "stateMutability": "nonpayable",
      "type": "function"
    },
    {
      "inputs": [
        {
          "internalType": "uint256",
          "name": "vaultId",
          "type": "uint256"
        }
      ],
      "name": "revertVaultStatus",
      "outputs": [],
      "stateMutability": "nonpayable",
      "type": "function"
    },
    {
      "inputs": [
        {
          "internalType": "uint256",
          "name": "pairId",
          "type": "uint256"
        },
        {
          "internalType": "bool",
          "name": "isQuoteAsset",
          "type": "bool"
        },
        {
          "internalType": "uint256",
          "name": "supplyAmount",
          "type": "uint256"
        }
      ],
      "name": "supply",
      "outputs": [
        {
          "internalType": "uint256",
          "name": "finalSuppliedAmount",
          "type": "uint256"
        }
      ],
      "stateMutability": "nonpayable",
      "type": "function"
    },
    {
      "inputs": [
        {
          "internalType": "bool",
          "name": "isQuoteAsset",
          "type": "bool"
        },
        {
          "internalType": "address",
          "name": "to",
          "type": "address"
        },
        {
          "internalType": "uint256",
          "name": "amount",
          "type": "uint256"
        }
      ],
      "name": "take",
      "outputs": [],
      "stateMutability": "nonpayable",
      "type": "function"
    },
    {
      "inputs": [
        {
          "components": [
            {
              "internalType": "uint256",
              "name": "pairId",
              "type": "uint256"
            },
            {
              "internalType": "uint256",
              "name": "vaultId",
              "type": "uint256"
            },
            {
              "internalType": "int256",
              "name": "tradeAmount",
              "type": "int256"
            },
            {
              "internalType": "int256",
              "name": "tradeAmountSqrt",
              "type": "int256"
            },
            {
              "internalType": "bytes",
              "name": "extraData",
              "type": "bytes"
            }
          ],
          "internalType": "struct IPredyPool.TradeParams",
          "name": "tradeParams",
          "type": "tuple"
        },
        {
          "components": [
            {
              "internalType": "address",
              "name": "settlementContractAddress",
              "type": "address"
            },
            {
              "internalType": "bytes",
              "name": "encodedData",
              "type": "bytes"
            }
          ],
          "internalType": "struct ISettlement.SettlementData",
          "name": "settlementData",
          "type": "tuple"
        }
      ],
      "name": "trade",
      "outputs": [
        {
          "components": [
            {
              "components": [
                {
                  "internalType": "int256",
                  "name": "perpEntryUpdate",
                  "type": "int256"
                },
                {
                  "internalType": "int256",
                  "name": "sqrtEntryUpdate",
                  "type": "int256"
                },
                {
                  "internalType": "int256",
                  "name": "sqrtRebalanceEntryUpdateUnderlying",
                  "type": "int256"
                },
                {
                  "internalType": "int256",
                  "name": "sqrtRebalanceEntryUpdateStable",
                  "type": "int256"
                },
                {
                  "internalType": "int256",
                  "name": "perpPayoff",
                  "type": "int256"
                },
                {
                  "internalType": "int256",
                  "name": "sqrtPayoff",
                  "type": "int256"
                }
              ],
              "internalType": "struct IPredyPool.Payoff",
              "name": "payoff",
              "type": "tuple"
            },
            {
              "internalType": "uint256",
              "name": "vaultId",
              "type": "uint256"
            },
            {
              "internalType": "int256",
              "name": "fee",
              "type": "int256"
            },
            {
              "internalType": "int256",
              "name": "minMargin",
              "type": "int256"
            },
            {
              "internalType": "int256",
              "name": "averagePrice",
              "type": "int256"
            },
            {
              "internalType": "uint256",
              "name": "sqrtTwap",
              "type": "uint256"
            },
            {
              "internalType": "uint256",
              "name": "sqrtPrice",
              "type": "uint256"
            }
          ],
          "internalType": "struct IPredyPool.TradeResult",
          "name": "tradeResult",
          "type": "tuple"
        }
      ],
      "stateMutability": "nonpayable",
      "type": "function"
    },
    {
      "inputs": [
        {
          "internalType": "uint256",
          "name": "amount0",
          "type": "uint256"
        },
        {
          "internalType": "uint256",
          "name": "amount1",
          "type": "uint256"
        },
        {
          "internalType": "bytes",
          "name": "",
          "type": "bytes"
        }
      ],
      "name": "uniswapV3MintCallback",
      "outputs": [],
      "stateMutability": "nonpayable",
      "type": "function"
    },
    {
      "inputs": [
        {
          "internalType": "uint256",
          "name": "vaultId",
          "type": "uint256"
        },
        {
          "internalType": "int256",
          "name": "marginAmount",
          "type": "int256"
        }
      ],
      "name": "updateMargin",
      "outputs": [],
      "stateMutability": "nonpayable",
      "type": "function"
    },
    {
      "inputs": [
        {
          "internalType": "uint256",
          "name": "vaultId",
          "type": "uint256"
        },
        {
          "internalType": "address",
          "name": "recepient",
          "type": "address"
        }
      ],
      "name": "updateRecepient",
      "outputs": [],
      "stateMutability": "nonpayable",
      "type": "function"
    },
    {
      "inputs": [
        {
          "internalType": "uint256",
          "name": "pairId",
          "type": "uint256"
        },
        {
          "internalType": "bool",
          "name": "isQuoteAsset",
          "type": "bool"
        },
        {
          "internalType": "uint256",
          "name": "withdrawAmount",
          "type": "uint256"
        }
      ],
      "name": "withdraw",
      "outputs": [
        {
          "internalType": "uint256",
          "name": "finalBurnAmount",
          "type": "uint256"
        },
        {
          "internalType": "uint256",
          "name": "finalWithdrawAmount",
          "type": "uint256"
        }
      ],
      "stateMutability": "nonpayable",
      "type": "function"
    }
  ],
  "bytecode": {
    "object": "0x60806040523480156200001157600080fd5b5060405162004971380380620049718339810160408190526200003491620000bb565b600280546001600160a01b0319166001600160a01b03831617905560405163743b521360e11b81526000600482015273__$95910b7b93a5208ca27f4262a74795a535$__9063e876a4269060240160006040518083038186803b1580156200009b57600080fd5b505af4158015620000b0573d6000803e3d6000fd5b5050505050620000ed565b600060208284031215620000ce57600080fd5b81516001600160a01b0381168114620000e657600080fd5b9392505050565b61487480620000fd6000396000f3fe608060405234801561001057600080fd5b50600436106101375760003560e01c806391d0370f116100b8578063acfcd9fd1161007c578063acfcd9fd146103dd578063c6b6d340146103f0578063c92af3ec14610403578063d348799714610423578063db9d4a1914610436578063f3eb8cd81461044957600080fd5b806391d0370f146102f45780639403b634146103845780639abbdf4b146103a45780639b819b30146103b7578063ab4db360146103ca57600080fd5b80634e20a76e116100ff5780634e20a76e146101ea5780635393e7801461020d578063613ce410146102205780637f223b4c146102b95780639174e1a1146102e157600080fd5b806318e807491461013c5780631daf2c191461016c578063360125f1146101815780633b39b99d1461019457806349ebb77d146101b5575b600080fd5b61014f61014a366004613686565b61046c565b6040516001600160a01b0390911681526020015b60405180910390f35b61017f61017a366004613686565b6104bb565b005b61017f61018f366004613686565b610529565b6101a76101a2366004613893565b610568565b604051908152602001610163565b6101c86101c3366004613686565b6105e8565b6040805182518152602080840151908201529181015190820152606001610163565b6101fd6101f8366004613a24565b610d53565b6040519015158152602001610163565b61017f61021b366004613a6a565b610dd9565b600054600154600254604080516080810182526006546001600160a01b039081168252600754602083015260085492820192909252600954606082015261026b949392919091169084565b604080519485526020808601949094526001600160a01b039283168582015281519092166060808601919091529281015160808501529081015160a0840152015160c082015260e001610163565b6102cc6102c7366004613a9a565b610e5a565b60408051928352602083019190915201610163565b6101c86102ef366004613686565b610ef4565b610307610302366004613ad2565b610f99565b60408051825180518252602080820151818401528184015183850152606080830151818501526080808401518186015260a093840151848601529186015160c0808601919091529486015160e085015285015161010084015284015161012083015283015161014082015291015161016082015261018001610163565b610397610392366004613686565b611029565b6040516101639190613b21565b6101a76103b2366004613686565b611182565b6103076103c5366004613c35565b6111a3565b61017f6103d8366004613ce4565b611215565b6101a76103eb366004613686565b61126e565b61017f6103fe366004613d14565b61157b565b610416610411366004613686565b6115ca565b6040516101639190613eec565b61017f610431366004613fd4565b6118da565b6101a7610444366004613a9a565b6119db565b6101fd610457366004614053565b600a6020526000908152604090205460ff1681565b6000818152600360205260408120602101546104b590610494906001600160a01b0316611a68565b600084815260036020526040902060320154600160a01b900460ff16611ad9565b92915050565b604051636e903d2560e11b8152600060048201526024810182905273__$4278c074fd6acd31e7e5f642d169fef5d3$__9063dd207a4a906044015b60006040518083038186803b15801561050e57600080fd5b505af4158015610522573d6000803e3d6000fd5b5050505050565b60405163919c1b6160e01b8152600060048201526024810182905273__$4278c074fd6acd31e7e5f642d169fef5d3$__9063919c1b61906044016104f6565b604051635641324160e11b815260009073__$95910b7b93a5208ca27f4262a74795a535$__9063ac826482906105a7908490600a908790600401614070565b602060405180830381865af41580156105c4573d6000803e3d6000fd5b505050506040513d601f19601f820116820180604052508101906104b59190614165565b61060c60405180606001604052806000815260200160008152602001600081525090565b6000806005016000848152602001908152602001600020600501600001549050600080610d306000600301600085815260200190815260200160002060405180610160016040529081600082015481526020016001820160009054906101000a90046001600160a01b03166001600160a01b03166001600160a01b031681526020016002820160009054906101000a90046001600160a01b03166001600160a01b03166001600160a01b03168152602001600382016040518060c00160405290816000820160009054906101000a90046001600160a01b03166001600160a01b03166001600160a01b031681526020016001820160009054906101000a90046001600160a01b03166001600160a01b03166001600160a01b03168152602001600282016040518060c001604052908160008201548152602001600182015481526020016002820154815260200160038201548152602001600482015481526020016005820154815250508152602001600882016040518060800160405290816000820154815260200160018201548152602001600282015481526020016003820154815250508152602001600c8201548152602001600d820154815250508152602001601182016040518060c00160405290816000820160009054906101000a90046001600160a01b03166001600160a01b03166001600160a01b031681526020016001820160009054906101000a90046001600160a01b03166001600160a01b03166001600160a01b03168152602001600282016040518060c001604052908160008201548152602001600182015481526020016002820154815260200160038201548152602001600482015481526020016005820154815250508152602001600882016040518060800160405290816000820154815260200160018201548152602001600282015481526020016003820154815250508152602001600c8201548152602001600d820154815250508152602001601f8201604051806060016040529081600082015481526020016001820160009054906101000a900460020b60020b60020b81526020016001820160039054906101000a900460020b60020b60020b81525050815260200160218201604051806102200160405290816000820160009054906101000a90046001600160a01b03166001600160a01b03166001600160a01b031681526020016000820160149054906101000a900460020b60020b60020b81526020016000820160179054906101000a900460020b60020b60020b81526020016001820160009054906101000a90046001600160401b03166001600160401b03166001600160401b031681526020016002820154815260200160038201548152602001600482015481526020016005820154815260200160068201548152602001600782015481526020016008820154815260200160098201548152602001600a8201548152602001600b8201604051806040016040529081600082015481526020016001820154815250508152602001600d8201604051806040016040529081600082015481526020016001820154815250508152602001600f820154815260200160108201548152505081526020016032820160009054906101000a90046001600160a01b03166001600160a01b03166001600160a01b031681526020016032820160149054906101000a900460ff161515151581526020016032820160159054906101000a900460ff1660ff1660ff1681526020016033820154815250506000600401600060050160008981526020019081526020016000206040518060c0016040529081600082015481526020016001820160009054906101000a90046001600160a01b03166001600160a01b03166001600160a01b031681526020016002820160009054906101000a90046001600160a01b03166001600160a01b03166001600160a01b031681526020016003820160009054906101000a90046001600160a01b03166001600160a01b03166001600160a01b03168152602001600482015481526020016005820160405180610100016040529081600082015481526020016001820160009054906101000a900460020b60020b60020b81526020016001820160039054906101000a900460020b60020b60020b81526020016001820160069054906101000a90046001600160401b03166001600160401b03166001600160401b0316815260200160028201604051806040016040529081600082015481526020016001820154815250508152602001600482016040518060c001604052908160008201548152602001600182015481526020016002820154815260200160038201548152602001600482015481526020016005820154815250508152602001600a8201604051806040016040529081600082015481526020016001820154815250508152602001600c8201604051806040016040529081600082015481526020016001820154815250508152505081525050611b06565b505060408051606081018252978852602088019190915286015250929392505050565b60405163f78c1fb560e01b815260009073__$82e740bfb21403018c74028207d6b78a82$__9063f78c1fb590610d91908490879087906004016141f5565b602060405180830381865af4158015610dae573d6000803e3d6000fd5b505050506040513d601f19601f82011682018060405250810190610dd2919061421d565b9392505050565b610de4600083611bad565b5060405163f66f5cc760e01b815260006004820152602481018390526044810182905273__$dce61b2ba8cb2bacc386287dc451d94595$__9063f66f5cc79060640160006040518083038186803b158015610e3e57600080fd5b505af4158015610e52573d6000803e3d6000fd5b505050505050565b604051633e16468d60e01b81526000600482018190526024820185905260448201839052831515606483015290819073__$22e71cc2a9e9de4b2967c224ed91c7d01e$__90633e16468d906084016040805180830381865af4158015610ec4573d6000803e3d6000fd5b505050506040513d601f19601f82011682018060405250810190610ee8919061423a565b91509150935093915050565b610f1860405180606001604052806000815260200160008152602001600081525090565b60405163315e381560e01b8152600060048201526024810183905273__$4278c074fd6acd31e7e5f642d169fef5d3$__9063315e381590604401606060405180830381865af4158015610f6f573d6000803e3d6000fd5b505050506040513d601f19601f82011682018060405250810190610f93919061425e565b50919050565b610fa1613304565b60405163fe8473e160e01b815273__$a1fa80d38d689cae49e54718da49b6432c$__9063fe8473e190610fdf9087908790600090889060040161429a565b61018060405180830381865af4158015610ffd573d6000803e3d6000fd5b505050506040513d601f19601f8201168201806040525081019061102191906142c9565b949350505050565b611031613378565b50600090815260056020818152604092839020835160c080820186528254825260018301546001600160a01b039081168386015260028085015482168489015260038501549091166060808501919091526004850154608080860191909152885161010081018a52978601548852600686015480840b898901526301000000810490930b888a015266010000000000009092046001600160401b0316878201528751808901895260078601548152600886015481880152878301528751808401895260098601548152600a86015481880152600b860154818a0152600c86015491810191909152600d85015491810191909152600e84015460a0808301919091528087019190915286518088018852600f8501548152601085015481870152918601919091528551808701909652601183015486526012909201549285019290925260e08301939093529182015290565b600061118e8183611bea565b600061119b818085611c1a565b549392505050565b6111ab613304565b82516111b990600090611bea565b602083015183516000916111cf91839190611c1a565b8054602086015260405163010bcadf60e21b815290915073__$bc9f384c073b2381249378965b2d698cf3$__9063042f2b7c90610fdf9060009088908890600401614381565b60006112218184611bad565b90506001600160a01b03821661124a5760405163e6c4247b60e01b815260040160405180910390fd5b60030180546001600160a01b0319166001600160a01b039290921691909117905550565b6000818152600360208181526040808420815161016080820184528254825260018301546001600160a01b0390811683870152600280850154821684870152855160c08082018852988601548316815260048601548316818901528651808a018852600587015481526006870154818a015260078701548189015260088701546060828101919091526009880154608080840191909152600a89015460a080850191909152848b019390935289518082018b52600b8a01548152600c8a0154818d0152600d8a0154818c0152600e8a01548184015284830152600f89015481850152601089015483850152818801939093528851808c018a5260118901548616815260128901548616818c01528951808d018b5260138a0154815260148a0154818d015260158a0154818c015260168a01548184015260178a01548186015260188a015481850152818b015289518085018b5260198a01548152601a8a0154818d0152601b8a0154818c0152601c8a01548184015281830152601d89015481850152601e890154818401528388015288518082018a52601f8901548152888b015480860b828d015263010000009004850b818b015282880152885161022081018a5260218901548087168252600160a01b808204870b838e0152600160b81b90910490950b818b015260228901546001600160401b0316918101919091526023880154928101929092526024870154908201526025860154818a0152602686015460e080830191909152602787015461010083810191909152602888015461012080850191909152602989015461014080860191909152602a8a015497850197909752602b8901546101808501528951808b018b52602c8a01548152602d8a0154818d01526101a08501528951808b01909a52602e8901548a52602f8901549a8a019a909a526101c083019890985260308701546101e083015260318701546102008301529885015260328501549182169784019790975260ff9681048716151594830194909452600160a81b90930490941692840192909252603390910154908201526104b590611d53565b6006546001600160a01b03163381146115b7576040516313d2c13360e21b81526001600160a01b03821660048201526024015b60405180910390fd5b6115c46000858585611dde565b50505050565b6115d26133ce565b50600090815260036020818152604092839020835161016080820186528254825260018301546001600160a01b0390811683860152600280850154821684890152875160c08082018a529786015483168152600486015483168188015288518089018a52600587015481526006870154818901526007870154818b015260088701546060808301919091526009880154608080840191909152600a89015460a080850191909152848d01939093528b518082018d52600b8a01548152600c8a0154818c0152600d8a0154818e0152600e8a01548184015282850152600f89015481850152601089015483850152818801939093528a51808b018c5260118901548616815260128901548616818b01528b51808c018d5260138a0154815260148a0154818c015260158a0154818e015260168a01548184015260178a01548186015260188a015481850152818d01528b518085018d5260198a01548152601a8a0154818c0152601b8a0154818e0152601c8a01548184015281830152601d89015481850152601e89015481840152838801528a518082018c52601f8901548152888a015480860b828c015263010000009004850b818d0152828801528a5161022081018c5260218901548087168252600160a01b808204870b838d0152600160b81b90910490950b818d015260228901546001600160401b031691810191909152602388015492810192909252602487015490820152602586015481890152602686015460e080830191909152602787015461010080840191909152602888015461012080850191909152602989015461014080860191909152602a8a015497850197909752602b8901546101808501528b51808d018d52602c8a01548152602d8a0154818c01526101a08501528b51808d01909c52602e8901548c52602f890154998c01999099526101c083019a909a5260308701546101e083015260318701546102008301529785015260328501549182169684019690965294850460ff908116151596830196909652600160a81b90940490941691840191909152603301549082015290565b336000908152600a602052604090205460ff166118f657600080fd5b33841561196957611969816001600160a01b0316630dfe16816040518163ffffffff1660e01b8152600401602060405180830381865afa15801561193e573d6000803e3d6000fd5b505050506040513d601f19601f8201168201806040525081019061196291906143e0565b3387612185565b831561052257610522816001600160a01b031663d21220a76040518163ffffffff1660e01b8152600401602060405180830381865afa1580156119b0573d6000803e3d6000fd5b505050506040513d601f19601f820116820180604052508101906119d491906143e0565b3386612185565b604051633ec463bf60e01b8152600060048201819052602482018590526044820183905283151560648301529073__$22e71cc2a9e9de4b2967c224ed91c7d01e$__90633ec463bf90608401602060405180830381865af4158015611a44573d6000803e3d6000fd5b505050506040513d601f19601f820116820180604052508101906110219190614165565b6000816001600160a01b0316633850c7bd6040518163ffffffff1660e01b815260040160e060405180830381865afa158015611aa8573d6000803e3d6000fd5b505050506040513d601f19601f82011682018060405250810190611acc919061440f565b5094979650505050505050565b60008115611aff57611af86001600160a01b038416600160c01b6144cd565b90506104b5565b50816104b5565b600080600080600080611b1889611d53565b9250611b3e8760800151611b318b8b8b60a0015161227e565b60a08c0151518690612316565b91975090955090925090506000611b6d620f4240611b5e846107d06144e1565b611b6891906144cd565b612394565b905080611b7a84886144f8565b611b849190614518565b9650848015611b955750620f424087125b15611ba157620f424096505b50505093509350935093565b6000818152600583016020526040902060028101546001600160a01b031633146104b557604051631b65793760e01b815260040160405180910390fd5b801580611bf8575081548110155b15611c165760405163a8c399e560e01b815260040160405180910390fd5b5050565b60008181526003840160205260408120600101546001600160a01b0316838203611cb7576001858101805460008181526005808a0160205260408220838155600281018054336001600160a01b03199182168117909255600383018054821690921790915591810189905594850180549091166001600160a01b038716179055825493955090929190611cac83614540565b919050555050611d4b565b6000848152600586016020526040902060028101549092506001600160a01b03163314611cf757604051631b65793760e01b815260040160405180910390fd5b60018201546001600160a01b03828116911614611d2757604051630b89b31360e21b815260040160405180910390fd5b60058201548314611d4b576040516324d0239560e11b815260040160405180910390fd5b509392505050565b60e08101516000906001600160a01b031615611dab578160e001516001600160a01b03166386e6862d6040518163ffffffff1660e01b8152600401602060405180830381865afa1580156105c4573d6000803e3d6000fd5b611dca611dbf8360c0015160000151612402565b836101000151611ad9565b6001600160a01b031692915050565b919050565b6009848101546000908152600380870160209081526040808420815161016080820184528254825260018301546001600160a01b0390811683870152600280850154821684870152855160c08082018852988601548316815260048601548316818901528651808a018852600587015481526006870154818a015260078701548189015260088701546060808301919091529b870154608080830191909152600a88015460a080840191909152838a019290925288518082018a52600b8901548152600c890154818c0152600d890154818b0152600e890154818f01528d840152600f880154818401526010880154828401528c8701929092528751808b01895260118801548516815260128801548516818b01528851808c018a52601389015481526014890154818c01526015890154818b01526016890154818f0152601789015481850152601889015481840152818a015288518084018a5260198901548152601a890154818c0152601b890154818b0152601c890154818f0152818e0152601d88015481840152601e88015481830152828701528751808d018952601f8801548152878a015480850b828c015263010000009004840b818a01528187015287516102208101895260218801548086168252600160a01b808204860b838d0152600160b81b90910490940b818a015260228801546001600160401b03169c81019c909c526023870154918c01919091526024860154908b015260258501548a890152602685015460e0808c01919091526027860154610100808d01919091526028870154610120808e01919091526029880154610140808f0191909152602a890154968e0196909652602b8801546101808e01528851808a018a52602c8901548152602d890154818c01526101a08e01528851808a01909952602e8801548952602f880154998901999099526101c08c019790975260308601546101e08c015260318601546102008c01529784019990995260328401549081169683019690965296850460ff908116151593820193909352600160a81b90940490911691830191909152603301549281019290925284156121015750606081015151612109565b506080810151515b60405163a9059cbb60e01b81526001600160a01b0385811660048301526024820185905282169063a9059cbb906044016020604051808303816000875af1158015612158573d6000803e3d6000fd5b505050506040513d601f19601f8201168201806040525081019061217c919061421d565b50505050505050565b604080516001600160a01b038481166024830152604480830185905283518084039091018152606490920183526020820180516001600160e01b031663a9059cbb60e01b17905291516000928392908716916121e19190614559565b6000604051808303816000865af19150503d806000811461221e576040519150601f19603f3d011682016040523d82523d6000602084013e612223565b606091505b509150915081801561224d57508051158061224d57508080602001905181019061224d919061421d565b6105225760405162461bcd60e51b815260206004820152600260248201526114d560f21b60448201526064016115ae565b6122a260405180606001604052806000815260200160008152602001600081525090565b6000806122b0868686612417565b915091506040518060600160405280828660a00151602001518760800151602001516122dc9190614518565b6122e69190614518565b815260a086015151602082015260808601515160409091019061230a908590614518565b90529695505050505050565b6000806000806123278688876124ca565b6123319085614518565b935061233d86886125c9565b6123479084614518565b9250612353868861264b565b61235d9083614575565b9150808061236f575061236f87612690565b905061237b8885614518565b93506123878884614518565b9250945094509450949050565b60006001600160ff1b038211156123fe5760405162461bcd60e51b815260206004820152602860248201527f53616665436173743a2076616c756520646f65736e27742066697420696e2061604482015267371034b73a191a9b60c11b60648201526084016115ae565b5090565b6000612410826107086126ab565b5092915050565b6000806124398360c00151866080015160400151612b3890919063ffffffff16565b915061245a8360e00151866060015160400151612b3890919063ffffffff16565b905060008061247387600001518860c001518888612b63565b90925090506124828285614518565b935061248e8184614518565b925050506000806124a3878660a00151612c2b565b90925090506124b28285614518565b93506124be8184614518565b92505050935093915050565b6001600160ff1b0360006305f5e1006124e384876144e1565b6124ed91906144cd565b90506000836125006305f5e100886144e1565b61250a91906144cd565b9050600061251883876125c9565b905083811215612526578093505b50600061253382876125c9565b905083811215612541578093505b506000856020015112801561255a575060008560400151135b156125c05760008560400151600160601b876020015161257990614588565b61258391906144e1565b61258d91906144cd565b9050808210801561259d57508281105b156125be5760006125ae82886125c9565b9050848112156125bc578094505b505b505b50509392505050565b60008060606125d885806144e1565b8451911c9150600160601b6125ec86612394565b85602001516125fb91906145a4565b6126069060026145a4565b61261091906145d4565b600160601b61261e84612394565b866040015161262d91906145a4565b61263791906145d4565b6126419190614518565b6110219190614518565b6020810151600090818113156126655760009150506104b5565b60608461267183614588565b61267b91906144e1565b6126869060026144e1565b901c949350505050565b6000816020015160001415806104b557505060400151151590565b60408051600280825260608201835260009283928392909160208301908036833701905050905083816000815181106126e6576126e6614602565b602002602001019063ffffffff16908163ffffffff168152505060008160018151811061271557612715614602565b602002602001019063ffffffff16908163ffffffff1681525050600080866001600160a01b031663883bdbfd60e01b846040516024016127559190614618565b60408051601f198184030181529181526020820180516001600160e01b03166001600160e01b03199094169390931790925290516127939190614559565b600060405180830381855afa9150503d80600081146127ce576040519150601f19603f3d011682016040523d82523d6000602084013e6127d3565b606091505b509150915081612ab35760405160206024820152600360448201526213d31160ea1b606482015260840160408051601f19818403018152919052602080820180516001600160e01b031662461bcd60e51b1781529151909120825191830191909120146128435761284381612d14565b600080886001600160a01b0316633850c7bd6040518163ffffffff1660e01b815260040160e060405180830381865afa158015612884573d6000803e3d6000fd5b505050506040513d601f19601f820116820180604052508101906128a8919061440f565b5050509350935050506000808a6001600160a01b031663252c09d7848660016128d19190614662565b6128db919061467d565b6040516001600160e01b031960e084901b16815261ffff9091166004820152602401608060405180830381865afa15801561291a573d6000803e3d6000fd5b505050506040513d601f19601f8201168201806040525081019061293e91906146b0565b935050509150806129b95760405163252c09d760e01b8152600060048201526001600160a01b038c169063252c09d790602401608060405180830381865afa15801561298e573d6000803e3d6000fd5b505050506040513d601f19601f820116820180604052508101906129b291906146b0565b5091935050505b6129c963ffffffff831642614714565b995089876000815181106129df576129df614602565b602002602001019063ffffffff16908163ffffffff16815250508a6001600160a01b031663883bdbfd60e01b88604051602401612a1c9190614618565b60408051601f198184030181529181526020820180516001600160e01b03166001600160e01b0319909416939093179092529051612a5a9190614559565b600060405180830381855afa9150503d8060008114612a95576040519150601f19603f3d011682016040523d82523d6000602084013e612a9a565b606091505b50909650945085612aae57612aae85612d14565b505050505b600081806020019051810190612ac99190614727565b905060008782600081518110612ae157612ae1614602565b602002602001015183600181518110612afc57612afc614602565b6020026020010151612b0e91906147d3565b612b189190614800565b90506000612b2582612d5b565b97508896505050505050505b9250929050565b60008082600001511315612b5057611af8838361307e565b612b5a83836130e0565b610dd290614588565b60a081015151600090819015801590612b95575084606001516001600160401b031683606001516001600160401b0316105b15612c22576000612baa87856060015161314b565b90506000612bbf8560a001516000015161316d565b6000838152602088905260409020600101546101e0890151919250612bf791612be891906144f8565b82670de0b6b3a7640000613185565b600083815260208890526040902054610200890151919550612c1d91612be891906144f8565b925050505b94509492505050565b600080600080600085600001511315612c795784608001518660c001516101600151612c579190614714565b91508460a001518660c001516101800151612c729190614714565b9050612cbe565b845160001315612cb75784608001518660c001516101200151612c9c9190614714565b91508460a001518660c001516101400151612c729190614714565b5050612b31565b6000612cd3866000015184600160801b613185565b90506000612cea876000015184600160801b613185565b905087610100015115612d0257819450809550612d09565b8195508094505b505050509250929050565b805115612d2357805181602001fd5b60405162461bcd60e51b815260206004820152600d60248201526c3297b2b6b83a3c96b2b93937b960991b60448201526064016115ae565b60008060008360020b12612d72578260020b612d7a565b8260020b6000035b9050620d89e8811115612da0576040516315e4079d60e11b815260040160405180910390fd5b600081600116600003612db757600160801b612dc9565b6ffffcb933bd6fad37aa2d162d1a5940015b70ffffffffffffffffffffffffffffffffff1690506002821615612dfd576ffff97272373d413259a46990580e213a0260801c5b6004821615612e1c576ffff2e50f5f656932ef12357cf3c7fdcc0260801c5b6008821615612e3b576fffe5caca7e10e4e61c3624eaa0941cd00260801c5b6010821615612e5a576fffcb9843d60f6159c9db58835c9266440260801c5b6020821615612e79576fff973b41fa98c081472e6896dfb254c00260801c5b6040821615612e98576fff2ea16466c96a3843ec78b326b528610260801c5b6080821615612eb7576ffe5dee046a99a2a811c461f1969c30530260801c5b610100821615612ed7576ffcbe86c7900a88aedcffc83b479aa3a40260801c5b610200821615612ef7576ff987a7253ac413176f2b074cf7815e540260801c5b610400821615612f17576ff3392b0822b70005940c7a398e4b70f30260801c5b610800821615612f37576fe7159475a2c29b7443b29c7fa6e889d90260801c5b611000821615612f57576fd097f3bdfd2022b8845ad8f792aa58250260801c5b612000821615612f77576fa9f746462d870fdf8a65dc1f90e061e50260801c5b614000821615612f97576f70d869a156d2a1b890bb3df62baf32f70260801c5b618000821615612fb7576f31be135f97d08fd981231505542fcfa60260801c5b62010000821615612fd8576f09aa508b5b7a84e1c677de54f3e99bc90260801c5b62020000821615612ff8576e5d6af8dedb81196699c329225ee6040260801c5b62040000821615613017576d2216e584f5fa1ea926041bedfe980260801c5b62080000821615613034576b048a170391f7dc42444e8fa20260801c5b60008460020b1315613055578060001981613051576130516144a1565b0490505b64010000000081061561306957600161306c565b60005b60ff16602082901c0192505050919050565b600080826000015112156130b95760405162461bcd60e51b8152602060048201526002602482015261533160f01b60448201526064016115ae565b610dd2826020015184608001516130d09190614714565b8351670de0b6b3a76400006131ce565b6000808260000151131561311b5760405162461bcd60e51b8152602060048201526002602482015261533160f01b60448201526064016115ae565b610dd282602001518460a001516131329190614714565b835161313d90614588565b670de0b6b3a76400006131ec565b60006001600160401b038083169061316390856144e1565b610dd29190614575565b6000808212156123fe5761318082614588565b6104b5565b60008360000361319757506000610dd2565b60008413156131b2576131ab848484613212565b9050610dd2565b6131c56131be85614588565b84846132c4565b6131ab90614588565b60008260001904841183021582026131e557600080fd5b5091020490565b600082600019048411830215820261320357600080fd5b50910281810615159190040190565b600080806000198587098587029250828110838203039150508060000361324b576000841161324057600080fd5b508290049050610dd2565b80841161325757600080fd5b6000848688096000868103871696879004966002600389028118808a02820302808a02820302808a02820302808a02820302808a02820302808a02909103029181900381900460010186841190950394909402919094039290920491909117919091029150509392505050565b60006132d1848484613212565b9050600082806132e3576132e36144a1565b8486091115610dd25760001981106132fa57600080fd5b6001019392505050565b6040518060e001604052806133486040518060c001604052806000815260200160008152602001600081526020016000815260200160008152602001600081525090565b81526020016000815260200160008152602001600081526020016000815260200160008152602001600081525090565b6040518060c001604052806000815260200160006001600160a01b0316815260200160006001600160a01b0316815260200160006001600160a01b03168152602001600081526020016133c9613465565b905290565b6040518061016001604052806000815260200160006001600160a01b0316815260200160006001600160a01b03168152602001613409613520565b8152602001613416613520565b815260408051606081018252600080825260208281018290529282015291019081526020016134436135c8565b8152600060208201819052604082018190526060820181905260809091015290565b60408051610100810182526000808252602080830182905282840182905260608301829052835180850190945281845283015290608082019081526020016134dc6040518060c001604052806000815260200160008152602001600081526020016000815260200160008152602001600081525090565b81526020016134fe604051806040016040528060008152602001600081525090565b81526020016133c9604051806040016040528060008152602001600081525090565b6040518060c0016040528060006001600160a01b0316815260200160006001600160a01b031681526020016135846040518060c001604052806000815260200160008152602001600081526020016000815260200160008152602001600081525090565b81526020016135b46040518060800160405280600081526020016000815260200160008152602001600081525090565b815260200160008152602001600081525090565b60405180610220016040528060006001600160a01b03168152602001600060020b8152602001600060020b815260200160006001600160401b03168152602001600081526020016000815260200160008152602001600081526020016000815260200160008152602001600081526020016000815260200160008152602001613664604051806040016040528060008152602001600081525090565b81526020016135b4604051806040016040528060008152602001600081525090565b60006020828403121561369857600080fd5b5035919050565b634e487b7160e01b600052604160045260246000fd5b604051606081016001600160401b03811182821017156136d7576136d761369f565b60405290565b60405161010081016001600160401b03811182821017156136d7576136d761369f565b60405160a081016001600160401b03811182821017156136d7576136d761369f565b60405160e081016001600160401b03811182821017156136d7576136d761369f565b60405160c081016001600160401b03811182821017156136d7576136d761369f565b604051601f8201601f191681016001600160401b038111828210171561378e5761378e61369f565b604052919050565b6001600160a01b03811681146137ab57600080fd5b50565b8035611dd981613796565b60ff811681146137ab57600080fd5b8035611dd9816137b9565b8060020b81146137ab57600080fd5b6000606082840312156137f457600080fd5b6137fc6136b5565b9050813581526020820135613810816137d3565b60208201526040820135613823816137d3565b604082015292915050565b60006080828403121561384057600080fd5b604051608081018181106001600160401b03821117156138625761386261369f565b8060405250809150823581526020830135602082015260408301356040820152606083013560608201525092915050565b600061020082840312156138a657600080fd5b6138ae6136dd565b6138b7836137ae565b81526138c5602084016137ae565b60208201526138d6604084016137ae565b60408201526138e7606084016137ae565b60608201526138f8608084016137c8565b608082015261390a8460a085016137e2565b60a082015261391d84610100850161382e565b60c082015261393084610180850161382e565b60e08201529392505050565b600082601f83011261394d57600080fd5b81356001600160401b038111156139665761396661369f565b613979601f8201601f1916602001613766565b81815284602083860101111561398e57600080fd5b816020850160208301376000918101602001919091529392505050565b6000604082840312156139bd57600080fd5b604051604081016001600160401b0382821081831117156139e0576139e061369f565b81604052829350843591506139f482613796565b90825260208401359080821115613a0a57600080fd5b50613a178582860161393c565b6020830152505092915050565b60008060408385031215613a3757600080fd5b8235915060208301356001600160401b03811115613a5457600080fd5b613a60858286016139ab565b9150509250929050565b60008060408385031215613a7d57600080fd5b50508035926020909101359150565b80151581146137ab57600080fd5b600080600060608486031215613aaf57600080fd5b833592506020840135613ac181613a8c565b929592945050506040919091013590565b600080600060608486031215613ae757600080fd5b833592506020840135915060408401356001600160401b03811115613b0b57600080fd5b613b17868287016139ab565b9150509250925092565b60006102a08201905082518252602083015160018060a01b03808216602085015280604086015116604085015280606086015116606085015250506080830151608083015260a0830151805160a0840152602081015160020b60c0840152604081015160020b60e08401526001600160401b036060820151166101008401526080810151613bbd61012085018280518252602090810151910152565b5060a081810151805161016086015260208082015161018087015260408201516101a087015260608201516101c087015260808201516101e087015291015161020085015260c0820151805161022086015281015161024085015260e090910151805161026085015290810151610280840152612410565b60008060408385031215613c4857600080fd5b82356001600160401b0380821115613c5f57600080fd5b9084019060a08287031215613c7357600080fd5b613c7b613700565b82358152602083013560208201526040830135604082015260608301356060820152608083013582811115613caf57600080fd5b613cbb8882860161393c565b60808301525093506020850135915080821115613cd757600080fd5b50613a60858286016139ab565b60008060408385031215613cf757600080fd5b823591506020830135613d0981613796565b809150509250929050565b600080600060608486031215613d2957600080fd5b8335613d3481613a8c565b92506020840135613ac181613796565b60018060a01b03808251168352806020830151166020840152506040810151805160408401526020810151606084015260408101516080840152606081015160a0840152608081015160c084015260a081015160e0840152506060810151613dd1610100840182805182526020810151602083015260408101516040830152606081015160608301525050565b50608081015161018083015260a001516101a090910152565b80516001600160a01b031682526020810151613e0b602084018260020b9052565b506040810151613e20604084018260020b9052565b506060810151613e3b60608401826001600160401b03169052565b506080818101519083015260a0808201519083015260c0808201519083015260e08082015190830152610100808201519083015261012080820151908301526101408082015190830152610160808201519083015261018080820151908301526101a08082015180518285015260208101516101c085015250506101c08101516101e0613ed48185018380518252602090810151910152565b82015161022084015250610200015161024090910152565b81518152602080830151610720830191613f10908401826001600160a01b03169052565b506040830151613f2b60408401826001600160a01b03169052565b506060830151613f3e6060840182613d44565b506080830151613f52610220840182613d44565b5060a083015180516103e08401526020810151600290810b6104008501526040820151900b6104208401525060c0830151613f91610440840182613dea565b5060e08301516001600160a01b03166106a083015261010083015115156106c083015261012083015160ff166106e0830152610140909201516107009091015290565b60008060008060608587031215613fea57600080fd5b843593506020850135925060408501356001600160401b038082111561400f57600080fd5b818701915087601f83011261402357600080fd5b81358181111561403257600080fd5b88602082850101111561404457600080fd5b95989497505060200194505050565b60006020828403121561406557600080fd5b8135610dd281613796565b60006102408201905084825283602083015260018060a01b038084511660408401528060208501511660608401528060408501511660808401525060608301516140c560a08401826001600160a01b03169052565b50608083015160ff811660c08401525060a0830151805160e08401526020810151600290810b6101008501526040820151900b6101208401525060c083015180516101408401526020810151610160840152604081015161018084015260608101516101a08401525060e083015180516101c084015260208101516101e08401526040810151610200840152606081015161022084015250949350505050565b60006020828403121561417757600080fd5b5051919050565b60005b83811015614199578181015183820152602001614181565b50506000910152565b600081518084526141ba81602086016020860161417e565b601f01601f19169290920160200192915050565b60018060a01b038151168252600060208201516040602085015261102160408501826141a2565b83815282602082015260606040820152600061421460608301846141ce565b95945050505050565b60006020828403121561422f57600080fd5b8151610dd281613a8c565b6000806040838503121561424d57600080fd5b505080516020909101519092909150565b60006060828403121561427057600080fd5b6142786136b5565b8251815260208301516020820152604083015160408201528091505092915050565b8481528360208201528260408201526080606082015260006142bf60808301846141ce565b9695505050505050565b60008183036101808112156142dd57600080fd5b6142e5613722565b60c08212156142f357600080fd5b6142fb613744565b9150835182526020840151602083015260408401516040830152606084015160608301526080840151608083015260a084015160a083015281815260c0840151602082015260e084015160408201526101008401516060820152610120840151608082015261014084015160a082015261016084015160c0820152809250505092915050565b838152606060208201528251606082015260208301516080820152604083015160a0820152606083015160c08201526000608084015160a060e08401526143cc6101008401826141a2565b905082810360408401526142bf81856141ce565b6000602082840312156143f257600080fd5b8151610dd281613796565b805161ffff81168114611dd957600080fd5b600080600080600080600060e0888a03121561442a57600080fd5b875161443581613796565b6020890151909750614446816137d3565b9550614454604089016143fd565b9450614462606089016143fd565b9350614470608089016143fd565b925060a0880151614480816137b9565b60c089015190925061449181613a8c565b8091505092959891949750929550565b634e487b7160e01b600052601260045260246000fd5b634e487b7160e01b600052601160045260246000fd5b6000826144dc576144dc6144a1565b500490565b80820281158282048414176104b5576104b56144b7565b8181036000831280158383131683831282161715612410576124106144b7565b8082018281126000831280158216821582161715614538576145386144b7565b505092915050565b600060018201614552576145526144b7565b5060010190565b6000825161456b81846020870161417e565b9190910192915050565b808201808211156104b5576104b56144b7565b6000600160ff1b820161459d5761459d6144b7565b5060000390565b80820260008212600160ff1b841416156145c0576145c06144b7565b81810583148215176104b5576104b56144b7565b6000826145e3576145e36144a1565b600160ff1b8214600019841416156145fd576145fd6144b7565b500590565b634e487b7160e01b600052603260045260246000fd5b6020808252825182820181905260009190848201906040850190845b8181101561465657835163ffffffff1683529284019291840191600101614634565b50909695505050505050565b61ffff818116838216019080821115612410576124106144b7565b600061ffff80841680614692576146926144a1565b92169190910692915050565b8051600681900b8114611dd957600080fd5b600080600080608085870312156146c657600080fd5b845163ffffffff811681146146da57600080fd5b93506146e86020860161469e565b925060408501516146f881613796565b606086015190925061470981613a8c565b939692955090935050565b818103818111156104b5576104b56144b7565b6000602080838503121561473a57600080fd5b82516001600160401b038082111561475157600080fd5b818501915085601f83011261476557600080fd5b8151818111156147775761477761369f565b8060051b9150614788848301613766565b81815291830184019184810190888411156147a257600080fd5b938501935b838510156147c7576147b88561469e565b825293850193908501906147a7565b98975050505050505050565b600682810b9082900b03667fffffffffffff198112667fffffffffffff821317156104b5576104b56144b7565b60008160060b8360060b80614817576148176144a1565b667fffffffffffff19821460001982141615614835576148356144b7565b9005939250505056fea2646970667358221220527c0cfc9aa8162061e959b0318c3b022bea30aaaf703a4bb31a7fef89ed37bc64736f6c63430008130033",
    "linkReferences": {
      "src/libraries/logic/AddPairLogic.sol": {
        "AddPairLogic": [
          {
            "start": 101,
            "length": 20
          },
          {
            "start": 1655,
            "length": 20
          }
        ]
      },
      "src/libraries/logic/LiquidationLogic.sol": {
        "LiquidationLogic": [
          {
            "start": 4269,
            "length": 20
          }
        ]
      },
      "src/libraries/logic/MarginLogic.sol": {
        "MarginLogic": [
          {
            "start": 3846,
            "length": 20
          }
        ]
      },
      "src/libraries/logic/ReaderLogic.sol": {
        "ReaderLogic": [
          {
            "start": 1493,
            "length": 20
          },
          {
            "start": 1603,
            "length": 20
          },
          {
            "start": 4146,
            "length": 20
          }
        ]
      },
      "src/libraries/logic/ReallocationLogic.sol": {
        "ReallocationLogic": [
          {
            "start": 3682,
            "length": 20
          }
        ]
      },
      "src/libraries/logic/SupplyLogic.sol": {
        "SupplyLogic": [
          {
            "start": 3976,
            "length": 20
          },
          {
            "start": 6919,
            "length": 20
          }
        ]
      },
      "src/libraries/logic/TradeLogic.sol": {
        "TradeLogic": [
          {
            "start": 4837,
            "length": 20
          }
        ]
      }
    }
  },
  "methodIdentifiers": {
    "allowedUniswapPools(address)": "f3eb8cd8",
    "createVault(uint256)": "9abbdf4b",
    "execLiquidationCall(uint256,uint256,(address,bytes))": "91d0370f",
    "getPairStatus(uint256)": "c92af3ec",
    "getPositionWithUnrealizedFee(uint256)": "9174e1a1",
    "getSqrtIndexPrice(uint256)": "acfcd9fd",
    "getSqrtPrice(uint256)": "18e80749",
    "getVault(uint256)": "9403b634",
    "getVaultStatus(uint256)": "49ebb77d",
    "globalData()": "613ce410",
    "reallocate(uint256,(address,bytes))": "4e20a76e",
    "registerPair((address,address,address,address,uint8,(uint256,int24,int24),(uint256,uint256,uint256,uint256),(uint256,uint256,uint256,uint256)))": "3b39b99d",
    "revertPairStatus(uint256)": "1daf2c19",
    "revertVaultStatus(uint256)": "360125f1",
    "supply(uint256,bool,uint256)": "db9d4a19",
    "take(bool,address,uint256)": "c6b6d340",
    "trade((uint256,uint256,int256,int256,bytes),(address,bytes))": "9b819b30",
    "uniswapV3MintCallback(uint256,uint256,bytes)": "d3487997",
    "updateMargin(uint256,int256)": "5393e780",
    "updateRecepient(uint256,address)": "ab4db360",
    "withdraw(uint256,bool,uint256)": "7f223b4c"
  },
  "id": 55
}