{
  "abi": [
    {
      "inputs": [],
      "stateMutability": "nonpayable",
      "type": "constructor"
    },
    {
      "inputs": [
        {
          "components": [
            {
              "components": [
                {
                  "internalType": "address",
                  "name": "market",
                  "type": "address"
                },
                {
                  "internalType": "address",
                  "name": "trader",
                  "type": "address"
                },
                {
                  "internalType": "uint256",
                  "name": "nonce",
                  "type": "uint256"
                },
                {
                  "internalType": "uint256",
                  "name": "deadline",
                  "type": "uint256"
                }
              ],
              "internalType": "struct OrderInfo",
              "name": "info",
              "type": "tuple"
            },
            {
              "internalType": "address",
              "name": "quoteToken",
              "type": "address"
            },
            {
              "internalType": "address",
              "name": "baseToken",
              "type": "address"
            },
            {
              "internalType": "int256",
              "name": "baseTokenAmount",
              "type": "int256"
            },
            {
              "internalType": "uint256",
              "name": "quoteTokenAmount",
              "type": "uint256"
            },
            {
              "internalType": "address",
              "name": "validatorAddress",
              "type": "address"
            },
            {
              "internalType": "bytes",
              "name": "validationData",
              "type": "bytes"
            }
          ],
          "internalType": "struct SpotOrder",
          "name": "order",
          "type": "tuple"
        },
        {
          "components": [
            {
              "internalType": "address",
              "name": "settlementContractAddress",
              "type": "address"
            },
            {
              "internalType": "bytes",
              "name": "encodedData",
              "type": "bytes"
            }
          ],
          "internalType": "struct ISettlement.SettlementData",
          "name": "settlementData",
          "type": "tuple"
        }
      ],
      "name": "quoteExecuteOrder",
      "outputs": [
        {
          "internalType": "int256",
          "name": "quoteTokenAmount",
          "type": "int256"
        }
      ],
      "stateMutability": "nonpayable",
      "type": "function"
    }
  ],
  "bytecode": {
    "object": "0x608060405234801561001057600080fd5b5061075a806100206000396000f3fe608060405234801561001057600080fd5b506004361061002b5760003560e01c8063323dc08814610030575b600080fd5b61004361003e36600461041c565b610055565b60405190815260200160405180910390f35b606082015181516020830151600092916001600160a01b03169063d6f00ae99061007e8461050a565b6040518363ffffffff1660e01b815260040161009b929190610584565b600060405180830381600087803b1580156100b557600080fd5b505af19250505080156100c6575060015b610107573d8080156100f4576040519150601f19603f3d011682016040523d82523d6000602084013e6100f9565b606091505b5061010381610188565b9250505b60a08401516001600160a01b031615610181578360a001516001600160a01b0316637f75cb8a858385336040518563ffffffff1660e01b815260040161015094939291906105a6565b60006040518083038186803b15801561016857600080fd5b505afa15801561017c573d6000803e3d6000fd5b505050505b5092915050565b60008151602014610210576044825110156101dd5760405162461bcd60e51b815260206004820152601060248201526f2ab732bc3832b1ba32b21032b93937b960811b60448201526064015b60405180910390fd5b600482019150818060200190518101906101f79190610683565b60405162461bcd60e51b81526004016101d491906106f1565b81806020019051810190610224919061070b565b92915050565b634e487b7160e01b600052604160045260246000fd5b60405160e0810167ffffffffffffffff811182821017156102635761026361022a565b60405290565b604051601f8201601f1916810167ffffffffffffffff811182821017156102925761029261022a565b604052919050565b80356001600160a01b03811681146102b157600080fd5b919050565b6000608082840312156102c857600080fd5b6040516080810181811067ffffffffffffffff821117156102eb576102eb61022a565b6040529050806102fa8361029a565b81526103086020840161029a565b602082015260408301356040820152606083013560608201525092915050565b600067ffffffffffffffff8211156103425761034261022a565b50601f01601f191660200190565b600082601f83011261036157600080fd5b813561037461036f82610328565b610269565b81815284602083860101111561038957600080fd5b816020850160208301376000918101602001919091529392505050565b6000604082840312156103b857600080fd5b6040516040810167ffffffffffffffff82821081831117156103dc576103dc61022a565b816040528293506103ec8561029a565b8352602085013591508082111561040257600080fd5b5061040f85828601610350565b6020830152505092915050565b6000806040838503121561042f57600080fd5b823567ffffffffffffffff8082111561044757600080fd5b90840190610140828703121561045c57600080fd5b610464610240565b61046e87846102b6565b815261047c6080840161029a565b602082015261048d60a0840161029a565b604082015260c0830135606082015260e083013560808201526104b3610100840161029a565b60a0820152610120830135828111156104cb57600080fd5b6104d788828601610350565b60c083015250935060208501359150808211156104f357600080fd5b50610500858286016103a6565b9150509250929050565b6000600160ff1b820161052d57634e487b7160e01b600052601160045260246000fd5b5060000390565b60005b8381101561054f578181015183820152602001610537565b50506000910152565b60008151808452610570816020860160208601610534565b601f01601f19169290920160200192915050565b6040815260006105976040830185610558565b90508260208301529392505050565b608081526000855160018060a01b038082511660808501528060208301511660a085015250604081015160c0840152606081015160e08401525060208601516105fb6101008401826001600160a01b03169052565b5060408601516001600160a01b03908116610120840152606087015161014080850191909152608088015161016085015260a088015190911661018084015260c08701516101a08401919091526106566101c0840182610558565b91505084602083015283604083015261067a60608301846001600160a01b03169052565b95945050505050565b60006020828403121561069557600080fd5b815167ffffffffffffffff8111156106ac57600080fd5b8201601f810184136106bd57600080fd5b80516106cb61036f82610328565b8181528560208385010111156106e057600080fd5b61067a826020830160208601610534565b6020815260006107046020830184610558565b9392505050565b60006020828403121561071d57600080fd5b505191905056fea26469706673582212201a9a304948d24ab44350eae8b5e1a1a87fc11c6d45194cb9893c5b27a739821a64736f6c63430008130033",
    "linkReferences": {}
  },
  "methodIdentifiers": {
    "quoteExecuteOrder(((address,address,uint256,uint256),address,address,int256,uint256,address,bytes),(address,bytes))": "323dc088"
  },
  "id": 70
}